:020000041000EA
:1000000000B5324B212058609868022188439860DF
:10001000D860186158612E4B002199600221596106
:100020000121F02299502B49196001219960352056
:1000300000F044F80222904214D00621196600F024
:1000400034F8196E01211966002018661A6600F04E
:100050002CF8196E196E196E052000F02FF8012189
:100060000842F9D1002199601B49196000215960AB
:100070001A491B48016001219960EB211966A021F2
:10008000196600F012F800219960164914480160C1
:100090000121996001BC002800D000471248134993
:1000A000086003C880F30888084703B5996A0420EC
:1000B0000142FBD001200142F8D103BD02B5186610
:1000C0001866FFF7F2FF186E186E02BD00000240BE
:1000D000000000180000070000035F00212200005C
:1000E000F4000018222000A00001001008ED00E03C
:1000F00000000000000000000000000074B24E7A12
:1001000000200420F7010010C3010010C5010010F9
:10011000C1010010C1010010C1010010C101001097
:10012000C1010010C1010010C1010010C701001081
:10013000C1010010C1010010C9010010CB01001065
:10014000CD010010CD010010CD010010CD01001037
:10015000CD010010CD010010CD010010CD01001027
:10016000CD010010CD010010CD010010CD01001017
:10017000CD010010CD010010CD010010CD01001007
:10018000CD010010CD010010CD010010CD010010F7
:10019000CD010010CD010010CD010010CD010010E7
:1001A000CD010010CD010010CD010010CD010010D7
:1001B000CD010010CD010010CD010010CD010010C7
:1001C00000BE00BE00BE00BE00BE00BEEFF3058054
:1001D000103800BEF2EB887134B0091058B0091025
:1001E0003402001090A31AE700201F49086006C8D7
:1001F00081F3088810471D48006800282FD10DA4FE
:100200000ECC002902D000F012F8F9E71849194A7B
:10021000002000E001C19142FCD1174988471749ED
:1002200088471749884700BEFDE701C901C29A42C5
:10023000FBD3704758B00910C000002050260020A2
:10024000F4D509100000042000000420F4D50910A2
:10025000001004200010042000000000704709482E
:1002600022F054FD0047000008ED00E0000000D03F
:1002700060260020842F012025150210290300107C
:10028000591602105756000006005250ABB3605387
:100290000823041006005250861C03021823041081
:1002A000060052505422A29D2423041005005250EF
:1002B000DE65F468F4D50910F8B5C046064807496C
:1002C000091A8B10C90FC91810B5491003D0044B77
:1002D000002B00D0984710BD50260020502600204B
:1002E00000000000054B10B5002B03D00449054861
:1002F00000E000BFFFF7E2FF10BDC04600000000B5
:10030000441701207805041010B52DF087FD182042
:1003100023F0B4FD040000F07BFE200000F082FE1C
:10032000200000F0F7FE10BD8C2010B5400023F037
:10033000A5FD040000F066F8200000F0BBFB0448B7
:100340002DF040FD200000F073F9002010BDC046E4
:1003500009030010F0B50700083704000E0083B051
:100360000760002923D008003FF008FD0500019038
:100370000F280DD8012808D1337823720021019B62
:1003800022686360D15403B0F0BD0028F6D008E0C5
:100390000022200001A935F0C3FF0700019B206067
:1003A000A3602A003100380023F062FDE6E701482F
:1003B00035F09AFE7805041070B50F4D280035F021
:1003C0009BFC0E4C002801D1200070BD00230C487E
:1003D000636030F0D9FE200002F046FC200002F0FD
:1003E0004DFD200002F000FE200002F02DFB280051
:1003F00035F09EFCE8E7C046A0290020D08400200C
:10040000285D0020F0B50022C646002300B502603A
:100410004360804A002542618261002105236C22ED
:100420007D4F0373058181728173056185838766C2
:100430008354C02269339200C252C0220233120197
:10044000C25201220433C252030074339A708023D3
:100450000200C154714B8032D38013815381558087
:10046000958093818E22855202328154020090320F
:10047000D380138153815580958093819E23C552EB
:100480004E33C5500300EC339D605D60F8230400DB
:10049000C154634B83221868596823009200F833D3
:1004A0009860D9609861D9611A825E4B18009846AD
:1004B00035F022FC5C4E002800D082E0E42023F0DE
:1004C000DDFC0100534A0025CA600A6100200523B3
:1004D000642288700B7188710D808D608D820F662B
:1004E0008B54C02261339200CA52C02202331201DF
:1004F000CA5201220433CA520B006C339A7078231B
:100500000A00C854454B7832D380138153819381BC
:100510005580958086228D52023288540A00883296
:10052000D380138153819381962330005580958029
:10053000CD5202F0DDFE404635F0DEFB002854D1FE
:10054000E42023F09BFC00250023052201008360AA
:1005500085708571027103802E480F66C86008613E
:1005600064208B820A54C020613280008852C020EF
:100570000232000188520120043288520A006C3293
:100580009070782208008D54244A7830438083800C
:10059000C28002814281828186200B5202300D543A
:1005A00008008830C2800281428182819622438085
:1005B000838030008B5202F09FFE200080BCB84642
:1005C000F0BD1A48756030F0DFFD300002F04CFBE2
:1005D000300002F053FC300002F006FD300002F063
:1005E00033FA404635F0A4FB68E71048756030F0F8
:1005F000CBFD300002F038FB300002F03FFC300051
:1006000002F0F2FC300002F01FFA404635F090FB99
:1006100096E7C046FF7FFF7F0C1F0020FF7F000092
:1006200088200410A0290020D0840020285D00200C
:10063000F0B5DE46454657464E46E0B587B08046A3
:10064000FFF7BAFE02F056FE0500FFF7B5FE02F016
:1006500055FE0400FFF7B0FE02F048FE002800D06F
:1006600023E1F82343449946C64B88349B46EC2348
:1006700043449A4688239C46AC4463460494C24C47
:10068000039326004446C14BC14F05932368009352
:100690006368984600F0E8FE884572D8884500D126
:1006A00096E0280000F0ECFF280001F0B1F82800E7
:1006B00001F01EFCF823E35C002B67D18A33EB5A70
:1006C000002B00D0A2E04B469A68DB681100009234
:1006D0000193194300D1BAE0AE49019B486A9C4698
:1006E000834208D88B6A009A934201D2844502D093
:1006F000F8230122E2540021504601F093FD280026
:1007000000F0B6FE0021504601F0A4FD102203992E
:10071000049823F0ADFB280001F06CF98046280016
:1007200001F07EF80100404630F034FA380035F030
:10073000E3FA002855D1300002F0E2FD380035F030
:10074000DBFA00282FD1300002F0E2FD30F00EFA83
:100750000121504601F07EFD01200021404224F09D
:1007600053F900F081FE0023642280185941206073
:100770006160236800936368984600F075FE8845C1
:100780008CD93220002120F0D7F87FE78A23EA5A5B
:100790004B461B8A9A4240D05B4649461A685B68C2
:1007A0008A61CB61A7E700230598736030F0ECFC09
:1007B000300002F059FA300002F060FB300002F025
:1007C00013FC300002F040F9380035F0B1FABAE716
:1007D000009B834200D864E73220002120F0ACF86F
:1007E00054E700230598736030F0CEFC300002F02F
:1007F0003BFA300002F042FB300002F0F5FB300023
:1008000002F022F9380035F093FA94E75B46494646
:100810001A685B688A60CB606DE74B469A69DB6952
:10082000110000920193194328D05A49019B486A4C
:100830009C46834200D95EE78B6A009A934202D2BB
:10084000844500D157E7544802F05CFF53E720F09D
:1008500049F93222002312184B4180210092019362
:1008600009068B4204D301224C4B52420092019361
:100870000099019A4B469960DA602DE720F032F931
:100880000023474A12184B41802100920193090628
:100890008B4204D30122414B5242009201930099B2
:1008A000019A4B469961DA61BFE7F82343449946C0
:1008B000344B4C469B463B4E3B4F300035F01CFAC8
:1008C00000282FD1300035F017FA002832D1380037
:1008D00001F0C2FD280000F0D3FEF8234246D35CAD
:1008E000002B2BD18A33EB5A002B32D1A268E3685C
:1008F00011000092019319435AD02649019B486A7E
:100900009C468342D9D88B6A009A934201D284458F
:10091000D3D0F823012241463000CA5435F0ECF917
:100920000028CFD0300035F003FA300035F0E4F97C
:100930000028CCD0300035F0FBF9C8E78A23EA5A0A
:10094000238A9A420BD05B461A685B68A261E36116
:10095000B3E75B461A685B68A260E360ADE7A06935
:10096000E16903000B4339D00A4B5A6A9142A4D87B
:100970009B6A834201D291429FD00C4802F0C2FE92
:100980009BE7C04688200410D0840020285D00200A
:10099000A029002000400540A58477E7FFFFFF7FE6
:1009A00000093D009C290020C8840020CD66D54365
:1009B00020F098F83222002312184B418021009237
:1009C000019309068B4204D301220C4B5242009240
:1009D0000193009A019BA260E3608EE720F082F809
:1009E0000023074A8018594180231B06994202D3ED
:1009F000012002494042A061E161B5E7FFFFFF7FAE
:100A000000093D0070B502F091FE254B04009842AC
:100A10003FD0244B984226D0002801D0002070BD42
:100A2000214E300035F068F9204D00281DD12800F6
:100A300002F060FC040000F023FE6623E25A243337
:100A40001100E35A1940914209D09A0521D45A075E
:100A500021D4DA0721D49B07E0D50520DFE78822DF
:100A6000A25CD207F1D50220D9E711486C6030F0C2
:100A70008BFB280002F0F8F8280002F0FFF92800AC
:100A800002F0B2FA280001F0DFFF300035F050F933
:100A9000CDE70120C3E70320C1E70420BFE7C0463C
:100AA000A58477E7E1E437F7A0290020D08400206F
:100AB000285D0020F8B5934F0400380035F01CF98C
:100AC000914D002800D0E5E0280002F013FC06005C
:100AD00001F056F8FFF796FF012800D1C3E000DCD3
:100AE000B8E0022800D103E1C21E022A12D86C220B
:100AF000B25C032800D102E1051F6B425D41EDB2FB
:100B0000954204D06C233000F55401F0B1F928006F
:100B100030F01CF82DF078FB082023F0AFF9002608
:100B20007A4BEC340100868003600022200001F043
:100B300027FC082023F0A2F9754B010003604660F2
:100B40000022200001F01CFC242023F097F905006E
:100B50002422002123F086F96E4B29002B6000220D
:100B6000200001F00DFC282023F088F90500282240
:100B7000002123F077F9684B29002B600022200028
:100B800001F0FEFB0C2023F079F900230372634B84
:100B90000100036046600022200001F0F1FB2420E8
:100BA00023F06CF905002422002123F05BF95C4B53
:100BB00029002B600022200001F0E2FB102023F02E
:100BC0005DF905001022002123F04CF9554B290056
:100BD0002B600022200001F0D3FB202023F04EF9EF
:100BE00005002022002123F03DF94F4B29002B6006
:100BF0000022200001F0C4FB542023F03FF905003F
:100C00005422002123F02EF9484B29002B600022AA
:100C1000200001F0B5FB0C2023F030F905000C2278
:100C2000002123F01FF9424B29002B6001222000F4
:100C300001F0A6FB102023F021F90500102200216D
:100C400023F010F93B4B29002B600022200001F01B
:100C500097FBF8BD002800D05CE76C23F55C28000A
:100C60002FF074FF56E7380035F046F8002826D1FB
:100C70002800012102F030FBFF202FF067FF2E4DEE
:100C8000280035F039F800282ED100212B4801F03A
:100C9000D1FB3FE700232A486B6030F075FA28004B
:100CA00001F0E2FF280002F0E9F8280002F09CF9C8
:100CB000280001F0C9FE380035F03AF804E70023B7
:100CC0001F486B6030F060FA280001F0CDFF28006B
:100CD00002F0D4F8280002F087F9280001F0B4FEF1
:100CE000380035F025F8C3E7280035F021F8CCE7C7
:100CF000144822F00BF80021030008009847022551
:100D0000FEE6C046A0290020D0840020C4190410AB
:100D1000181A04109C1A041050200410C41A04104D
:100D2000EC1A0410101B0410E01F0410042004101F
:100D3000901F04102C2004109C290020C88400203F
:100D4000285D0020554200000123F0B5DE465746DD
:100D50004E464546574A5B42E0B513600023FF26E6
:100D6000FF2153609360D3601361534A534F136064
:100D7000534A544D1760544A544C1660544A5548CF
:100D80001560554A09021460544A8FB01060544AE5
:100D90001160544A54498C461160544A54491160B8
:100DA0008846544A544911608946FF21534A090430
:100DB00011608A46524A53491160534A5349049478
:100DC0001160534A5349544C1160FF22120206929B
:100DD00062460792424608924A468B46099252461C
:100DE0000A925A46474905900B914849382000938A
:100DF00023606360A36003950C910D9201970296A6
:100E000023F03CF805003822694638352060A5609B
:100E100023F02EF8414942486560FFF79BFA4149AB
:100E20004148FFF797FA41494148FFF793FA414992
:100E30004148FFF78FFA41494148FFF78BFA414992
:100E40004148FFF787FA41494148FFF783FA414992
:100E50004148FFF77FFA41494148FFF77BFA414992
:100E60004148FFF777FA41494148FFF773FA414992
:100E70004148FFF76FFA41494148FFF76BFA414992
:100E80004148FFF767FA41494148FFF763FA414992
:100E90004148FFF75FFA41494148FFF75BFA414992
:100EA0004148FFF757FA0FB0F0BCBB46B246A9461F
:100EB000A046F0BDFC5F0020A4290020FFFFFF003A
:100EC000842A0020FF8000008C5F0020FFFF0000CC
:100ED000F82A002080FF0000D82B0020142E0020CC
:100EE000142A0020E82C002000FF80003862002037
:100EF00000FFFF00582D00200080FF00A8620020A6
:100F0000682B00208000FF0018630020FF00FF0016
:100F1000782C0020FF0080007C5D0020AC050410D0
:100F2000644B0020B0050410A84D0020B805041043
:100F3000B84F0020A8130410105A0020C005041058
:100F4000A4320020C4050410B4340020C8050410E5
:100F5000C4360020CC050410D4380020D00504107D
:100F6000E43A0020D405041014410020D8050410F0
:100F7000F43C0020DC05041024430020E0050410AC
:100F800044470020E405041054490020E8050410FB
:100F9000043F0020EC05041034450020F005041047
:100FA000842E0020F405041094300020F0B50700D2
:100FB000083704000E0083B00760002923D0080022
:100FC0003EF0DCFE050001900F280DD8012808D165
:100FD000337823720021019B22686360D15403B0EF
:100FE000F0BD0028F6D008E00022200001A935F06D
:100FF00097F90700019B2060A3602A0031003800A8
:1010000022F036FFE6E7014835F06EF87805041067
:10101000002200230260436000238360C3600361F9
:101020007047C046F8B5354E08300500300022F054
:1010300025FF04003200002122F014FF304B00266F
:101040002360012323738A23E427DB00E218083B93
:10105000E2500833E65421002800BF00022201F0CC
:101060008FF9380022F00AFF04003A00002122F034
:10107000F9FE244B20002360CA230A225B00C530FE
:10108000E250FF302DF0BCFEDF239B00E654E31856
:101090005E601E612100280002229B60DB6001F07F
:1010A0006FF9102022F0EAFE174B01000360FF23C6
:1010B0008660037106730222280001F061F90C209A
:1010C00022F0DCFE04000C22002122F0CBFE0F4BAC
:1010D000210023602800022201F052F9142022F09E
:1010E000CDFE04001422002122F0BCFE084B280093
:1010F00002222100236001F043F9F8BD6C040000D6
:10110000E81C0410681F0410B41F0410EC1904102C
:10111000441A0410F8B50823CE46474699460600FF
:101120006424002580B5814433687768984600F0D0
:101130009BF98F420AD9322000211FF0FDFB336852
:101140007768984600F090F98F42F4D88F4201D129
:101150008045F0D80221484601F07CF800F084F97F
:101160000019694130607160DEE7C0460123F0B5C7
:10117000DE4657464E464546574A5B42E0B5136049
:101180000023FF26FF2153609360D3601361534A0D
:10119000534F1360534A544D1760544A544C1660D1
:1011A000544A55481560554A09021460544A8FB094
:1011B0001060544A1160544A54498C461160544A94
:1011C000544911608846544A544911608946FF21A8
:1011D000534A090411608A46524A53491160534ADE
:1011E000534904941160534A5349544C1160FF22EF
:1011F0001202069262460792424608924A468B467F
:10120000099252460A925A46474905900B9148491D
:101210003820009323606360A36003950C910D92C6
:101220000197029622F02AFE0500382269463835D9
:101230002060A56022F01CFE414942486560FFF72E
:10124000B5FE41494148FFF7B1FE41494148FFF72A
:10125000ADFE41494148FFF7A9FE41494148FFF72A
:10126000A5FE41494148FFF7A1FE41494148FFF72A
:101270009DFE41494148FFF799FE41494148FFF72A
:1012800095FE41494148FFF791FE41494148FFF72A
:101290008DFE41494148FFF789FE41494148FFF72A
:1012A00085FE41494148FFF781FE41494148FFF72A
:1012B0007DFE41494148FFF779FE41494148FFF72A
:1012C00075FE41494148FFF771FE0FB0F0BCBB46C7
:1012D000B246A946A046F0BD10600020A829002013
:1012E000FFFFFF00882A0020FF800000905F0020A1
:1012F000FFFF0000FC2A002080FF0000DC2B002004
:10130000182E0020182A0020EC2C002000FF80005E
:101310003C62002000FFFF005C2D00200080FF00E9
:10132000AC6200206C2B00208000FF001C630020BA
:10133000FF00FF007C2C0020FF008000885D002063
:10134000AC0504107C4B0020B0050410C04D0020FB
:10135000B8050410D04F0020A8130410285A00200C
:10136000C0050410BC320020C4050410CC34002099
:10137000C8050410DC360020CC050410EC38002031
:10138000D0050410FC3A0020D40504102C410020A4
:10139000D80504100C3D0020DC0504103C4300205F
:1013A000E00504105C470020E40504106C490020AF
:1013B000E80504101C3F0020EC0504104C450020FB
:1013C000F00504109C2E0020F4050410AC30002021
:1013D0007047C04610B502482FF090FE10BDC046C1
:1013E0002C5D0020F0B50700083704000E0083B024
:1013F0000760002923D008003EF0C0FC05000190E2
:101400000F280DD8012808D1337823720021019BC1
:1014100022686360D15403B0F0BD0028F6D008E024
:101420000022200001A934F07BFF0700019B20600F
:10143000A3602A003100380022F01AFDE6E70148D7
:1014400034F052FE7805041010B51FF04BFB002954
:1014500005D0FA220023920021F0F0FC10BDFA2101
:10146000890021F0ADFCF9E710B51FF03BFB10BD82
:1014700070B50400210010228831783022F0F8FC89
:101480006E23E65C1A33E15C853B0B40022B00D1F6
:101490009BE0032B2DD0012B00D188E004200825F0
:1014A0000023744A13700C220A40082A00D187E0F6
:1014B0000C2A00D18DE0042A2DD06F4A0021117032
:1014C0008822A3541B3AA25C012A2ED0022A4DD0B6
:1014D0006378002B04D18E22684BA3520232A352B0
:1014E000A378002B04D19222644BA3520232A35260
:1014F00070BD002E00D09DE001225E4B1A700C23BF
:101500000B40082B00D1ABE00C2B00D1A6E0042B44
:1015100000D0A3E005200322574B1A700300882255
:10152000A3541B3AA25C012AD0D1A278002A5DD034
:101530000C221A40042A62D0083A51424A414F49CB
:10154000D2038C468E216244625203221340012B47
:101550005CD0023B5A425341484ADB039446634401
:101560009022A35288230022E254C1E76278002A25
:101570004ED00C221A40042A53D0083A51424A4114
:101580003E49D2038C4692216244625203221340A8
:10159000012B4DD0023B5A425341384ADB0394465B
:1015A00063449422A35288230022E254A0E7314AE4
:1015B000052013700C2209250A40082A00D077E77D
:1015C00004222D4B1A702B007AE706200A25294A9F
:1015D00068E7022E00D070E7274A1178002900D171
:1015E0006CE703299AD12800030098E79221234A47
:1015F0006252023162520C221A40042A9CD100220B
:101600008E21625203221340012BA2D10023A7E7AF
:101610008E211A4A6252023162520C221A40042A66
:10162000ABD100229221625203221340012BB1D18F
:101630000023B6E7022E00D030E70E4A1378002BC5
:1016400010D0012B11D00520092501230C220A40BE
:10165000082AB5D00C2A00D02DE7BDE701232CE7DE
:101660000925ADE7042008251CE7022306200A25EA
:10167000ECE7C0466B2F01206A2F0120FF7F00009E
:101680009822D02330B584581B0659686268CB4332
:101690008A4300D19BE07022825C002A00D1A6E040
:1016A0009C22815808228A564968194202D0218911
:1016B0000A4352B2A02141584C681C4202D0098909
:1016C0000A4352B2A42141584C681C4202D00989F5
:1016D0000A4352B288214254A822815800224C6801
:1016E0001C4201D008228A5EAC2141584C681C4241
:1016F00002D009890A4312B2B02141584C681C42F9
:1017000002D009890A4312B2B42141584C681C42E4
:1017100002D009890A4312B2B82141584C681C42D0
:1017200002D009890A4312B2BC2141584C681C42BC
:1017300002D009890A4312B2C02141584C681C42A8
:1017400002D009890A4312B2C42141584C681C4294
:1017500002D009890A4312B2C82141584C681C4280
:1017600002D009890A4312B2CC2141584C681C426C
:1017700002D009890A4312B2D02141584C681C4258
:1017800002D009890A4312B2D42141584C681C4244
:1017900002D009890A4312B2D82141584C681C4230
:1017A00002D009890A4312B2DC2141584C681C421C
:1017B00002D00B891A4312B28A23C2528E22124BD4
:1017C00012498352023281500432835030BD9C2230
:1017D000815800224D681D4200D16BE77025455DA0
:1017E000002D00D063E709890A4352B262E79C21C9
:1017F00008224158A2564C681C4200D15AE7098978
:101800000A4352B256E7C046FF7F0000FF7FFF7FCA
:10181000010010B5883104301DF042FA10BDC046F9
:101820006C23C05C002807D00138434258410A238A
:1018300040429843133070471420FCE7882370B56A
:10184000C25C793B010013400A2B51D8304A9B00FF
:10185000D3589F4603232F48012283708A230225F1
:10186000CC5A6600A308354013402B436508154049
:10187000AD002B43E5081540ED002B43250915402D
:101880002D012B43650915406D012B43A50915401A
:10189000AD012B43E5091540ED012B43250A154009
:1018A0002D022B43650A15406D022B43A50A1540F6
:1018B000AD022B43E50A1540ED022B43250B1540E5
:1018C000640B2D0322402B435203134303808E23CA
:1018D000CB5A1B0AC3709023CB5A1B0A0371922365
:1018E000CB5A1B0A43719423CB5A1B0A837170BDD8
:1018F0000823B0E70023AEE70423ACE70623AAE7FA
:101900000723A8E70523A6E70223A4E70123A2E70C
:10191000F8050410241F0020882370B5C55C02332D
:10192000C15AAA08893B6E081A401E4076009200F0
:1019300032431E002E40ED081D40ED0032432A4385
:101940004D0A1D402D012A430D0A1D406D012A43F9
:101950008D0A1D40AD012A43CD0A1D40ED012A43E9
:101960001D00040020480D4082700A092D011A4014
:101970002A434D091D406D002A430D0B1D40AD004B
:101980002A434D081D406D012A438D081D40AD01BD
:101990002A43CD081D40ED012A43C270134D8E220B
:1019A000AC46A25A6244C2809022A55A104A551BE6
:1019B00005819225655B654445819425655B521BD5
:1019C00082812278002A06D09533E35C0371972345
:1019D000E35C437170BD8A09C9091A400B40524249
:1019E0005B420271DBB2F4E7101F00200080FFFFB2
:1019F000FF7F00006C2370B5C35C002B0BD0012B64
:101A00000CD08823C25C793B13400A2B58D8344A47
:101A10009B00D3589F46FFF77FFF70BDFFF70EFF77
:101A2000FBE703232F4A93708A23C45A883B610043
:101A30000B400121A5080D402B4365080D40AD006A
:101A40002B43E5080D40ED002B4325090D402D01EA
:101A50002B4365090D406D012B43A5090D40AD01D8
:101A60002B43E5090D40ED012B43250A0D402D02C6
:101A70002B43650A0D406D022B43A50A0D40AD02B4
:101A80002B43E50A0D40240BED02214009032B43B3
:101A90000B431188490B49030B4313808E23C35A10
:101AA0001B0AD3709023C35A1B0A13719223C35A83
:101AB0001B0A53719423C35A10001B0A9371ACE79D
:101AC0000823AFE70023ADE70423ABE70623A9E72C
:101AD0000723A7E70523A5E70223A3E70123A1E73F
:101AE000240604102C1F0020F0B5CE464746060001
:101AF00080B5214B85B019000C22984622F0B8F928
:101B0000B36801AD9946002328003700B360340064
:101B100032F0A6FD0C3721002800013432F0A8FD78
:101B2000BC42F8D1280032F0BBFD814505D1300020
:101B300005B0C0BCB946B046F0BD104B2A003360BA
:101B400000233100337191C991C26846AB6032F015
:101B500087FD2C0004AF21006846013432F088FD77
:101B6000BC42F8D1684632F09BFD0C22A8602900E7
:101B7000404622F07DF9DAE72064002001020100EE
:101B8000F0B5DE464E4645465746E0B5A7B06D4631
:101B90000400016E2800FFF7A7FF23006C3307CD78
:101BA00007C390226823AF4E52013000E25234F056
:101BB000A3F8AD4D002800D03EE12900012505AE77
:101BC000300000F0B5FF0C2022F058F92A0073789D
:101BD00005819A40037098234260E0500C2022F067
:101BE0004DF92A00B3782F009A40426002229146B4
:101BF00002819A32A05003700C2022F03FF9290094
:101C0000F378994041600421884601819C316050FD
:101C100003700C2022F032F933799F400370476043
:101C2000A4230827E05007810C2022F027F929007F
:101C30007379058199404160A821037060500C20A0
:101C400022F01CF92A00B3799A4003704B460381B5
:101C5000AA334260E0500C2022F010F92A00F379F8
:101C60009A40037043460381AC334260E0500C203D
:101C700022F004F92900337A07819940AC37E0510A
:101C80002F00416003700C2022F0F8F8737A9F4017
:101C90004760B82703701023E0512F0003810C2008
:101CA00022F0ECF8B37A9F404760BC2703702023F2
:101CB000E0512F0003810C2022F0E0F8F37A9F40DE
:101CC000037047604023C0270381E0510C2022F0BD
:101CD000D5F82900337B2F009940037041608023A1
:101CE000C421038160500C2022F0C8F8737B9F4010
:101CF0004760C82703708023E051BB462F005B007C
:101D000003810C2022F0BAF8B37B9F404760CC27B8
:101D100003708023E051BA462F009B0003810C2002
:101D200022F0ACF8F37B9F404760D02703708023FC
:101D3000E051B9462F00DB0003810C2022F09EF811
:101D4000337C9F404760D42703708023B846E0511E
:101D50002F001B0103810C2022F090F8737C9F4020
:101D6000037080234760D8275B010381E0510C207A
:101D700022F084F8B37CE0269D4003708023456008
:101D8000DC259B0103816051482022F07BF89C22D6
:101D9000A021A25898234260625808318260A42290
:101DA000A258E358C26062581C310261AC22A258AA
:101DB00003604261B022A2588261B422A258C2617B
:101DC000B822A2580262BC22A2584262C022A25883
:101DD00082626258C2625A46A25802635246A258B0
:101DE00042634A46A25882634246A258C263E259FD
:101DF000D027026462593F064264E022A050DF3AD5
:101E00000025904601E0A3595B5918781DF0CCFEDF
:101E1000A35900225B5901211878434683400435B9
:101E2000BB621DF09BFE482DEDD127B0F0BCBB4638
:101E3000B246A946A046F0BD00230C486B602FF0C7
:101E4000A3F9280000F010FF280001F017F828007F
:101E500001F0CAF8280000F0F7FD300033F068FF09
:101E6000ABE6C046A0290020D08400202C5D0020D5
:101E7000F0B505002C0089B0016E6C3402A8FFF7A4
:101E800033FE0C22210002A83DF0FAFC002801D10B
:101E900009B0F0BD05AF3B0007CC07C3002301A884
:101EA000BB603C0032F0DCFB08AE210001A801342D
:101EB00032F0DEFBA642F8D101A832F0F1FB0C2291
:101EC000B8603900074821F0D3FF286E064A03683E
:101ED0005B68934203D105482FF010F9D8E7984783
:101EE000D6E7C04620640020D51300102C5D0020EA
:101EF000662370B5C25A24331100C35A19408A426E
:101F00002BD06822825A0024110019408A4201D045
:101F1000200070BD8821455C79392940042949D0C9
:101F200010D8012941D00229F2D101246E21934316
:101F300044543F3488220021815402328352FFF7F7
:101F400097FFE5E70829E3D170240125015D93435C
:101F5000694001559134FF34ECE78821445C7939BC
:101F6000214004291BD009D8012911D002290DD103
:101F700000246D21934344540134DBE7082905D143
:101F800002246D21934344540234D3E70024BFE775
:101F900093431A0080235B0108241343CAE70124FA
:101FA0006D21934344540134C4E76E219343445458
:101FB0002024BFE702246E21934344547E34B9E7C2
:101FC0000123F0B5DE4657464E464546574A5B422A
:101FD000E0B513600023FF26FF2153609360D360B8
:101FE0001361534A534F1360534A544D1760544A78
:101FF000544C1660544A55481560554A09021460FD
:10200000544A8FB01060544A1160544A54498C4667
:102010001160544A544911608846544A5449116029
:102020008946FF21534A090411608A46524A53499E
:102030001160534A534904941160534A5349544C14
:102040001160FF22120206926246079242460892EF
:102050004A468B46099252460A925A46474905908B
:102060000B9148493820009323606360A360039577
:102070000C910D920197029621F000FF0500382285
:10208000694638352060A56021F0F2FE414942489A
:102090006560FFF7A7F941494148FFF7A3F94149B6
:1020A0004148FFF79FF941494148FFF79BF94149F2
:1020B0004148FFF797F941494148FFF793F94149F2
:1020C0004148FFF78FF941494148FFF78BF94149F2
:1020D0004148FFF787F941494148FFF783F94149F2
:1020E0004148FFF77FF941494148FFF77BF94149F2
:1020F0004148FFF777F941494148FFF773F94149F2
:102100004148FFF76FF941494148FFF76BF94149F1
:102110004148FFF767F941494148FFF763F90FB0BC
:10212000F0BCBB46B246A946A046F0BD24600020E4
:10213000AC290020FFFFFF008C2A0020FF80000058
:10214000945F0020FFFF0000002B002080FF0000B4
:10215000E02B00201C2E00201C2A0020F02C002048
:1021600000FF80004062002000FFFF00602D002083
:102170000080FF00B0620020702B00208000FF0074
:1021800020630020FF00FF00802C0020FF00800063
:10219000945D0020AC050410944B0020B0050410A1
:1021A000D84D0020B8050410E84F0020A8130410F3
:1021B000405A0020C0050410D4320020C405041089
:1021C000E4340020C8050410F4360020CC050410C7
:1021D00004390020D0050410143B0020D40504105D
:1021E00044410020D8050410243D0020DC050410E3
:1021F00054430020E005041074470020E405041057
:1022000084490020E8050410343F0020EC05041048
:1022100064450020F0050410B42E0020F4050410DD
:10222000C4300020F8B54568046807000E00AC42D1
:1022300006D023681A79B24203D00434A542F8D1FB
:10224000F8BD186804340368DB6898477D68A542C8
:10225000EFD1F5E7F8B54568046807000E00AC4219
:1022600006D023681A79B24203D00434A542F8D1CB
:10227000F8BD1868043403689B6898477D68A542D8
:10228000EFD1F5E7F8B54546DE4657464E460368BA
:10229000E0B546689346374A9846F31A05008A46E1
:1022A0009B10934262D0B04556D01A009A189342C0
:1022B00047D8534641465C1A002300279946002A16
:1022C0004CD15B461B683B51002C2ADC534604343E
:1022D0003C19F61A002E0DDC4346A419002B19D127
:1022E0004B462F606C60AB60F0BCBB46B246A94663
:1022F000A046F8BD20003200514621F0B9FD43460A
:10230000A419002BECD005E020003200514621F04A
:10231000AFFDA4194346A968C91A404621F0BAFD89
:10232000DEE72200414638003DF0CCFA5346043443
:102330003C19F61A002EE7DC4346A968A419C91A0D
:10234000EBE7534642469C1A0B4B9946484621F010
:1023500095FD07008144B4E70122A7E780239B0590
:102360009A4200D3034A93009946EFE7034833F0BB
:10237000D3FEC046FFFFFF1FFCFFFF7F6006041077
:10238000F0B50B68050083B008001B680C0017004F
:102390009847002811D0082021F070FD060023681E
:1023A00001905B68200098476968AB6834603771BA
:1023B000994208D040C1696003E00421200021F067
:1023C00069FD03B0F0BD280001AAFFF75BFFF8E745
:1023D000F0B50700083704000E0083B0076000293D
:1023E00023D008003DF0CAFC050001900F280DD84D
:1023F000012808D1337823720021019B2268636091
:10240000D15403B0F0BD0028F6D008E0002220002F
:1024100001A933F085FF0700019B2060A3602A001B
:102420003100380021F024FDE6E7014833F05CFE7E
:102430007805041070B505000C1E01D02C7070BD1D
:10244000042021F01BFD0600024B036001F090F90F
:102450006E60F3E75017041010B5406803685B68BE
:10246000984710BD10B50800FFF702FD10BDC0462B
:1024700084B030B5174D95B0280019911A921B936E
:1024800033F03AFC144C00280FD11CA950226846A6
:1024900021F0EEFC200019991A9A1B9B00F0C4FE53
:1024A00015B030BC08BC04B0184700230B4863606B
:1024B0002EF06AFE200000F0D7FB200000F0DEFCCA
:1024C000200000F091FD200000F0BEFA280033F05B
:1024D0002FFCDAE7A0290020D0840020305D002006
:1024E00084B070B5684E9EB030002391249225933D
:1024F00033F002FC23AC654D002800D099E078222F
:1025000026A9684621F0B4FC280023996268A368D4
:1025100000F0D0FB300033F0EFFB002800D09DE04E
:10252000280000F0E7FE9823C258973B1D00617811
:102530008D4055601D001170A1789C228D408258FD
:1025400055601D001170E178A0228D4082585560C1
:102550001D0011702179A4228D40825855601D0004
:1025600011706179A8228D40825855601D0011704C
:10257000A179AC228D40825855601D001170E1791F
:10258000B0228D40825855601D001170217AB4220E
:102590008D40825811705560B8221D008258617AB2
:1025A0008D4055601D001170A17ABC228D4082586B
:1025B00055601D001170E17AC0228D40825855602F
:1025C0001D001170217BC4228D40825855601D0072
:1025D0001170617BC8228D40825855601D001170BA
:1025E000A17BCC228D40825855601D001170E17B8B
:1025F000D0228D40825855601D001170217CD4225C
:102600008D40825811705560D8221D008258617C1F
:102610008D4011705560A17CDC228B4082581C4893
:1026200011705360FEF7D6FE1EB070BC08BC04B03B
:102630001847002317486B602EF0A6FD280000F015
:1026400013FB280000F01AFC280000F0CDFC280045
:1026500000F0FAF9300033F06BFB50E700230D482F
:102660006B602EF091FD280000F0FEFA280000F0CB
:1026700005FC280000F0B8FC280000F0E5F9300067
:1026800033F056FB4CE7C046A0290020D084002040
:10269000401F0020305D002084B070B5134D0591BF
:1026A00028000692079333F027FB114C002807D12E
:1026B000200005A900F002FE70BC08BC04B0184759
:1026C00000230C4863602EF05FFD200000F0CCFA80
:1026D000200000F0D3FB200000F086FC200000F07A
:1026E000B3F9280033F024FBE2E7C046A02900201C
:1026F000D0840020305D002084B070B51C4C1D4E8D
:10270000A544FFAC300021616261A36133F0F4FAAB
:102710001034194D002815D1FE22FFA968469200F9
:102720001C3121F0A5FBFFAB19692800626810334A
:10273000A36800F013FCFE239B009D4470BC08BC02
:1027400004B0184700230D486B602EF01DFD2800D3
:1027500000F08AFA280000F091FB280000F044FC09
:10276000280000F071F9300033F0E2FAD4E7C046F7
:1027700008FCFFFFA0290020D0840020305D00204D
:102780000123F0B5DE4657464E464546574A5B4262
:10279000E0B513600023FF26FF2153609360D360F0
:1027A0001361534A534F1360534A544D1760544AB0
:1027B000544C1660544A55481560554A0902146035
:1027C000544A8FB01060544A1160544A54498C46A0
:1027D0001160544A544911608846544A5449116062
:1027E0008946FF21534A090411608A46524A5349D7
:1027F0001160534A534904941160534A5349544C4D
:102800001160FF2212020692624607924246089227
:102810004A468B46099252460A925A4647490590C3
:102820000B9148493820009323606360A3600395AF
:102830000C910D920197029621F020FB05003822A1
:10284000694638352060A56021F012FB41494248B5
:102850006560FFF7BDFD41494148FFF7B9FD4149BA
:102860004148FFF7B5FD41494148FFF7B1FD4149F6
:102870004148FFF7ADFD41494148FFF7A9FD4149F6
:102880004148FFF7A5FD41494148FFF7A1FD4149F6
:102890004148FFF79DFD41494148FFF799FD4149F6
:1028A0004148FFF795FD41494148FFF791FD4149F6
:1028B0004148FFF78DFD41494148FFF789FD4149F6
:1028C0004148FFF785FD41494148FFF781FD4149F6
:1028D0004148FFF77DFD41494148FFF779FD0FB0C1
:1028E000F0BCBB46B246A946A046F0BD3860002009
:1028F000B0290020FFFFFF00902A0020FF80000089
:10290000985F0020FFFF0000042B002080FF0000E4
:10291000E42B0020202E0020202A0020F42C002070
:1029200000FF80004462002000FFFF00642D0020B3
:102930000080FF00B4620020742B00208000FF00A4
:1029400024630020FF00FF00842C0020FF00800093
:10295000A05D0020AC050410AC4B0020B0050410B5
:10296000F04D0020B805041000500020A8130410FA
:10297000585A0020C0050410EC320020C405041091
:10298000FC340020C80504100C370020CC050410CE
:102990001C390020D00504102C3B0020D405041065
:1029A0005C410020D80504103C3D0020DC050410EB
:1029B0006C430020E00504108C470020E40504105F
:1029C0009C490020E80504104C3F0020EC05041051
:1029D0007C450020F0050410CC2E0020F4050410E6
:1029E000DC300020F0B50700083704000E0083B08B
:1029F0000760002923D008003DF0C0F905000190D0
:102A00000F280DD8012808D1337823720021019BAB
:102A100022686360D15403B0F0BD0028F6D008E00E
:102A20000022200001A933F07BFC0700019B2060FD
:102A3000A3602A003100380021F01AFAE6E70148C5
:102A400033F052FB78050410F0B5C646060000B519
:102A5000314C324FF136FF360500A5443900304A7B
:102A6000300021F005FABE23DB00EA5801A89046A9
:102A70000022EA5031F0F4FD2A4B34009C466544B4
:102A8000210001A8013431F0F3FDAC42F8D101A8D6
:102A900031F006FE804505D18123DB009D4480BCDA
:102AA000B846F0BD8024E40022001F49300021F028
:102AB000DFF931001A4A01A821F0DAF93000184A8A
:102AC00001A93CF0DDFE0028E6D06A46002304326E
:102AD0001351684631F0C4FDFFAD01AC0C35210047
:102AE0006846013431F0C4FDAC42F8D1684631F09B
:102AF000D7FD6A4680230432DB00D05001A9084A82
:102B0000380021F0B5F909482EF0F8FA3000044AEF
:102B100001A921F0ADF9BFE7F8FBFFFF2074002009
:102B200004040000F405000084060410345D002055
:102B300010B5040084220C3121F09AF9200010BD58
:102B40003D4BF0B5C3603D4B002503613C4B01227A
:102B500043613C4BADB083613B4B0400C3613B4BD5
:102B600003842223C5543A4BC562436201235B426E
:102B70000385384B03633423C25408338363393BE2
:102B800083873B33C554344B01AA056411001800F8
:102B90009C46C8C8C8C1C0C8C0C121004431C1CA10
:102BA000C1C141CA41C1634611001433C1CBC1C187
:102BB00041CB41C12300583343CA43C303CA03C3B3
:102BC0002000062225490C346C3021F051F9842272
:102BD00021000BA821F04CF9842221000BA83CF025
:102BE0004FFE002801D12DB0F0BD2C216A46802374
:102BF00052186846D55031F033FD0BAD2CAE29008C
:102C00006846013531F034FDB542F8D1684631F0FF
:102C100047FD6A462C2180235218D0500BA98422EC
:102C20000F4821F025F90F482EF068FA8422200081
:102C30000BA921F01DF9D6E700FFFFFFFF0C0E05E1
:102C400004FF020301001DFFFFFFFF00030300005C
:102C50004C1D0000801A0600840A04107C06041033
:102C600020680020345D0020F0B504000C3406001C
:102C700083B084220E49200021F0FAF88C23002230
:102C8000F7583500F25001A831F0EAFC90352100E8
:102C900001A8013431F0ECFCAC42F8D101A831F0CC
:102CA000FFFC874202D03000FFF74AFF03B0F0BDBF
:102CB0002068002084B070B50C3082B00500079108
:102CC00008920100842207A809933CF0D9FD00284E
:102CD00004D102B070BC08BC04B018471C2069467F
:102CE00080230022091801A8CA5031F0B9FC07ACB2
:102CF00028AE210001A8013431F0BAFCB442F8D169
:102D000001A831F0CDFC6A461C2180235218D05016
:102D100007A98422054821F0ABF805482EF0EEF90A
:102D20008422280007A921F0A3F8D2E72068002018
:102D3000345D002010B5040015316022FF3121F010
:102D400097F8200010BDC04601238A225B423E490D
:102D5000520070B58350043281503C490432815096
:102D6000FF21002404324942815202328354483305
:102D7000FF33C452364A223BC4500433C250C022EF
:102D800004335242C250334A0433C250324A0433ED
:102D9000C250324A0433C250314A0433C250314A1D
:102DA0000433C250FF220433C2542F4A0433C250AA
:102DB00000220433C2540233C4522C4A0233C4509A
:102DC0000433C2502A4A0433C250FF220433C45091
:102DD00012040433C25001220433C4500433C250DD
:102DE0000433C4501530FF3005009AB001005F3243
:102DF00002A821F03DF86022290002A83CF040FD25
:102E0000002801D11AB070BD01A8199431F028FC36
:102E100002AC1AAE210001A8013431F029FCA6420F
:102E2000F8D101A831F03CFC02A9602219901148A8
:102E300021F01EF810482EF061F96022280002A946
:102E400021F016F8DEE7C046FFFF0FFFFF0101018A
:102E5000801A0600FF01030B1C080A1A1B0F0D073E
:102E600009060100FFFF0500FF6401000000FFFFED
:102E7000FFFF000020700020345D0020F0B504004A
:102E80001534FF34060083B060221049200020F082
:102E9000EFFFB82300225B003500F75801A8F2507D
:102EA00031F0DEFB7535FF35210001A8013431F02A
:102EB000DFFBAC42F8D101A831F0F2FB874202D02F
:102EC0003000FFF741FF03B0F0BDC0462070002086
:102ED00084B070B5153082B0FF30050007910892BC
:102EE0000100602207A809933CF0CAFC002804D125
:102EF00002B070BC08BC04B01847002301A81E93A0
:102F000031F0AEFB07AC1FAE210001A8013431F057
:102F1000AFFBB442F8D101A831F0C2FB07A960228F
:102F20001E90064820F0A4FF05482EF0E7F8602226
:102F3000280007A920F09CFFDAE7C0462070002097
:102F4000345D002010B50400F131034AFF3120F058
:102F50008FFF200010BDC0460404000084B070B58F
:102F6000F13082B007910892FF301C4A07A9050092
:102F700009933CF085FC002804D102B070BC08BC69
:102F800004B018471C208023694600220918DB0082
:102F900001A8CA5031F064FBFFAE07AC2436210013
:102FA00001A8013431F064FBB442F8D101A831F03A
:102FB00077FB6A461C2180235218DB00D05007A9FA
:102FC000064A074820F054FF06482EF097F82800DC
:102FD000024A07A920F04CFFCFE7C04604040000D6
:102FE00020740020345D0020F0B5CE46474680B501
:102FF0000700494B7537FF370500190099B05C226F
:103000003800984620F034FFE6235B00EA582E0093
:103010009146002201A8EA5031F022FB3C00D13653
:10302000FF36210001A8013431F022FBB442F8D16F
:1030300001A831F035FB814504D119B0C0BCB946B7
:10304000B046F0BD0123BC225B4234495200AB5074
:103050000432A950C02103200024783AFF3A4900E5
:103060006A540431685004310238685004316C509D
:1030700001300431685004310630685004310130A9
:10308000685004310538685004316A50A0329A39CA
:10309000FF32FF39A950C9180432A9500432053152
:1030A000A950C9180432A9500432AB500432AB50B5
:1030B0000432AB500432AB500432AB500432AB504C
:1030C0006D3A3900FF3A01A820F0D2FE5C223900A7
:1030D00001A83CF0D5FB0028AFD06846179431F02A
:1030E000BFFA01AC18AD21006846013431F0C0FAD6
:1030F000A542F8D1684631F0D3FA01A95C221790B5
:10310000404620F0B5FE06482DF0F8FF5C2238005E
:1031100001A920F0ADFE90E7206A002000000132F6
:10312000345D002010B5040075315C22FF3120F0C1
:103130009FFE200010BDC0460123BC225B423749E0
:10314000520070B5835004328150C0210324783A74
:10315000FF3A49004254043144500431023C445087
:103160000024022504314450043145500431063511
:1031700045500431013545500431053D4550043179
:103180004250A0329A39FF32FF398150C9180432B7
:103190008150043205318150C91804328150043203
:1031A00083500432835004328350043283500432FB
:1031B0008350043283507530FF30050098B06D3A6B
:1031C0000100FF3A01A820F053FE5C22290001A86B
:1031D0003CF056FB002801D118B070BD684617942A
:1031E00031F03EFA01AC18AE21006846013431F0EE
:1031F0003FFAB442F8D1684631F052FA01A95C2294
:103200001790074820F034FE06482DF077FF5C2227
:10321000280001A920F02CFEDEE7C04600000132A4
:10322000206A0020345D002084B070B5753082B013
:10323000FF3005000791089201005C2207A809935E
:103240003CF01EFB002804D102B070BC08BC04B0E6
:103250001847002301A81D9331F002FA07AC1EAEF7
:10326000210001A8013431F003FAB442F8D101A8D9
:1032700031F016FA07A95C221D90064820F0F8FDEF
:1032800005482DF03BFF5C22280007A920F0F0FD47
:10329000DAE7C046206A0020345D002010B50548FA
:1032A0002DF0A6FFFA2200200349D2001EF0D0F82C
:1032B00010BDC046345D00200020042010B58422DB
:1032C000903020F0D5FD10BD10B50400842290315F
:1032D00020F0CEFD200010BD030010B50C330170AE
:1032E00084221900903020F0C3FD10BD0078704793
:1032F00041607047406870478160704780687047E0
:1033000010B5D13020220021FF3020F0ABFD10BDE0
:10331000D130FF307047C046F0B5C6462F4B8021F4
:103320009846050000B5090186B00D22414420F001
:103330009FFD6A782B7812021A43AB78EF781B0452
:1033400013433F061F4300232E0002A82B706B700F
:10335000AB70EB702C0031F083F90D36210002A820
:10336000013431F085F9B442F8D102A831F098F96E
:10337000874204D1280006B080BCB846F0BD0223C5
:103380004B2200242B71AB71013BEB7154332900AC
:103390006A712B723E3A2D3B02A86C72AB72EC72D2
:1033A0002C73152620F064FD01A8029431F058F921
:1033B00002AC6E44210001A8013431F059F9A64253
:1033C000F8D101A831F06CF90290802000010D22A3
:1033D000404402A920F04CFDCCE7C0462064002008
:1033E00030B58BB0010002A8FFF796FF154C0D22F7
:1033F000210002A83CF044FA002801D10BB030BDF6
:1034000021000D2206A820F033FD0023252501A868
:10341000069331F025F906AC6D44210001A8013472
:1034200031F026F9AC42F8D101A831F039F90D227A
:10343000069006A9044820F01BFD04482DF05EFE0E
:10344000DCE7C04610640020206C0020345D0020C2
:103450000123F0B5DE4657464E464546574A5B4285
:10346000E0B513600023FF26FF2153609360D36013
:103470001361534A534F1360534A544D1760544AD3
:10348000544C1660544A55481560554A0902146058
:10349000544A8FB01060544A1160544A54498C46C3
:1034A0001160544A544911608846544A5449116085
:1034B0008946FF21534A090411608A46524A5349FA
:1034C0001160534A534904941160534A5349544C70
:1034D0001160FF221202069262460792424608924B
:1034E0004A468B46099252460A925A4647490590E7
:1034F0000B9148493820009323606360A3600395D3
:103500000C910D920197029620F0B8FC050038222C
:10351000694638352060A56020F0AAFC4149424840
:103520006560FFF75FFA41494148FFF75BFA41499F
:103530004148FFF757FA41494148FFF753FA4149DB
:103540004148FFF74FFA41494148FFF74BFA4149DB
:103550004148FFF747FA41494148FFF743FA4149DB
:103560004148FFF73FFA41494148FFF73BFA4149DB
:103570004148FFF737FA41494148FFF733FA4149DB
:103580004148FFF72FFA41494148FFF72BFA4149DB
:103590004148FFF727FA41494148FFF723FA4149DB
:1035A0004148FFF71FFA41494148FFF71BFA0FB0A6
:1035B000F0BCBB46B246A946A046F0BD4C60002018
:1035C000B4290020FFFFFF00942A0020FF800000A4
:1035D0009C5F0020FFFF0000082B002080FF000000
:1035E000E82B0020242E0020242A0020F82C002084
:1035F00000FF80004862002000FFFF00682D0020CF
:103600000080FF00B8620020782B00208000FF00BF
:1036100028630020FF00FF00882C0020FF008000AE
:10362000AC5D0020AC050410C44B0020B0050410B4
:10363000084E0020B805041018500020A8130410EC
:10364000705A0020C005041004330020C405041083
:1036500014350020C805041024370020CC050410C0
:1036600034390020D0050410443B0020D405041058
:1036700074410020D8050410543D0020DC050410DE
:1036800084430020E0050410A4470020E405041052
:10369000B4490020E8050410643F0020EC05041044
:1036A00094450020F0050410E42E0020F4050410D9
:1036B000F4300020802080037047C0460148024B50
:1036C000C01A7047F4D5091000000010024B0348DF
:1036D000C01A034BC01870470000042000200420CB
:1036E000842F01000148024BC01A704700000420DB
:1036F000842F012000B58BB068463BF07DF8079819
:103700000BB000BD10B504000120064940422AF06C
:10371000A5FB054B0022002100201C621DF098FE35
:1037200030BFFDE7FFFFFF0F0080054010B51DF023
:10373000DDFE002811D00A4B186A0A4B984208D0C7
:10374000094B984205D0094BC3185A4253415B427A
:1037500018400022024B1A6210BD0020FCE7C04650
:1037600000800540CD66D543A58477E71F1BC808B8
:1037700010B531F019F810BD054B10B51A001868D6
:103780000832904203D09968013120F083FB10BDCC
:103790007084002010B531F053F80A4B0CCB1100A7
:1037A00019430AD00849486A834206D8896A914277
:1037B00004D3064B1868FFF7A5FF10BD8342F8D16C
:1037C000FBE7C0466026002000400540F42A0020A8
:1037D00070B500291AD0546893681034A34213D3EB
:1037E0004C68103B1E009360002C0BD01D1B2D114C
:1037F00065814B60002400211C725981D9600660EC
:10380000426070BD0B60F4E7012313740026F6E7F5
:10381000F0B50700083704000E0083B007600029E8
:1038200023D008003CF0AAFA050001900F280DD81B
:10383000012808D1337823720021019B226863603C
:10384000D15403B0F0BD0028F6D008E000222000DB
:1038500001A932F065FD0700019B2060A3602A00EA
:103860003100380020F004FBE6E7014832F03CFC70
:1038700078050410F0B54746CE4680B5254B804606
:103880000E00170083B0551A9D4240D80024002D29
:1038900003D0280020F0F2FA0400434665191C60AA
:1038A0009D60B7420BD128E0012D2DD11B782372EA
:1038B00000231836656043551834B7421DD02000E8
:1038C0003368756808309946206001950F2DEBD953
:1038D0000022200001A932F023FD019B2060A3609B
:1038E0002A00494620F0C4FA0023019D20681836BA
:1038F000656043551834B742E1D143465C6003B07C
:10390000C0BCB946B046F0BD002DD1D0E8E70248B2
:1039100032F002FCF8FFFF7FAC0A0410F8B5060095
:103920000D001700002918D00468002C17D02800BB
:10393000E1683CF0A5F900280BD00A22A35E002B19
:103940000DD01B01E4182800E1683CF099F900282B
:10395000F3D12000F8BD01233B740020FAE77B6817
:10396000BC6810339C42F6D37368103CBC60002BDB
:1039700009D0E21A12115A81002374602000638179
:103980002372E560E6E73460F6E7C046F8B5150057
:10399000202203000E00815C100008400A4248D03B
:1039A000002E45D09C69002C42D03000E1683CF0EC
:1039B00067F900280BD00A22A35E002B38D01B0128
:1039C000E4183000E1683CF05BF90028F3D17F2374
:1039D000227A13400A2B3CD00FD8062B2AD0082B72
:1039E00026D105CC2968CB17934230D82DD09A42E6
:1039F00037D89A4237D001201BE00C2B18D126680B
:103A0000676828681FF0C0FC04000D0002000B006E
:103A1000300039001FF08AFC002818D12B0022004A
:103A2000300039001FF098FC431E9841013000E03F
:103A30000020F8BD2B682078002B08DB834206D8D5
:103A40008342804140420130F3E78142CFD90420D4
:103A5000EFE7296805CCCB179342F8DC07D09A42F0
:103A6000C7DD0220E5E78842FBD80120E1E781427B
:103A7000F5D90420DDE7C046202370B54268060072
:103A8000D15C01200B4244D0B568002D41D094692F
:103A9000002C3ED02800E1683CF0F2F800280BD062
:103AA0000A22A35E002B33D01B01E4182800E16832
:103AB0003CF0E6F80028F3D1237A9B0628D5F56878
:103AC000002D25D02468002C22D02800E1683CF08D
:103AD000D7F800280BD00A22A35E002B18D01B01B8
:103AE000E4182800E1683CF0CBF80028F3D17F23EC
:103AF000227A1340202B0DD87E210120114208D0BC
:103B0000074A023BDBB2DA4013000340584000E0B2
:103B1000012070BD403B5A1E9341D8B2F9E7C04620
:103B20005F050040F8B517007F220D001100037AF1
:103B3000060019401A4203D000209B0606D4F8BDA7
:103B4000934320221343037201604160002D18D07B
:103B50003468002C17D02800E1683CF091F8002868
:103B60000BD00A22A35E002B0DD01B01E418280005
:103B7000E1683CF085F80028F3D12000DFE701235D
:103B80003B740020DBE77B68BC6810339C42F6D3B3
:103B90007368103CBC60002B09D0E21A12115A81E4
:103BA00000237460200063812372E560C7E73460FE
:103BB000F6E7C046F0B54546DE4657464E467F23FB
:103BC000E0B5027A05000C00A1B01340402B25D8C7
:103BD000CD4A9B00D3589F460668476832003B0099
:103BE000300039001FF09AFB002817D00022002374
:103BF000300039001FF092FB002800D090E1320025
:103C00003B00300039001FF01FFB02000B003000AA
:103C100039001FF083FB002800D181E12068BB4BF5
:103C200042689B1A032B01D800F004FDB849042216
:103C300032F074FD63680433636021B0F0BCBB46AE
:103C4000B246A946A046F0BD2068B04B426822CDDE
:103C50009B1A9D4201D900F0EDFC2A0032F05EFD76
:103C600063685B196360E8E708682221C0CD32F021
:103C7000F3FB636801336360002F23D0A54BF71972
:103C80009846A24B9A46A44B994622254346317842
:103C900004E09D780233002D00D1FFE25A788A4279
:103CA000F7D15C21206832F0D7FB6368290001332B
:103CB0006360206832F0D0FB6368013301366360D3
:103CC000B742E2D12221206832F0C6FB636801339B
:103CD0006360B2E7037808684268002B00D175E39F
:103CE0008A4B9B1A032B01D800F0A4FC8B499EE75A
:103CF00002AA76239446634498461D0007684668E6
:103D0000380031000A2200231FF098F8013D3032BC
:103D100033002A700E003A000700002BF0D1092A68
:103D2000EED8434620685E1B4268784B9B1A9E4241
:103D300001D900F07FFC3200290032F0EFFC63680B
:103D40009B19636079E706684768002F01DA00F085
:103D500014FC02AA5E239446634498461D0030007A
:103D600039000A2200231FF069F8013D30323B0080
:103D70002A700F0032000600002BF0D1092AEED87D
:103D8000CFE708687B2132F067FB6368013363602B
:103D90002B689A46002B00D104E35E4B99465346AC
:103DA00022212068DF6832F057FB636801336360CB
:103DB00000233E789846002E49D053460293222590
:103DC0004B46013704E09D780233002D00D150E2CC
:103DD0005A78B242F7D126683200336808329342EB
:103DE00000D1D9E2B26871688B46012159448A46F4
:103DF000914200D9C6E25A465C2199545346524634
:103E00004146736033689954636826680133636080
:103E1000736832009B4601235B449A46336808323C
:103E2000934200D1BCE2B268924500D9A0E25A4662
:103E30009D545346736033685246414699546368B3
:103E4000013363603E78002EB9D1029B9A4622214D
:103E5000206832F001FB256863682A000133636043
:103E60006F682B6808327E1C934200D1ACE2AA68CE
:103E7000964200D99EE23A22DA5500222B686E6003
:103E80009A5563682100013363605046FFF792FE44
:103E900053460A229B5E002B00D183E21B012C219A
:103EA00020689A4432F0D8FA63680133636076E799
:103EB00008685B2132F0D0FA63682D6801336360D3
:103EC000002D18D021002800FFF774FE0A22AB5EF7
:103ED000002B10D01B012C212068ED1832F0BCFA09
:103EE00063682100013363602800FFF763FE0A2244
:103EF000AB5E002BEED15D21206832F0ADFA636835
:103F00000133636099E6C0462C0B0410FFFFFF3FAE
:103F10000C0B0410E20A0410140B04101C0B041008
:103F200000220023300039001FF000FA002800D0E2
:103F30000FE3002230003900E34B1FF005FA0028A0
:103F400000D050E200220023300039001FF004FAB4
:103F5000002800D11FE330003900DC4ADC4B1FF0A1
:103F6000EBF9002800D116E330003900D94ADA4BCA
:103F70001FF0DCF9002800D159E330003900D74B9D
:103F8000D74A1FF088F9D74B06000F009B46300038
:103F90003900D54AD54B1FF0C9F900280BD03000A5
:103FA0003900D34BD34A1FF076F95B46803B1BB2F6
:103FB00006000F009B4630003900CF4ACF4B1FF060
:103FC000B5F900280BD030003900CD4BCD4A1FF099
:103FD00062F95B46403B1BB206000F009B46300077
:103FE0003900C94AC94B1FF0A1F900280BD0300095
:103FF0003900C74BC74A1FF04EF95B46203B1BB246
:1040000006000F009B4630003900C34AC34B1FF027
:104010008DF900280BD030003900C14BC14A1FF088
:104020003AF95B46103B1BB206000F009B4630007E
:104030003900BD4ABD4B1FF079F900280BD0300084
:104040003900BB4B00221FF026F95B46083B1BB230
:1040500006000F009B4630003900B64AB64B1FF0F1
:1040600065F900280BD030003900B44B00221FF056
:1040700012F95B46043B1BB206000F009B46300062
:104080003900AF4AAF4B1FF051F900280BD0300078
:104090003900AD4B00221FF0FEF85B46023B1BB21D
:1040A00006000F009B46002230003900A74B1FF08E
:1040B0003DF900280BD030003900A54B00221FF03D
:1040C000EAF85B46013B1BB206000F009B4630003E
:1040D00039001FF095F90500092800D893E208235C
:1040E00099469C4B0296039782464F46A1461C0078
:1040F0000A2120001EF064FEA84604000A212800C0
:104100001EF05EFE42463B00013F0500FFB2632AFF
:10411000EED8029E039FA0465BB240464C469946AD
:104120001FF02EF955460290039128001FF028F940
:1041300002000B00300039001FF07DF8029A039B4B
:104140001FF0A9F806000F001FF05AF982461FF071
:1041500017F902000B00300039001FF06CF8020064
:104160000B001FF071F81FF04BF95044060040455A
:1041700000D2FAE15B4600260135002B00D1FAE1BE
:10418000092D00D8F7E101331BB29B4601254F46AC
:104190000BE00A2130001EF013FE013F0A21060049
:1041A0007FB21EF00DFE002901D1002FF1DCB946CF
:1041B00002AA2E239446634498461F00A246280074
:1041C0000A211EF0FDFD013F3031280039700A211F
:1041D0001EF0F6FD2C000500092CF0D8544643468D
:1041E0002068DD1B42685C4B9B1A9D4200D921E28E
:1041F0002A00390032F092FA63685B1963604B461B
:10420000002B00D0CAE15B46002B00D115E56521EB
:10421000206832F021F96368013363605B46002B4C
:1042200000DAF9E19DB202AA462394466344984617
:104230001E0028000A211EF0C3FD013E3031280077
:1042400031700A211EF0BCFD2F0085B2092FF0D875
:10425000434620689D1B42683F4B9B1A9D4200D9F4
:10426000E8E12A00310032F059FA63685B196360B3
:10427000E3E425686B682A009B4601235B449A4669
:104280002B680832934200D188E0AA68924565D82D
:104290005A469E5453466B602B68CDE52068002932
:1042A00004D032F0D9F86368013307E55246436819
:1042B000D31A052B00D8BDE10622494632F02EFA6A
:1042C00063680633FAE4C046D0126341F168E388BC
:1042D000B5F8E43E148BD77DB207FE0ADD4F1575A5
:1042E0003CBF737F00FFFFFFC2DEB78145549125BD
:1042F0004877825A321D30F90DD13196FC53DA32AB
:10430000034F384DF5F93FE980688965D639803922
:10431000B5B89346176E05B51656E79EAF03D23C67
:1043200079C341430080E03748AFBC9AF2D77A3E68
:1043300084D79741FCA9F1D24D62503F0088C34019
:104340009A9999999999B93F000059400000F03F16
:104350000000244000CA9A3BFFFFFF3F01230022D8
:10436000009359460023280032F01CF82B688FE791
:1043700001230022009359460023300032F012F846
:10438000336854E50123002200935946002330008E
:1043900032F008F833682EE50F2224E50F2275E786
:1043A0000F2241E57D21206832F056F86368013321
:1043B000636042E4012300220093390000232800B7
:1043C00031F0F0FF2B6856E50F2251E59B4B9B1A0D
:1043D000042B00D82EE10522994932F09FF9636839
:1043E0000533636029E430003900964A964B1EF08D
:1043F000ABFF002800D103E130003900934B944A11
:104400001EF049FF80235B0006000F009B46300032
:104410003900904A904B1EF097FF00280BD03000D7
:1044200039008E4B8E4A1EF036FF5B4680331BB23E
:1044300006000F009B46300039008A4A8A4B1EF066
:1044400083FF00280BD030003900884B884A1EF0CB
:1044500022FF5B4640331BB206000F009B46300034
:104460003900844A844B1EF06FFF00280BD03000C7
:104470003900824B824A1EF00EFF5B4620331BB28E
:1044800006000F009B46300039007E4A7E4B1EF02E
:104490005BFF00280BD0300039007C4B7C4A1EF0BB
:1044A000FAFE5B4610331BB206000F009B4600224B
:1044B00030003900774B1EF047FF00280BD030004A
:1044C0003900754B754A1EF0E6FE5B4608331BB299
:1044D00006000F009B46002230003900704B1EF092
:1044E00033FF00280BD0300039006E4B6E4A1EF0AF
:1044F000D2FE5B4604331BB206000F009B4600222F
:1045000030003900694B1EF01FFF00280BD030002F
:104510003900674B674A1EF0BEFE5B4602331BB292
:1045200006000F009B46002230003900624B1EF04F
:104530000BFF002800D1CAE5300039005F4B604A0C
:104540001EF0A9FE5B4601331BB206000F009B461E
:10455000BDE52D21206831F07FFF802163680906C9
:10456000013363607B181F00E3E40A211EF028FC7E
:10457000002900D01CE64F4617E608682D2131F0CF
:104580006BFF63683200013363603B0000275642D3
:104590009F41FFF7DEFB00239B4698E54D46013D1A
:1045A000EBB2984608AB9A461F006DB230000A2164
:1045B0001EF006FC013F3031300039700A211EF038
:1045C000FFFB013D6DB206006B1CEFD1022243469A
:1045D0005242D21A4046534699181B1A2E20023BCB
:1045E00018702068154B456852425B1B9A4221D8CF
:1045F00032F094F8434662680233D318636002E6EF
:1046000000239B4603E700222E4B029203930923CB
:1046100099462D4B984688E52D21206831F01CFFE6
:104620006368013363605B465D42ADB2FBE5002326
:104630009B46ACE4254831F06FFDC046FFFFFF3FCD
:10464000240B04103CBF737FDD4F15752806C80A84
:10465000436FAC64321D30F94877825A08BA5B2543
:104660009D978CCFF5F93FE9034F384DFD0FA532EB
:104670003DA7F444176E05B5B5B8934623F64939FE
:1046800033A7A8D50080E03779C34143B2D29C3C20
:10469000BC89D89784D797418E79453E3A8C30E2D1
:1046A0000088C340E2361A3F2D431CEB00005940FE
:1046B000E17A843F7B14AE47000024409999B93FCA
:1046C0009A99999965CDCD4100CA9A3BF40A041094
:1046D000F0B5DE46454657464E46E0B58B46017876
:1046E0008DB088462B2900D121E100218A46414620
:1046F0002D2904D141780130884601218A4641465E
:104700003039CCB2A146092C6BD9424600232E2A5F
:104710005FD10024002500274278431C9046303AA0
:10472000D2B2092A17D8CB498C46CB498846654571
:1047300004D800D044E1444500D841E15A7801331F
:104740009046303A092A06D85A7801331100303998
:104750000929F9D99046202241469143452900D1A3
:10476000AEE03E004346002B00D04FE12000290080
:104770001EF052FE002E00DCE5E0B84D01242F00B3
:10478000454634420AD0EB001A000432BA58FB58AE
:1047900008920993089A099B1EF07DFD0135761059
:1047A000EDB2002EEDD15346002B04D00D00802138
:1047B00009066B1819005B467F221B7A93430C2273
:1047C00013435A4613725B460A00010019605A608F
:1047D000012318000DB0F0BCBB46B246A946A04666
:1047E000F0BD9F4E0024B4460E0000254946B14658
:1047F00012E0417801308846009C019D30214942F9
:1048000041448946C9B2A4197D4109291BD865458F
:1048100000D996E000D190E0A60FAB003343A20090
:10482000A4185D410091002126002F0001910099FC
:10483000B6197F41C94334003D000391791CD8D19A
:104840000399B142D5D243464946002B00D0D6E069
:104850005346002B00D1F1E080231B069D4200D877
:1048600090E0A0231B0499465346002782460093FC
:104870000391200029000A2200231EF0DFFA0137ED
:104880002E0004000D003FB24E45F2D2009B504670
:104890009A460399C9B2030009290BD819005A781E
:1048A00001331600303E092EF8D990463A1A0132EB
:1048B00089180FB242462E2A00D04CE718002BE789
:1048C0005A7890462D2A00D1D0E02B2A6FD041464D
:1048D00030395A1CCBB2092B00D942E79A237818F9
:1048E0005B00984200DDD1E000209A2684460B0050
:1048F000380000940195760007E09900C918490036
:104900007B181918B14200DD82E0517801320F00A6
:10491000303FFDB2092DF0D90700009C019D604693
:104920008846FE1A002800D01CE7DE191AE74178F5
:104930000130884600218A46E1E64A4EB44200D85A
:104940006AE749468DE77442002E00D12BE7012625
:10495000454D4746A946B046434623420CD0FB008E
:104960001A0000934B4604329D584A46009BD65885
:104970002A0033001EF08FFC01376410FFB2002CB8
:10498000EAD110E79D4202D1002C00D069E75B46D6
:104990007F221B7A594693430A2213435A461372C5
:1049A00000236242AB410A604B60012311E79A1C6D
:1049B0009B78190030399846CBB2092B8ED9D0E6B6
:1049C000A60FA90031430591A1000491049805990F
:1049D00024184D410692002224196D415E780792F9
:1049E0000699079A641855413200303A013FD2B215
:1049F00001333FB2092A00D899E6B046ABE68023DE
:104A000000275B039D4200D32BE743E70023E0E64A
:104A1000604600283AD0534600200021002B01D0E8
:104A2000802109065B467F221B7A93430C221343A5
:104A30005A461372106051600123CAE65B467F221A
:104A40001B7A9343082213435A461372146055602D
:104A50000123BEE69999010098999999A01704102D
:104A60009999991999999999581704109A1C9B78B2
:104A7000190030399846CBB2092B00D971E69A2338
:104A800078185B009842C6DC01202EE753460020D0
:104A9000002B01D00149C5E70149C3E70000F0FF41
:104AA0000000F07FF0B5DE46574645464E46E0B57D
:104AB000784C82468BB020008B4631F01DF9764D44
:104AC000002800D0BEE000232A686B6013706A687B
:104AD000724B9B1A5A2B00D8D8E05B2228007049F1
:104AE00031F01CFE5B465C68092C00D8B7E0632CF3
:104AF00000D8C1E0FA239B009C4200D2BEE0694B83
:104B00009C4200D8BCE0684B9C4200D8BAE0674B9E
:104B10009C4200D8B8E0664B07219C4222D9654BE5
:104B20009C421ED9644B09219C421BD9013104AB24
:104B30009946002206AB48460293049331F00EFCDE
:104B4000049B01934B465E68632C18D85B4B9846D8
:104B5000434664001B195B78019A537043461C5D01
:104B600037E0082104AB9946002206AB4846029381
:104B7000049331F0F3FB049B01934B465E68019B69
:104B8000023E9C464D4B6644984653463700AA4623
:104B90000393200064211EF013F920004E006421CD
:104BA0001EF00EF943469B195B7825007B70434647
:104BB0009B5D04003B703B4B023F9D42E9D8039B49
:104BC0002F0055469A46FA239B009F42C0D23034AC
:104BD000E4B2019B1C704B4668685A682F4B0499DD
:104BE0001B1A9A4252D8280031F098FD0498029B73
:104BF000984204D04B46996801311FF04BF96B681D
:104C0000264CE31A032B41D904222D49280031F008
:104C100085FD5B4606CB6B68E41AA24236D82800B5
:104C200031F07CFD52462B68012013606B685360A5
:104C300093600023D3600BB0F0BCBB46B246A946DC
:104C4000A046F0BD2B0008332B6000231D486B608D
:104C50002B7239F0D7FA200031F06AF833E704AB51
:104C60009946002206AB012148460293049331F095
:104C700075FB049B0193AAE7022158E7032171E722
:104C800004216FE705216DE705214FE70E4831F05C
:104C900043FAC0469829002070840020FFFFFF3FA0
:104CA000300C04100F2700009F8601003F420F00C8
:104CB0007F969800FFE0F505FFC99A3BE8170410BE
:104CC0008C0C041079370010F40A041030B50C0075
:104CD00083B000291CD0042220000F493AF0AAFE1C
:104CE000051E15D120003BF049F803000B480021B8
:104CF00042680093230031F03FFC8022084B0021E2
:104D0000084812011D801FF0ADF8002003B030BD2F
:104D100010204042FAE7C046940C0410F82D002001
:104D2000582F0120C8510020F0B5C6460C0000B530
:104D3000164E002919D08027154B358898463F011B
:104D40000BE043466168E8181FF092F86389246815
:104D5000ED18ADB23580002C07D06289AB18BB428C
:104D6000EFDD01235B42338000E00024200022F0CD
:104D700071FA084B30889C466044434258410123F5
:104D80004042984380BCB846F0BDC046582F012031
:104D9000C85100200100FFFF094B70B515001A88AB
:104DA000084B0C009A4209D0074B2A0019682000D2
:104DB0003AF074FE0023611901390B7070BDC046D2
:104DC000582F0120FFFF0000F82D0020F0B54546C8
:104DD000DE4657464E468046A020E0B54E4CC00108
:104DE000A5441EF0E9FF051E00D18FE0A023DB01E2
:104DF000994681444B46002708930993282304AC25
:104E0000E754464B069518009A460795277630F0EA
:104E100073FF434E002865D1310011A8FEF792F8C8
:104E200028232022E254183B9C4600260027AC444D
:104E30000C960D97E1456CD302A84A4681463B206B
:104E400000214844009001900820103A51813549D2
:104E500082468020D1604021C000166057601172E8
:104E6000130000260027814622610C920D923F39E3
:104E7000634515D35668103B002E31D0981B0011A6
:104E8000708101985360465C50465F81DF60187204
:104E90001E605F60494507D0012601316345E9D2B4
:104EA00001222276002E00D0236143464246083379
:104EB0001360002302A9536013720CA8029203939B
:104EC000FEF778FE002D02D028001EF0B3FF40460A
:104ED000154B9D44F0BCBB46B246A946A046F0BD6A
:104EE0001360CEE7114877602CF04EF93000FDF7E3
:104EF000BBFE3000FDF7C2FF3000FEF775F8300052
:104F0000FDF7A2FD504630F013FF85E700239946D8
:104F100070E70F3B2376C8E7B4FBFFFFA029002012
:104F2000D08400209C0C04104C040000385D00204C
:104F3000F0B5DE4657464E464546E0B507008020B0
:104F400095B000011EF038FF061E0A900B9000D1AC
:104F500086E080231B01C3180D9308AB98460023FD
:104F60009B4643465A4605AD664928001A76FCF72B
:104F7000BBFD2B7820229A46AB78414699462823E0
:104F8000CA54183B9C46B44463460193FE23DB009D
:104F9000F4185B4663815C4B163AE3606B780C61F6
:104FA00023605B461094119422726360002C00D140
:104FB00070E0564B25009B46E96858463AF060FE83
:104FC00000280BD00A22AB5E002B63D01B01ED182A
:104FD0005846E9683AF054FE0028F3D17F210022B8
:104FE0002B7A8B4375390B432B7253466A602B60C7
:104FF000002C63D0464DE16828003AF041FE0028BD
:105000000BD00A22A35E002B58D01B01E418280005
:10501000E1683AF035FE0028F3D17F210022237A9F
:105020008B4375390B4323724B46626023603B0010
:1050300008333B60002303A97B603B7210A80397F1
:105040000493FEF7B7FD002E02D030001EF0F2FEF2
:10505000380015B0F0BCBB46B246A946A046F0BD2C
:1050600000240025274905A80C940D95FCF73CFD6C
:1050700002AB1B7B20229A4602AB9B7B10941195BE
:10508000994608AB984628234146CA54273B0B76DD
:105090000F330193019BA3422FD825004346103DB7
:1050A0001D6101235B42638143465D6200236B8186
:1050B0002B72164B0022EB600A2395E743461C69CE
:1050C000019BA34215D84346103C1C615B6A002B30
:1050D0000CD0E21A12115A8143465C6200236381AC
:1050E00023720B4B0022E3600A239CE743461C62B9
:1050F000F2E701234246137699E7012342461376ED
:1051000076E7C046441F0020A80C0410B40C04101D
:10511000C00C0410F0B5DE4657464E464546834661
:105120008020E0B50001EFB01EF046FE0200031E35
:1051300003D0802109018C46604400241593282364
:1051400012ADEC54E74B179016901800019314928F
:105150002C7630F0D1FDE44B9946002801D000F0C8
:10516000EDFC1EAC49462000FDF7DCFF249B229F8E
:105170009A46259B239E0F93269B14AA0E93279B4A
:105180001AA80D93289B0C93299B0B932A9B0A9397
:105190002B9B09932C9B08932D9B07932E9B069387
:1051A0002F9B0593309B0493319B0393329B029377
:1051B000339BCE499846FEF7B5FC002809D07F21E5
:1051C000037A1F9A8B430A2102600B43D2170372A2
:1051D0004260C74914AA1AA8FEF7A4FC002809D007
:1051E0007F21037A227A8B430A210B430372002327
:1051F00002604360BF4914AA1AA8FEF793FC002876
:1052000009D07F21037A627A8B430A210B43037210
:10521000002302604360B84914AA1AA8FEF782FC72
:10522000002809D07F21037AA27A8B4308210B43FF
:105230000372002302604360B04914AA1AA8FEF763
:1052400071FC002809D07F21037AE27A8B43082180
:105250000B430372002302604360A94914AA1AA8F1
:10526000FEF760FC002809D07F21037A227B8B4364
:1052700008210B430372002302604360A14914AA72
:105280001AA8FEF74FFC041E00D1BDE17F22037A6D
:105290009D499343202213430372002314AA036001
:1052A00043607B1C01D100F0B0FDFEF737FB002806
:1052B00008D07F22037A076093430A22FF17134323
:1052C000037247602000914914AA731C01D100F0B9
:1052D00090FDFEF723FB002808D07F22037A0660AA
:1052E00093430A22F6171343037246605346200085
:1052F000874914AA013301D100F06FFDFEF70EFBC0
:10530000002809D07F22037A93430A2213430372B1
:1053100053460360DB1743600F9B20007D4914AAAE
:10532000013301D100F075FCFEF7F8FA002809D02E
:105330007F22037A93430A22134303720F9B036075
:10534000DB1743600E9B2000734914AA013301D17F
:1053500000F071FCFEF7E2FA002809D07F22037A00
:1053600093430A22134303720E9B0360DB174360CF
:105370000D9B2000694914AA013301D100F06DFC96
:10538000FEF7CCFA002809D07F22037A93430A2241
:10539000134303720D9B0360DB1743600C9B2000DB
:1053A0005F4914AA013301D100F069FCFEF7B6FA97
:1053B000002809D07F22037A93430A221343037201
:1053C0000C9B0360DB1743600B9B2000554914AA1C
:1053D000013301D100F065FCFEF7A0FA002809D0E6
:1053E0007F22037A93430A22134303720B9B0360C9
:1053F000DB1743600A9B20004B4914AA013301D1FB
:1054000000F061FCFEF78AFA002809D07F22037AB7
:1054100093430A22134303720A9B0360DB17436022
:10542000099B2000414914AA013301D100F05DFC21
:10543000FEF774FA002809D07F22037A93430A22E8
:1054400013430372099B0360DB174360089B200032
:10545000374914AA013301D100F059FCFEF75EFA76
:10546000002809D07F22037A93430A221343037250
:10547000089B0360DB174360079B20002D4914AA9B
:10548000013301D100F055FCFEF748FA002809D09D
:105490007F22037A93430A2213430372079B03601C
:1054A000DB174360069B2000234914AA013301D176
:1054B00000F051FCFEF732FA002809D07F22037A6F
:1054C00093430A2213430372069B0360DB17436076
:1054D000059B2000194914AA013301D100F04DFCAD
:1054E0002EE0C046A0290020D0840020CC0C04105F
:1054F000D40C0410E00C0410EC0C0410FC0C041090
:10550000100D0410200D0410AC050410B00504109B
:10551000B8050410A8130410C0050410C405041035
:10552000C8050410CC050410D0050410D4050410DF
:10553000D8050410DC050410E0050410E40504108F
:10554000FEF7ECF9002809D07F22037A93430A2260
:1055500013430372059B0360DB174360049B200029
:10556000E54914AA013301D100F019FCFEF7D6F980
:10557000002809D07F22037A93430A22134303723F
:10558000049B0360DB174360039B2000DB4914AAE4
:10559000013301D100F015FCFEF7C0F9002809D055
:1055A0007F22037A93430A2213430372039B03600F
:1055B000DB174360029B2000D14914AA013300D1BC
:1055C0001DE3FEF7ABF9002809D07F22037A93434D
:1055D0000A2213430372029B0360DB1743604346B6
:1055E0002000C84914AA013300D1FEE2FEF796F963
:1055F000002809D07F22037A93430A2213430372BF
:1056000043460360DB174360019830F075FB0028C8
:1056100000D0D4E24846FDF76DFEBB49070014AA4E
:105620001AA8FEF77FFA041E01D100F081FC7F2248
:10563000037A804693434022134303729823002247
:10564000EE68F9582B691036026042609E4201D91B
:1056500000F0B6FC103B2B61036043600020187221
:1056600008205A81DA600978187206C34DAA9C2373
:105670009246FB58210014AA50460293FEF7A8F860
:10568000029B4D9A1978002A00D1D4E37F20137A27
:105690001160834308200343137200235360A03337
:1056A000F9582B699E4200D9CBE36268103B2B610D
:1056B000002A00D140E2981A0011508100200022F7
:1056C0006360187208205A81DA600978187206C37C
:1056D000A423FB58210014AA50460293FEF778F841
:1056E000029B4D9A1978002A00D19AE37F20137A01
:1056F0001160834308200343137200235360A833CF
:10570000F858002C01D100F005FCEE682B6910362A
:105710000293B34200D28BE31A006168103A2A6107
:10572000002900D1D2E3531A1B114B810023002121
:105730006260137208235181D16000781372516046
:10574000AC3110607858B24200D271E3029A6168BD
:10575000203A2A61002900D1C0E3531A1B114B8162
:10576000002300216260137208235181D160007808
:1057700013725160B03110607858B24200D257E3D2
:10578000029A6168303A2A61002900D1A4E3531AD1
:105790001B114B8100230021626013720823518189
:1057A000D160007813725160B43110607858B24201
:1057B00000D23DE3029A6168403A2A61002900D193
:1057C00088E3531A1B114B8100230021626013727E
:1057D00008235181D160007813725160B831106094
:1057E0007858B24200D223E3029A6168503A2A61A3
:1057F000002900D16CE3531A1B114B8100230021B7
:105800006260137208235181D16000781372516075
:10581000BC3179581060B24200D209E3029B626841
:10582000603B2B61002A00D142E3981A001150819D
:10583000002000226360187208205A81DA6009781B
:10584000187206C3C023FB58210014AA50460293C5
:10585000FDF7BEFF029B4D9A1978002A00D11BE389
:105860007F20137A116083430820034313720023BF
:105870005360C433F9584346002B00D192E3EE68DD
:105880002B691036B34200D20CE342465268103BFB
:105890002B61002A00D108E3981A0011508142467A
:1058A000002053600022187208205A81DA600978BB
:1058B000187206C3C823414614AA5046FC58FDF787
:1058C00087FF4D9A2178002A00D1C6E27F20137A03
:1058D0001160834308200343137200235360CC33C9
:1058E000F8584346002B00D145E3EE682B6910368B
:1058F000B34200D2B7E209E0E8050410EC05041059
:10590000F0050410F4050410300D041042465268EE
:10591000103B2B61002A00D1CCE2991A0911518168
:10592000424600245360002208211A725C81DC6028
:105930000278197214C3D023FB58414614AA50466A
:105940000293FDF745FF029B4D9A1978002A00D17A
:105950007AE27F20137A8343082003431372D4230F
:1059600012C2F858EE682A691036B24200D271E2CB
:10597000414613004968103B2B61002900D19FE28A
:105980005C1A24114C81414600244B6000211C729A
:1059900008245981D96000781C725960D831186088
:1059A0007858B34200D255E2414613004968203B83
:1059B0002B61002900D180E25C1A24114C81414600
:1059C00000244B6000211C7208245981D9600078A2
:1059D0001C725960DC3179581860B34200D239E248
:1059E00043465B68303A2A61002B00D16BE2D01A43
:1059F00000115881434600205A600023107208208D
:105A00005381D360097810720AC2019830F074F99A
:105A1000002800D0A7E049465046FDF789F85346D4
:105A20001E7F5F7F35ACFF2E10D04146200014AAA8
:105A3000FDF7CEFE359B002B08D07F211A7A1E6021
:105A40008A4308210A431A7200225A60FF2F10D09D
:105A50004146200014AAFDF7BBFE359B002B08D061
:105A60007F211A7A1F608A4308210A431A72002292
:105A70005A60019830F040F9002800D089E02000F9
:105A80004946FDF757F92C23E75C0133E65C073301
:105A9000E45CFF2F10D0414614AA10A8FDF798FE31
:105AA000109B002B08D07F211A7A1F608A4308219F
:105AB0000A431A7200225A60FF2E10D0414614AADF
:105AC00010A8FDF785FE109B002B08D07F211A7AC5
:105AD0001E608A4308210A431A7200225A60FF2C72
