:020000041000EA
:1000000000B5324B212058609868022188439860DF
:10001000D860186158612E4B002199600221596106
:100020000121F02299502B49196001219960352056
:1000300000F044F80222904214D00621196600F024
:1000400034F8196E01211966002018661A6600F04E
:100050002CF8196E196E196E052000F02FF8012189
:100060000842F9D1002199601B49196000215960AB
:100070001A491B48016001219960EB211966A021F2
:10008000196600F012F800219960164914480160C1
:100090000121996001BC002800D000471248134993
:1000A000086003C880F30888084703B5996A0420EC
:1000B0000142FBD001200142F8D103BD02B5186610
:1000C0001866FFF7F2FF186E186E02BD00000240BE
:1000D000000000180000070000035F00212200005C
:1000E000F4000018222000A00001001008ED00E03C
:1000F00000000000000000000000000074B24E7A12
:1001000000200420F7010010C3010010C5010010F9
:10011000C1010010C1010010C1010010C101001097
:10012000C1010010C1010010C1010010C701001081
:10013000C1010010C1010010C9010010CB01001065
:10014000CD010010CD010010CD010010CD01001037
:10015000CD010010CD010010CD010010CD01001027
:10016000CD010010CD010010CD010010CD01001017
:10017000CD010010CD010010CD010010CD01001007
:10018000CD010010CD010010CD010010CD010010F7
:10019000CD010010CD010010CD010010CD010010E7
:1001A000CD010010CD010010CD010010CD010010D7
:1001B000CD010010CD010010CD010010CD010010C7
:1001C00000BE00BE00BE00BE00BE00BEEFF3058054
:1001D000103800BEF2EB8871C8AD0910ECAD091003
:1001E0003402001090A31AE700201F49086006C8D7
:1001F00081F3088810471D48006800282FD10DA4FE
:100200000ECC002902D000F012F8F9E71849194A7B
:10021000002000E001C19142FCD1174988471749ED
:1002200088471749884700BEFDE701C901C29A42C5
:10023000FBD37047ECAD0910C00000205026002011
:1002400088D30910000004200000042088D309107E
:10025000001004200010042000000000704709482E
:1002600022F044FC0047000008ED00E0000000D050
:1002700060260020842F012005130210290300109E
:10028000391402105756000006005250ABB36053A9
:10029000D820041006005250861C0302E8200410E7
:1002A000060052505422A29DF42004100500525022
:1002B000DE65F46888D30910F8B5C04606480749DA
:1002C000091A8B10C90FC91810B5491003D0044B77
:1002D000002B00D0984710BD50260020502600204B
:1002E00000000000054B10B5002B03D00449054861
:1002F00000E000BFFFF7E2FF10BDC04600000000B5
:10030000441701205803041010B52DF077FC182075
:1003100023F0A4FC040000F07BFE200000F082FE2D
:10032000200000F0F7FE10BD8C2010B5400023F037
:1003300095FC040000F066F8200000F0BBFB0448C8
:100340002DF030FC200000F073F9002010BDC046F5
:1003500009030010F0B50700083704000E0083B051
:100360000760002923D008003FF0F8FB050001904A
:100370000F280DD8012808D1337823720021019B62
:1003800022686360D15403B0F0BD0028F6D008E0C5
:100390000022200001A935F0B3FE0700019B206078
:1003A000A3602A003100380023F052FCE6E7014840
:1003B00035F08AFD5803041070B50F4D280035F054
:1003C0008BFB0E4C002801D1200070BD00230C488F
:1003D000636030F0C9FD200002F046FC200002F00E
:1003E0004BFD200002F0FEFD200002F02DFB280056
:1003F00035F08EFBE8E7C046A0290020D08400201D
:10040000285D0020F0B50022C646002300B502603A
:100410004360804A002542618261002105236C22ED
:100420007D4F0373058181728173056185838766C2
:100430008354C02269339200C252C0220233120197
:10044000C25201220433C252030074339A708023D3
:100450000200C154714B8032D38013815381558087
:10046000958093818E22855202328154020090320F
:10047000D380138153815580958093819E23C552EB
:100480004E33C5500300EC339D605D60F8230400DB
:10049000C154634B83221868596823009200F833D3
:1004A0009860D9609861D9611A825E4B18009846AD
:1004B00035F012FB5C4E002800D082E0E42023F0EF
:1004C000CDFB0100534A0025CA600A6100200523C4
:1004D000642288700B7188710D808D608D820F662B
:1004E0008B54C02261339200CA52C02202331201DF
:1004F000CA5201220433CA520B006C339A7078231B
:100500000A00C854454B7832D380138153819381BC
:100510005580958086228D52023288540A00883296
:10052000D380138153819381962330005580958029
:10053000CD5202F0DFFE404635F0CEFA002854D10D
:10054000E42023F08BFB00250023052201008360BB
:1005500085708571027103802E480F66C86008613E
:1005600064208B820A54C020613280008852C020EF
:100570000232000188520120043288520A006C3293
:100580009070782208008D54244A7830438083800C
:10059000C28002814281828186200B5202300D543A
:1005A00008008830C2800281428182819622438085
:1005B000838030008B5202F0A1FE200080BCB84640
:1005C000F0BD1A48756030F0CFFC300002F04CFBF3
:1005D000300002F051FC300002F004FD300002F067
:1005E00033FA404635F094FA68E71048756030F009
:1005F000BBFC300002F038FB300002F03DFC300064
:1006000002F0F0FC300002F01FFA404635F080FAAC
:1006100096E7C046FF7FFF7F0C1F0020FF7F000092
:10062000581E0410A0290020D0840020285D00203E
:10063000F0B5DE46454657464E46E0B587B08046A3
:10064000FFF7BAFE02F058FE0500FFF7B5FE02F014
:1006500057FE0400FFF7B0FE02F04AFE002800D06B
:1006600023E1F82343449946C64B88349B46EC2348
:1006700043449A4688239C46AC4463460494C24C47
:10068000039326004446C14BC14F05932368009352
:100690006368984600F0E8FE884572D8884500D126
:1006A00096E0280000F0ECFF280001F0B1F82800E7
:1006B00001F01EFCF823E35C002B67D18A33EB5A70
:1006C000002B00D0A2E04B469A68DB681100009234
:1006D0000193194300D1BAE0AE49019B486A9C4698
:1006E000834208D88B6A009A934201D2844502D093
:1006F000F8230122E2540021504601F093FD280026
:1007000000F0B6FE0021504601F0A4FD102203992E
:10071000049823F09DFA280001F06CF98046280027
:1007200001F07EF80100404630F024F9380035F041
:10073000D3F9002855D1300002F0E4FD380035F03F
:10074000CBF900282FD1300002F0E4FD30F0FEF8A4
:100750000121504601F07EFD01200021404224F09D
:1007600043F800F081FE0023642280185941206084
:100770006160236800936368984600F075FE8845C1
:100780008CD9322000211FF0C7FF7FE78A23EA5A65
:100790004B461B8A9A4240D05B4649461A685B68C2
:1007A0008A61CB61A7E700230598736030F0DCFB1A
:1007B000300002F059FA300002F05EFB300002F027
:1007C00011FC300002F040F9380035F0A1F9BAE729
:1007D000009B834200D864E7322000211FF09CFF79
:1007E00054E700230598736030F0BEFB300002F040
:1007F0003BFA300002F040FB300002F0F3FB300027
:1008000002F022F9380035F083F994E75B46494657
:100810001A685B688A60CB606DE74B469A69DB6952
:10082000110000920193194328D05A49019B486A4C
:100830009C46834200D95EE78B6A009A934202D2BB
:10084000844500D157E7544802F05EFF53E720F09B
:1008500039F83222002312184B4180210092019373
:1008600009068B4204D301224C4B52420092019361
:100870000099019A4B469960DA602DE720F022F842
:100880000023474A12184B41802100920193090628
:100890008B4204D30122414B5242009201930099B2
:1008A000019A4B469961DA61BFE7F82343449946C0
:1008B000344B4C469B463B4E3B4F300035F00CF9D9
:1008C00000282FD1300035F007F9002832D1380048
:1008D00001F0C2FD280000F0D3FEF8234246D35CAD
:1008E000002B2BD18A33EB5A002B32D1A268E3685C
:1008F00011000092019319435AD02649019B486A7E
:100900009C468342D9D88B6A009A934201D284458F
:10091000D3D0F823012241463000CA5435F0DCF828
:100920000028CFD0300035F0F3F8300035F0D4F89F
:100930000028CCD0300035F0EBF8C8E78A23EA5A1B
:10094000238A9A420BD05B461A685B68A261E36116
:10095000B3E75B461A685B68A260E360ADE7A06935
:10096000E16903000B4339D00A4B5A6A9142A4D87B
:100970009B6A834201D291429FD00C4802F0C4FE90
:100980009BE7C046581E0410D0840020285D00203C
:10099000A029002000400540A58477E7FFFFFF7FE6
:1009A00000093D009C290020C8840020CD66D54365
:1009B0001FF088FF3222002312184B418021009241
:1009C000019309068B4204D301220C4B5242009240
:1009D0000193009A019BA260E3608EE71FF072FF13
:1009E0000023074A8018594180231B06994202D3ED
:1009F000012002494042A061E161B5E7FFFFFF7FAE
:100A000000093D0070B502F093FE254B04009842AA
:100A10003FD0244B984226D0002801D0002070BD42
:100A2000214E300035F058F8204D00281DD1280007
:100A300002F062FC040000F023FE6623E25A243335
:100A40001100E35A1940914209D09A0521D45A075E
:100A500021D4DA0721D49B07E0D50520DFE78822DF
:100A6000A25CD207F1D50220D9E711486C6030F0C2
:100A70007BFA280002F0F8F8280002F0FDF92800BF
:100A800002F0B0FA280001F0DFFF300035F040F846
:100A9000CDE70120C3E70320C1E70420BFE7C0463C
:100AA000A58477E7E1E437F7A0290020D08400206F
:100AB000285D0020F8B5934F0400380035F00CF89D
:100AC000914D002800D0E5E0280002F015FC06005A
:100AD00001F056F8FFF796FF012800D1C3E000DCD3
:100AE000B8E0022800D103E1C21E022A12D86C220B
:100AF000B25C032800D102E1051F6B425D41EDB2FB
:100B0000954204D06C233000F55401F0B1F928006F
:100B10002FF00CFF2DF068FA082023F09FF8002634
:100B20007A4BEC340100868003600022200001F043
:100B300027FC082023F092F8754B01000360466003
:100B40000022200001F01CFC242023F087F805007F
:100B50002422002123F076F86E4B29002B6000221E
:100B6000200001F00DFC282023F078F80500282251
:100B7000002123F067F8684B29002B600022200039
:100B800001F0FEFB0C2023F069F800230372634B95
:100B90000100036046600022200001F0F1FB2420E8
:100BA00023F05CF805002422002123F04BF85C4B75
:100BB00029002B600022200001F0E2FB102023F02E
:100BC0004DF805001022002123F03CF8554B290078
:100BD0002B600022200001F0D3FB202023F03EF800
:100BE00005002022002123F02DF84F4B29002B6017
:100BF0000022200001F0C4FB542023F02FF8050050
:100C00005422002123F01EF8484B29002B600022BB
:100C1000200001F0B5FB0C2023F020F805000C2289
:100C2000002123F00FF8424B29002B600122200005
:100C300001F0A6FB102023F011F80500102200217E
:100C400023F000F83B4B29002B600022200001F02C
:100C500097FBF8BD002800D05CE76C23F55C28000A
:100C60002FF064FE56E7380034F036FF002826D116
:100C70002800012102F032FBFF202FF057FE2E4DFD
:100C8000280034F029FF00282ED100212B4801F044
:100C9000D1FB3FE700232A486B6030F065F928005C
:100CA00001F0E2FF280002F0E7F8280002F09AF9CC
:100CB000280001F0C9FE380034F02AFF04E70023C1
:100CC0001F486B6030F050F9280001F0CDFF28007C
:100CD00002F0D2F8280002F085F9280001F0B4FEF5
:100CE000380034F015FFC3E7280034F011FFCCE7DB
:100CF000144821F0FBFE002103000800984702255C
:100D0000FEE6C046A0290020D084002094170410DD
:100D1000E81704106C180410201E04109418041016
:100D2000BC180410E0180410B01D0410D41D0410E9
:100D3000601D0410FC1D04109C290020C8840020A4
:100D4000285D0020554200000123F0B5DE465746DD
:100D50004E464546574A5B42E0B513600023FF26E6
:100D6000FF2153609360D3601361534A534F136064
:100D7000534A544D1760544A544C1660544A5548CF
:100D80001560554A09021460544A8FB01060544AE5
:100D90001160544A54498C461160544A54491160B8
:100DA0008846544A544911608946FF21534A090430
:100DB00011608A46524A53491160534A5349049478
:100DC0001160534A5349544C1160FF22120206929B
:100DD00062460792424608924A468B46099252461C
:100DE0000A925A46474905900B914849382000938A
:100DF00023606360A36003950C910D9201970296A6
:100E000022F02CFF05003822694638352060A560A5
:100E100022F01EFF414942486560FFF79BFA4149B5
:100E20004148FFF797FA41494148FFF793FA414992
:100E30004148FFF78FFA41494148FFF78BFA414992
:100E40004148FFF787FA41494148FFF783FA414992
:100E50004148FFF77FFA41494148FFF77BFA414992
:100E60004148FFF777FA41494148FFF773FA414992
:100E70004148FFF76FFA41494148FFF76BFA414992
:100E80004148FFF767FA41494148FFF763FA414992
:100E90004148FFF75FFA41494148FFF75BFA414992
:100EA0004148FFF757FA0FB0F0BCBB46B246A9461F
:100EB000A046F0BDFC5F0020A4290020FFFFFF003A
:100EC000842A0020FF8000008C5F0020FFFF0000CC
:100ED000F82A002080FF0000D82B0020142E0020CC
:100EE000142A0020E82C002000FF80003862002037
:100EF00000FFFF00582D00200080FF00A8620020A6
:100F0000682B00208000FF0018630020FF00FF0016
:100F1000782C0020FF0080007C5D00208C030410F2
:100F2000644B002090030410A84D00209803041087
:100F3000B84F002078110410105A0020A0030410AC
:100F4000A4320020A4030410B4340020A803041029
:100F5000C4360020AC030410D4380020B0030410C1
:100F6000E43A0020B403041014410020B803041034
:100F7000F43C0020BC03041024430020C0030410F0
:100F800044470020C403041054490020C80304103F
:100F9000043F0020CC03041034450020D00304108B
:100FA000842E0020D403041094300020F0B50700F4
:100FB000083704000E0083B00760002923D0080022
:100FC0003EF0CCFD050001900F280DD8012808D176
:100FD000337823720021019B22686360D15403B0EF
:100FE000F0BD0028F6D008E00022200001A935F06D
:100FF00087F80700019B2060A3602A0031003800B9
:1010000022F026FEE6E7014834F05EFF58030410A4
:10101000002200230260436000238360C3600361F9
:101020007047C046F8B5354E08300500300022F054
:1010300015FE04003200002122F004FE304B002691
:101040002360012323738A23E427DB00E218083B93
:10105000E2500833E65421002800BF00022201F0CC
:101060008FF9380022F0FAFD04003A00002122F046
:10107000E9FD244B20002360CA230A225B00C5300F
:10108000E250FF302DF0ACFDDF239B00E654E31867
:101090005E601E612100280002229B60DB6001F07F
:1010A0006FF9102022F0DAFD174B01000360FF23D7
:1010B0008660037106730222280001F061F90C209A
:1010C00022F0CCFD04000C22002122F0BBFD0F4BCE
:1010D000210023602800022201F052F9142022F09E
:1010E000BDFD04001422002122F0ACFD084B2800B5
:1010F00002222100236001F043F9F8BD6C040000D6
:10110000B81A0410381D0410841D0410BC170410F4
:1011100014180410F8B50823CE4647469946060031
:101120006424002580B5814433687768984600F0D0
:101130009BF98F420AD9322000211FF0EDFA336863
:101140007768984600F090F98F42F4D88F4201D129
:101150008045F0D80221484601F07CF800F084F97F
:101160000019694130607160DEE7C0460123F0B5C7
:10117000DE4657464E464546574A5B42E0B5136049
:101180000023FF26FF2153609360D3601361534A0D
:10119000534F1360534A544D1760544A544C1660D1
:1011A000544A55481560554A09021460544A8FB094
:1011B0001060544A1160544A54498C461160544A94
:1011C000544911608846544A544911608946FF21A8
:1011D000534A090411608A46524A53491160534ADE
:1011E000534904941160534A5349544C1160FF22EF
:1011F0001202069262460792424608924A468B467F
:10120000099252460A925A46474905900B9148491D
:101210003820009323606360A36003950C910D92C6
:101220000197029622F01AFD0500382269463835EA
:101230002060A56022F00CFD414942486560FFF73F
:10124000B5FE41494148FFF7B1FE41494148FFF72A
:10125000ADFE41494148FFF7A9FE41494148FFF72A
:10126000A5FE41494148FFF7A1FE41494148FFF72A
:101270009DFE41494148FFF799FE41494148FFF72A
:1012800095FE41494148FFF791FE41494148FFF72A
:101290008DFE41494148FFF789FE41494148FFF72A
:1012A00085FE41494148FFF781FE41494148FFF72A
:1012B0007DFE41494148FFF779FE41494148FFF72A
:1012C00075FE41494148FFF771FE0FB0F0BCBB46C7
:1012D000B246A946A046F0BD10600020A829002013
:1012E000FFFFFF00882A0020FF800000905F0020A1
:1012F000FFFF0000FC2A002080FF0000DC2B002004
:10130000182E0020182A0020EC2C002000FF80005E
:101310003C62002000FFFF005C2D00200080FF00E9
:10132000AC6200206C2B00208000FF001C630020BA
:10133000FF00FF007C2C0020FF008000885D002063
:101340008C0304107C4B002090030410C04D00203F
:1013500098030410D04F002078110410285A002060
:10136000A0030410BC320020A4030410CC340020DD
:10137000A8030410DC360020AC030410EC38002075
:10138000B0030410FC3A0020B40304102C410020E8
:10139000B80304100C3D0020BC0304103C430020A3
:1013A000C00304105C470020C40304106C490020F3
:1013B000C80304101C3F0020CC0304104C4500203F
:1013C000D00304109C2E0020D4030410AC30002065
:1013D0007047C04610B502482FF080FD10BDC046D2
:1013E0002C5D0020F0B50700083704000E0083B024
:1013F0000760002923D008003EF0B0FB05000190F3
:101400000F280DD8012808D1337823720021019BC1
:1014100022686360D15403B0F0BD0028F6D008E024
:101420000022200001A934F06BFE0700019B206020
:10143000A3602A003100380022F00AFCE6E70148E8
:1014400034F042FD5803041010B51FF03BFA002998
:1014500005D0FA220023920021F0E0FB10BDFA2112
:10146000890021F09DFBF9E710B51FF02BFA10BDA4
:1014700070B50400210010228831783022F0E8FB9A
:101480006E23E65C1A33E15C853B0B40022B00D1F6
:101490009BE0032B2DD0012B00D188E004200825F0
:1014A0000023744A13700C220A40082A00D187E0F6
:1014B0000C2A00D18DE0042A2DD06F4A0021117032
:1014C0008822A3541B3AA25C012A2ED0022A4DD0B6
:1014D0006378002B04D18E22684BA3520232A352B0
:1014E000A378002B04D19222644BA3520232A35260
:1014F00070BD002E00D09DE001225E4B1A700C23BF
:101500000B40082B00D1ABE00C2B00D1A6E0042B44
:1015100000D0A3E005200322574B1A700300882255
:10152000A3541B3AA25C012AD0D1A278002A5DD034
:101530000C221A40042A62D0083A51424A414F49CB
:10154000D2038C468E216244625203221340012B47
:101550005CD0023B5A425341484ADB039446634401
:101560009022A35288230022E254C1E76278002A25
:101570004ED00C221A40042A53D0083A51424A4114
:101580003E49D2038C4692216244625203221340A8
:10159000012B4DD0023B5A425341384ADB0394465B
:1015A00063449422A35288230022E254A0E7314AE4
:1015B000052013700C2209250A40082A00D077E77D
:1015C00004222D4B1A702B007AE706200A25294A9F
:1015D00068E7022E00D070E7274A1178002900D171
:1015E0006CE703299AD12800030098E79221234A47
:1015F0006252023162520C221A40042A9CD100220B
:101600008E21625203221340012BA2D10023A7E7AF
:101610008E211A4A6252023162520C221A40042A66
:10162000ABD100229221625203221340012BB1D18F
:101630000023B6E7022E00D030E70E4A1378002BC5
:1016400010D0012B11D00520092501230C220A40BE
:10165000082AB5D00C2A00D02DE7BDE701232CE7DE
:101660000925ADE7042008251CE7022306200A25EA
:10167000ECE7C0466B2F01206A2F0120FF7F00009E
:101680009822D02330B584581B0659686268CB4332
:101690008A4300D19BE07022825C002A00D1A6E040
:1016A0009C22815808228A564968194202D0218911
:1016B0000A4352B2A02141584C681C4202D0098909
:1016C0000A4352B2A42141584C681C4202D00989F5
:1016D0000A4352B288214254A822815800224C6801
:1016E0001C4201D008228A5EAC2141584C681C4241
:1016F00002D009890A4312B2B02141584C681C42F9
:1017000002D009890A4312B2B42141584C681C42E4
:1017100002D009890A4312B2B82141584C681C42D0
:1017200002D009890A4312B2BC2141584C681C42BC
:1017300002D009890A4312B2C02141584C681C42A8
:1017400002D009890A4312B2C42141584C681C4294
:1017500002D009890A4312B2C82141584C681C4280
:1017600002D009890A4312B2CC2141584C681C426C
:1017700002D009890A4312B2D02141584C681C4258
:1017800002D009890A4312B2D42141584C681C4244
:1017900002D009890A4312B2D82141584C681C4230
:1017A00002D009890A4312B2DC2141584C681C421C
:1017B00002D00B891A4312B28A23C2528E22124BD4
:1017C00012498352023281500432835030BD9C2230
:1017D000815800224D681D4200D16BE77025455DA0
:1017E000002D00D063E709890A4352B262E79C21C9
:1017F00008224158A2564C681C4200D15AE7098978
:101800000A4352B256E7C046FF7F0000FF7FFF7FCA
:10181000010010B5883104301DF09AF910BDC046A2
:101820006C23C05C002807D00138434258410A238A
:1018300040429843133070471420FCE7882370B56A
:10184000C25C793B010013400A2B51D8304A9B00FF
:10185000D3589F4603232F48012283708A230225F1
:10186000CC5A6600A308354013402B436508154049
:10187000AD002B43E5081540ED002B43250915402D
:101880002D012B43650915406D012B43A50915401A
:10189000AD012B43E5091540ED012B43250A154009
:1018A0002D022B43650A15406D022B43A50A1540F6
:1018B000AD022B43E50A1540ED022B43250B1540E5
:1018C000640B2D0322402B435203134303808E23CA
:1018D000CB5A1B0AC3709023CB5A1B0A0371922365
:1018E000CB5A1B0A43719423CB5A1B0A837170BDD8
:1018F0000823B0E70023AEE70423ACE70623AAE7FA
:101900000723A8E70523A6E70223A4E70123A2E70C
:10191000D8030410241F0020882370B5C55C02334F
:10192000C15AAA08893B6E081A401E4076009200F0
:1019300032431E002E40ED081D40ED0032432A4385
:101940004D0A1D402D012A430D0A1D406D012A43F9
:101950008D0A1D40AD012A43CD0A1D40ED012A43E9
:101960001D00040020480D4082700A092D011A4014
:101970002A434D091D406D002A430D0B1D40AD004B
:101980002A434D081D406D012A438D081D40AD01BD
:101990002A43CD081D40ED012A43C270134D8E220B
:1019A000AC46A25A6244C2809022A55A104A551BE6
:1019B00005819225655B654445819425655B521BD5
:1019C00082812278002A06D09533E35C0371972345
:1019D000E35C437170BD8A09C9091A400B40524249
:1019E0005B420271DBB2F4E7101F00200080FFFFB2
:1019F000FF7F00006C2370B5C35C002B0BD0012B64
:101A00000CD08823C25C793B13400A2B58D8344A47
:101A10009B00D3589F46FFF77FFF70BDFFF70EFF77
:101A2000FBE703232F4A93708A23C45A883B610043
:101A30000B400121A5080D402B4365080D40AD006A
:101A40002B43E5080D40ED002B4325090D402D01EA
:101A50002B4365090D406D012B43A5090D40AD01D8
:101A60002B43E5090D40ED012B43250A0D402D02C6
:101A70002B43650A0D406D022B43A50A0D40AD02B4
:101A80002B43E50A0D40240BED02214009032B43B3
:101A90000B431188490B49030B4313808E23C35A10
:101AA0001B0AD3709023C35A1B0A13719223C35A83
:101AB0001B0A53719423C35A10001B0A9371ACE79D
:101AC0000823AFE70023ADE70423ABE70623A9E72C
:101AD0000723A7E70523A5E70223A3E70123A1E73F
:101AE000040404102C1F0020F0B5CE464746060023
:101AF00080B5214B85B019000C22984622F0A8F839
:101B0000B36801AD9946002328003700B360340064
:101B100032F096FC0C3721002800013432F098FC9A
:101B2000BC42F8D1280032F0ABFC814505D1300031
:101B300005B0C0BCB946B046F0BD104B2A003360BA
:101B400000233100337191C991C26846AB6032F015
:101B500077FC2C0004AF21006846013432F078FC99
:101B6000BC42F8D1684632F08BFC0C22A8602900F8
:101B7000404622F06DF8DAE72064002001020100FF
:101B8000F0B5DE464E4645465746E0B5A7B06D4631
:101B90000400016E2800FFF7A7FF23006C3307CD78
:101BA00007C390226823AF4E52013000E25233F057
:101BB00093FFAD4D002800D03EE12900012505AE80
:101BC000300000F0B5FF0C2022F048F82A007378AE
:101BD00005819A40037098234260E0500C2022F067
:101BE0003DF82A00B3782F009A40426002229146C5
:101BF00002819A32A05003700C2022F02FF82900A5
:101C0000F378994041600421884601819C316050FD
:101C100003700C2022F022F833799F400370476054
:101C2000A4230827E05007810C2022F017F8290090
:101C30007379058199404160A821037060500C20A0
:101C400022F00CF82A00B3799A4003704B460381C6
:101C5000AA334260E0500C2022F000F82A00F37909
:101C60009A40037043460381AC334260E0500C203D
:101C700021F0F4FF2900337A07819940AC37E05115
:101C80002F00416003700C2021F0E8FF737A9F4021
:101C90004760B82703701023E0512F0003810C2008
:101CA00021F0DCFFB37A9F404760BC2703702023FC
:101CB000E0512F0003810C2021F0D0FFF37A9F40E8
:101CC000037047604023C0270381E0510C2021F0BE
:101CD000C5FF2900337B2F009940037041608023AA
:101CE000C421038160500C2021F0B8FF737B9F401A
:101CF0004760C82703708023E051BB462F005B007C
:101D000003810C2021F0AAFFB37B9F404760CC27C2
:101D100003708023E051BA462F009B0003810C2002
:101D200021F09CFFF37B9F404760D0270370802306
:101D3000E051B9462F00DB0003810C2021F08EFF1B
:101D4000337C9F404760D42703708023B846E0511E
:101D50002F001B0103810C2021F080FF737C9F402A
:101D6000037080234760D8275B010381E0510C207A
:101D700021F074FFB37CE0269D4003708023456012
:101D8000DC259B0103816051482021F06BFF9C22E0
:101D9000A021A25898234260625808318260A42290
:101DA000A258E358C26062581C310261AC22A258AA
:101DB00003604261B022A2588261B422A258C2617B
:101DC000B822A2580262BC22A2584262C022A25883
:101DD00082626258C2625A46A25802635246A258B0
:101DE00042634A46A25882634246A258C263E259FD
:101DF000D027026462593F064264E022A050DF3AD5
:101E00000025904601E0A3595B5918781DF0BCFDF0
:101E1000A35900225B5901211878434683400435B9
:101E2000BB621DF08BFD482DEDD127B0F0BCBB4649
:101E3000B246A946A046F0BD00230C486B602FF0C7
:101E400093F8280000F010FF280001F015F8280092
:101E500001F0C8F8280000F0F7FD300033F058FE1C
:101E6000ABE6C046A0290020D08400202C5D0020D5
:101E7000F0B505002C0089B0016E6C3402A8FFF7A4
:101E800033FE0C22210002A83DF0EAFB002801D11C
:101E900009B0F0BD05AF3B0007CC07C3002301A884
:101EA000BB603C0032F0CCFA08AE210001A801343E
:101EB00032F0CEFAA642F8D101A832F0E1FA0C22B3
:101EC000B8603900074821F0C3FE286E064A03684F
:101ED0005B68934203D105482FF000F8D8E7984794
:101EE000D6E7C04620640020D51300102C5D0020EA
:101EF000662370B5C25A24331100C35A19408A426E
:101F00002BD06822825A0024110019408A4201D045
:101F1000200070BD8821455C79392940042949D0C9
:101F200010D8012941D00229F2D101246E21934316
:101F300044543F3488220021815402328352FFF7F7
:101F400097FFE5E70829E3D170240125015D93435C
:101F5000694001559134FF34ECE78821445C7939BC
:101F6000214004291BD009D8012911D002290DD103
:101F700000246D21934344540134DBE7082905D143
:101F800002246D21934344540234D3E70024BFE775
:101F900093431A0080235B0108241343CAE70124FA
:101FA0006D21934344540134C4E76E219343445458
:101FB0002024BFE702246E21934344547E34B9E7C2
:101FC0000123F0B5DE4657464E464546574A5B422A
:101FD000E0B513600023FF26FF2153609360D360B8
:101FE0001361534A534F1360534A544D1760544A78
:101FF000544C1660544A55481560554A09021460FD
:10200000544A8FB01060544A1160544A54498C4667
:102010001160544A544911608846544A5449116029
:102020008946FF21534A090411608A46524A53499E
:102030001160534A534904941160534A5349544C14
:102040001160FF22120206926246079242460892EF
:102050004A468B46099252460A925A46474905908B
:102060000B9148493820009323606360A360039577
:102070000C910D920197029621F0F0FD0500382297
:10208000694638352060A56021F0E2FD41494248AB
:102090006560FFF7A7F941494148FFF7A3F94149B6
:1020A0004148FFF79FF941494148FFF79BF94149F2
:1020B0004148FFF797F941494148FFF793F94149F2
:1020C0004148FFF78FF941494148FFF78BF94149F2
:1020D0004148FFF787F941494148FFF783F94149F2
:1020E0004148FFF77FF941494148FFF77BF94149F2
:1020F0004148FFF777F941494148FFF773F94149F2
:102100004148FFF76FF941494148FFF76BF94149F1
:102110004148FFF767F941494148FFF763F90FB0BC
:10212000F0BCBB46B246A946A046F0BD24600020E4
:10213000AC290020FFFFFF008C2A0020FF80000058
:10214000945F0020FFFF0000002B002080FF0000B4
:10215000E02B00201C2E00201C2A0020F02C002048
:1021600000FF80004062002000FFFF00602D002083
:102170000080FF00B0620020702B00208000FF0074
:1021800020630020FF00FF00802C0020FF00800063
:10219000945D00208C030410944B002090030410E5
:1021A000D84D002098030410E84F00207811041047
:1021B000405A0020A0030410D4320020A4030410CD
:1021C000E4340020A8030410F4360020AC0304100B
:1021D00004390020B0030410143B0020B4030410A1
:1021E00044410020B8030410243D0020BC03041027
:1021F00054430020C003041074470020C40304109B
:1022000084490020C8030410343F0020CC0304108C
:1022100064450020D0030410B42E0020D403041021
:10222000C4300020F8B54568046807000E00AC42D1
:1022300006D023681A79B24203D00434A542F8D1FB
:10224000F8BD186804340368DB6898477D68A542C8
:10225000EFD1F5E7F8B54568046807000E00AC4219
:1022600006D023681A79B24203D00434A542F8D1CB
:10227000F8BD1868043403689B6898477D68A542D8
:10228000EFD1F5E7F8B54546DE4657464E460368BA
:10229000E0B546689346374A9846F31A05008A46E1
:1022A0009B10934262D0B04556D01A009A189342C0
:1022B00047D8534641465C1A002300279946002A16
:1022C0004CD15B461B683B51002C2ADC534604343E
:1022D0003C19F61A002E0DDC4346A419002B19D127
:1022E0004B462F606C60AB60F0BCBB46B246A94663
:1022F000A046F8BD20003200514621F0A9FC43461B
:10230000A419002BECD005E020003200514621F04A
:102310009FFCA4194346A968C91A404621F0AAFCAB
:10232000DEE72200414638003DF0BCF95346043454
:102330003C19F61A002EE7DC4346A968A419C91A0D
:10234000EBE7534642469C1A0B4B9946484621F010
:1023500085FC07008144B4E70122A7E780239B05A1
:102360009A4200D3034A93009946EFE7034833F0BB
:10237000C3FDC046FFFFFF1FFCFFFF7F40040410AA
:10238000F0B50B68050083B008001B680C0017004F
:102390009847002811D0082021F060FC060023682F
:1023A00001905B68200098476968AB6834603771BA
:1023B000994208D040C1696003E00421200021F067
:1023C00059FC03B0F0BD280001AAFFF75BFFF8E756
:1023D000F0B50700083704000E0083B0076000293D
:1023E00023D008003DF0BAFB050001900F280DD85E
:1023F000012808D1337823720021019B2268636091
:10240000D15403B0F0BD0028F6D008E0002220002F
:1024100001A933F075FE0700019B2060A3602A002C
:102420003100380021F014FCE6E7014833F04CFDA0
:102430005803041070B505000C1E01D02C7070BD3F
:10244000042021F00BFC0600024B036001F092F91E
:102450006E60F3E72015041010B5406803685B68F0
:10246000984710BD10B50800FFF702FD10BDC0462B
:1024700084B030B5174D95B0280019911A921B936E
:1024800033F02AFB144C00280FD11CA950226846B7
:1024900021F0DEFB200019991A9A1B9B00F0C6FE62
:1024A00015B030BC08BC04B0184700230B4863606B
:1024B0002EF05AFD200000F0D7FB200000F0DCFCDD
:1024C000200000F08FFD200000F0BEFA280033F05D
:1024D0001FFBDAE7A0290020D0840020305D002017
:1024E00084B070B5684E9EB030002391249225933D
:1024F00033F0F2FA23AC654D002800D099E0782241
:1025000026A9684621F0A4FB280023996268A368E5
:1025100000F0D0FB300033F0DFFA002800D09DE05F
:10252000280000F0E9FE9823C258973B1D0061780F
:102530008D4055601D001170A1789C228D408258FD
:1025400055601D001170E178A0228D4082585560C1
:102550001D0011702179A4228D40825855601D0004
:1025600011706179A8228D40825855601D0011704C
:10257000A179AC228D40825855601D001170E1791F
:10258000B0228D40825855601D001170217AB4220E
:102590008D40825811705560B8221D008258617AB2
:1025A0008D4055601D001170A17ABC228D4082586B
:1025B00055601D001170E17AC0228D40825855602F
:1025C0001D001170217BC4228D40825855601D0072
:1025D0001170617BC8228D40825855601D001170BA
:1025E000A17BCC228D40825855601D001170E17B8B
:1025F000D0228D40825855601D001170217CD4225C
:102600008D40825811705560D8221D008258617C1F
:102610008D4011705560A17CDC228B4082581C4893
:1026200011705360FEF7D6FE1EB070BC08BC04B03B
:102630001847002317486B602EF096FC280000F026
:1026400013FB280000F018FC280000F0CBFC280049
:1026500000F0FAF9300033F05BFA50E700230D4840
:102660006B602EF081FC280000F0FEFA280000F0DC
:1026700003FC280000F0B6FC280000F0E5F930006B
:1026800033F046FA4CE7C046A0290020D084002051
:10269000401F0020305D002084B070B5134D0591BF
:1026A00028000692079333F017FA114C002807D13F
:1026B000200005A900F004FE70BC08BC04B0184757
:1026C00000230C4863602EF04FFC200000F0CCFA91
:1026D000200000F0D1FB200000F084FC200000F07E
:1026E000B3F9280033F014FAE2E7C046A02900202D
:1026F000D0840020305D002084B070B51C4C1D4E8D
:10270000A544FFAC300021616261A36133F0E4F9BC
:102710001034194D002815D1FE22FFA968469200F9
:102720001C3121F095FAFFAB19692800626810335B
:10273000A36800F011FCFE239B009D4470BC08BC04
:1027400004B0184700230D486B602EF00DFC2800E4
:1027500000F08AFA280000F08FFB280000F042FC0D
:10276000280000F071F9300033F0D2F9D4E7C04608
:1027700008FCFFFFA0290020D0840020305D00204D
:102780000123F0B5DE4657464E464546574A5B4262
:10279000E0B513600023FF26FF2153609360D360F0
:1027A0001361534A534F1360534A544D1760544AB0
:1027B000544C1660544A55481560554A0902146035
:1027C000544A8FB01060544A1160544A54498C46A0
:1027D0001160544A544911608846544A5449116062
:1027E0008946FF21534A090411608A46524A5349D7
:1027F0001160534A534904941160534A5349544C4D
:102800001160FF2212020692624607924246089227
:102810004A468B46099252460A925A4647490590C3
:102820000B9148493820009323606360A3600395AF
:102830000C910D920197029621F010FA05003822B2
:10284000694638352060A56021F002FA41494248C6
:102850006560FFF7BDFD41494148FFF7B9FD4149BA
:102860004148FFF7B5FD41494148FFF7B1FD4149F6
:102870004148FFF7ADFD41494148FFF7A9FD4149F6
:102880004148FFF7A5FD41494148FFF7A1FD4149F6
:102890004148FFF79DFD41494148FFF799FD4149F6
:1028A0004148FFF795FD41494148FFF791FD4149F6
:1028B0004148FFF78DFD41494148FFF789FD4149F6
:1028C0004148FFF785FD41494148FFF781FD4149F6
:1028D0004148FFF77DFD41494148FFF779FD0FB0C1
:1028E000F0BCBB46B246A946A046F0BD3860002009
:1028F000B0290020FFFFFF00902A0020FF80000089
:10290000985F0020FFFF0000042B002080FF0000E4
:10291000E42B0020202E0020202A0020F42C002070
:1029200000FF80004462002000FFFF00642D0020B3
:102930000080FF00B4620020742B00208000FF00A4
:1029400024630020FF00FF00842C0020FF00800093
:10295000A05D00208C030410AC4B002090030410F9
:10296000F04D00209803041000500020781104104E
:10297000585A0020A0030410EC320020A4030410D5
:10298000FC340020A80304100C370020AC03041012
:102990001C390020B00304102C3B0020B4030410A9
:1029A0005C410020B80304103C3D0020BC0304102F
:1029B0006C430020C00304108C470020C4030410A3
:1029C0009C490020C80304104C3F0020CC03041095
:1029D0007C450020D0030410CC2E0020D40304102A
:1029E000DC300020F0B50700083704000E0083B08B
:1029F0000760002923D008003DF0B0F805000190E1
:102A00000F280DD8012808D1337823720021019BAB
:102A100022686360D15403B0F0BD0028F6D008E00E
:102A20000022200001A933F06BFB0700019B20600E
:102A3000A3602A003100380021F00AF9E6E70148D6
:102A400033F042FA58030410F0B5C646060000B54C
:102A5000314C324FF136FF360500A5443900304A7B
:102A6000300021F0F5F8BE23DB00EA5801A89046BB
:102A70000022EA5031F0E4FC2A4B34009C466544C5
:102A8000210001A8013431F0E3FCAC42F8D101A8E7
:102A900031F0F6FC804505D18123DB009D4480BCEC
:102AA000B846F0BD8024E40022001F49300021F028
:102AB000CFF831001A4A01A821F0CAF83000184AAC
:102AC00001A93CF0CDFD0028E6D06A46002304327F
:102AD0001351684631F0B4FCFFAD01AC0C35210058
:102AE0006846013431F0B4FCAC42F8D1684631F0AC
:102AF000C7FC6A4680230432DB00D05001A9084A93
:102B0000380021F0A5F809482EF0E8F93000044A11
:102B100001A921F09DF8BFE7F8FBFFFF207400201A
:102B200004040000F405000064040410345D002077
:102B300010B5040084220C3121F08AF8200010BD69
:102B40003D4BF0B5C3603D4B002503613C4B01227A
:102B500043613C4BADB083613B4B0400C3613B4BD5
:102B600003842223C5543A4BC562436280235B0031
:102B70000385384B03633423C25408338363393BE2
:102B800083873B33C554344B01AA056411001800F8
:102B90009C46C8C8C8C1C0C8C0C121004431C1CA10
:102BA000C1C141CA41C1634611001433C1CBC1C187
:102BB00041CB41C12300583343CA43C303CA03C3B3
:102BC0002000062225490C346C3021F041F8842283
:102BD00021000BA821F03CF8842221000BA83CF036
:102BE0003FFD002801D12DB0F0BD2C216A46802385
:102BF00052186846D55031F023FC0BAD2CAE29009D
:102C00006846013531F024FCB542F8D1684631F010
:102C100037FC6A462C2180235218D0500BA98422FD
:102C20000F4821F015F80F482EF058F984222000A3
:102C30000BA921F00DF8D6E7000203050406070AE8
:102C40000B0D0C09081011121314150003030000DA
:102C50004C1D0000801A0600640804105C04041077
:102C600020680020345D0020F0B504000C3406001C
:102C700083B084220E49200020F0EAFF8C2300223A
:102C8000F7583500F25001A831F0DAFB90352100F9
:102C900001A8013431F0DCFBAC42F8D101A831F0DD
:102CA000EFFB874202D03000FFF74AFF03B0F0BDD0
:102CB0002068002084B070B50C3082B00500079108
:102CC00008920100842207A809933CF0C9FC00285F
:102CD00004D102B070BC08BC04B018471C2069467F
:102CE00080230022091801A8CA5031F0A9FB07ACC3
:102CF00028AE210001A8013431F0AAFBB442F8D17A
:102D000001A831F0BDFB6A461C2180235218D05027
:102D100007A98422054820F09BFF05482EF0DEF825
:102D20008422280007A920F093FFD2E72068002022
:102D3000345D002010B5040015316022FF3120F011
:102D400087FF200010BDC0468A23F2225B0052425A
:102D500070B5C2503E4A0433C2503E4A0433C2509A
:102D6000FF22002404335242C252FF32FF320233A8
:102D7000C25439490233C4500433C150C021043312
:102D80004942C15035490433C1509A21323BFF3B7F
:102D900049004350324D0431435004314550043111
:102DA00043544433FF33C4520433C452023BC2542D
:102DB0002C4A0433C25000220433C2540233C4529A
:102DC000294A0233C4500433C250284A0433C25043
:102DD000FF220433C45012040433C25001220433CE
:102DE000C4500433C250802204335202C250153002
:102DF000FF3005009AB00100602202A820F028FFF1
:102E00006022290002A83CF02BFC002801D11AB056
:102E100070BD01A8199431F013FB02AC1AAE210069
:102E200001A8013431F014FBA642F8D101A831F019
:102E300027FB02A9602219900D4820F009FF0D48D8
:102E40002EF04CF86022280002A920F001FFDEE7F6
:102E5000FFFF0F0FFF010101801A0600FF0000FFB6
:102E6000FF0100FFFF6401000000FFFFFFFF000003
:102E700020700020345D0020F0B504001534FF34CC
:102E8000060083B060221049200020F0E1FEB82344
:102E900000225B003500F75801A8F25031F0D0FA5B
:102EA0007535FF35210001A8013431F0D1FAAC426B
:102EB000F8D101A831F0E4FA874202D03000FFF7E0
:102EC00043FF03B0F0BDC0462070002084B070B551
:102ED000153082B0FF300500079108920100602292
:102EE00007A809933CF0BCFB002804D102B070BCD9
:102EF00008BC04B01847002301A81E9331F0A0FAC3
:102F000007AC1FAE210001A8013431F0A1FAB44290
:102F1000F8D101A831F0B4FA07A960221E90064842
:102F200020F096FE05482DF0D9FF6022280007A961
:102F300020F08EFEDAE7C04620700020345D0020CD
:102F400010B50400F131034AFF3120F081FE20006A
:102F500010BDC0460404000084B070B5F13082B0EA
:102F600007910892FF301C4A07A9050009933CF01D
:102F700077FB002804D102B070BC08BC04B018472D
:102F80001C208023694600220918DB0001A8CA50D2
:102F900031F056FAFFAE07AC2436210001A8013407
:102FA00031F056FAB442F8D101A831F069FA6A4614
:102FB0001C2180235218DB00D05007A9064A07487D
:102FC00020F046FE06482DF089FF2800024A07A996
:102FD00020F03EFECFE7C04604040000207400202D
:102FE000345D0020F0B5CE46474680B507004A4B19
:102FF0007537FF370500190099B05C2238009846F4
:1030000020F026FEE6235B00EA582E0091460022BF
:1030100001A8EA5031F014FA3C00D136FF36210005
:1030200001A8013431F014FAB442F8D101A831F00A
:1030300027FA814504D119B0C0BCB946B046F0BDED
:10304000BC231C225B00EA50344A0433EA50C022FD
:1030500003210024783BFF3B5200AB540432A950BB
:1030600004320239A9500432AC5001310432A95063
:1030700004320631A95004320131A9500432053915
:10308000A9500432AB50A0339A3AFF33FF3AEA50CA
:103090000433013AEA5004330532EA500433013A6A
:1030A000EA50B23BAB32FF3BFF32AB500432AB5085
:1030B0000432AB500432AB500432AB500432AB504C
:1030C0006D3A3900FF3A01A820F0C2FD5C223900B8
:1030D00001A83CF0C5FA0028ADD06846179431F03D
:1030E000AFF901AC18AD21006846013431F0B0F9F8
:1030F000A542F8D1684631F0C3F901A95C221790C6
:10310000404620F0A5FD06482DF0E8FE5C22380080
:1031100001A920F09DFD8EE7206A00200000013209
:10312000345D002010B5040075315C22FF3120F0C1
:103130008FFD200010BDC046BC231C225B0070B573
:10314000C250374A0433C250C02203210024783BC6
:10315000FF3B5200835404328150043202398150C3
:1031600004328450013104328150043206318150DE
:1031700004320131815004320539815004328350C8
:10318000A0339A3AFF33FF3AC2500433013AC25097
:1031900004330532C2500433013AC250B23BAB3261
:1031A000FF3BFF3283500432835004328350043299
:1031B000835004328350043283507530FF30050051
:1031C00098B06D3A0100FF3A01A820F041FD5C2261
:1031D000290001A83CF044FA002801D118B070BDC4
:1031E0006846179431F02CF901AC18AE21006846FE
:1031F000013431F02DF9B442F8D1684631F040F98C
:1032000001A95C221790074820F022FD06482DF006
:1032100065FE5C22280001A920F01AFDDEE7C04609
:1032200000000132206A0020345D002084B070B5B7
:10323000753082B0FF3005000791089201005C22D2
:1032400007A809933CF00CFA002804D102B070BC26
:1032500008BC04B01847002301A81D9331F0F0F812
:1032600007AC1EAE210001A8013431F0F1F8B442E0
:10327000F8D101A831F004F907A95C221D90064895
:1032800020F0E6FC05482DF029FE5C22280007A965
:1032900020F0DEFCDAE7C046206A0020345D002022
:1032A00010B505482DF094FEFA2200200349D20003
:1032B0001DF0BEFF10BDC046345D0020002004207C
:1032C00010B58422903020F0C3FC10BD10B504006E
:1032D0008422903120F0BCFC200010BD030010B50A
:1032E0000C33017084221900903020F0B1FC10BD25
:1032F0000078704741607047406870478160704750
:103300008068704710B5D13020220021FF3020F0B6
:1033100099FC10BDD130FF307047C046F0B5C646AD
:103320002F4B80219846050000B5090186B00D227B
:10333000414420F08DFC6A782B7812021A43AB7856
:10334000EF781B0413433F061F4300232E0002A8FF
:103350002B706B70AB70EB702C0031F071F80D3688
:10336000210002A8013431F073F8B442F8D102A868
:1033700031F086F8874204D1280006B080BCB846F8
:10338000F0BD02234B2200242B71AB71013BEB718A
:10339000543329006A712B723E3A2D3B02A86C729D
:1033A000AB72EC722C73152620F052FC01A802942B
:1033B00031F046F802AC6E44210001A8013431F02E
:1033C00047F8A642F8D101A831F05AF802908020BF
:1033D00000010D22404402A920F03AFCCCE7C0468F
:1033E0002064002030B58BB0010002A8FFF796FFE3
:1033F000154C0D22210002A83CF032F9002801D121
:103400000BB030BD21000D2206A820F021FC0023C6
:10341000252501A8069331F013F806AC6D44210070
:1034200001A8013431F014F8AC42F8D101A831F010
:1034300027F80D22069006A9044820F009FC04484C
:103440002DF04CFDDCE7C04610640020206C00200D
:10345000345D00200123F0B5DE4657464E46454612
:10346000574A5B42E0B513600023FF26FF215360FB
:103470009360D3601361534A534F1360534A544DC2
:103480001760544A544C1660544A55481560554AC2
:1034900009021460544A8FB01060544A1160544AB3
:1034A00054498C461160544A544911608846544A24
:1034B000544911608946FF21534A090411608A4624
:1034C000524A53491160534A534904941160534A74
:1034D0005349544C1160FF22120206926246079231
:1034E000424608924A468B46099252460A925A46EA
:1034F000474905900B914849382000932360636049
:10350000A36003950C910D920197029620F0A6FB03
:1035100005003822694638352060A56020F098FB08
:10352000414942486560FFF75DFA41494148FFF76C
:1035300059FA41494148FFF755FA41494148FFF7D7
:1035400051FA41494148FFF74DFA41494148FFF7D7
:1035500049FA41494148FFF745FA41494148FFF7D7
:1035600041FA41494148FFF73DFA41494148FFF7D7
:1035700039FA41494148FFF735FA41494148FFF7D7
:1035800031FA41494148FFF72DFA41494148FFF7D7
:1035900029FA41494148FFF725FA41494148FFF7D7
:1035A00021FA41494148FFF71DFA41494148FFF7D7
:1035B00019FA0FB0F0BCBB46B246A946A046F0BD12
:1035C0004C600020B4290020FFFFFF00942A002057
:1035D000FF8000009C5F0020FFFF0000082B002000
:1035E00080FF0000E82B0020242E0020242A002049
:1035F000F82C002000FF80004862002000FFFF0040
:10360000682D00200080FF00B8620020782B002089
:103610008000FF0028630020FF00FF00882C0020AE
:10362000FF008000AC5D00208C030410C44B002020
:1036300090030410084E0020980304101850002036
:1036400078110410705A0020A003041004330020E5
:10365000A403041014350020A8030410243700200C
:10366000AC03041034390020B0030410443B0020A4
:10367000B403041074410020B8030410543D00202A
:10368000BC03041084430020C0030410A44700209E
:10369000C4030410B4490020C8030410643F002090
:1036A000CC03041094450020D0030410E42E002025
:1036B000D4030410F4300020802080037047C046FB
:1036C0000148024BC01A704788D30910000000104F
:1036D000024B0348C01A034BC01870470000042077
:1036E00000200420842F01000148024BC01A7047BB
:1036F00000000420842F012000B58BB068463AF00A
:103700006BFF07980BB000BD10B5040001200649FF
:1037100040422AF093FA054B0022002100201C624F
:103720001DF086FD30BFFDE7FFFFFF0F0080054065
:1037300010B51DF0CBFD002811D00A4B186A0A4BBA
:10374000984208D0094B984205D0094BC3185A42F9
:1037500053415B4218400022024B1A6210BD002008
:10376000FCE7C04600800540CD66D543A58477E7D9
:103770001F1BC80810B530F007FF10BD054B10B572
:103780001A0018680832904203D09968013120F07D
:1037900071FA10BD7084002010B530F041FF0A4B63
:1037A0000CCB110019430AD00849486A834206D855
:1037B000896A914204D3064B1868FFF7A5FF10BD34
:1037C0008342F8D1FBE7C046602600200040054058
:1037D000F42A002070B500291AD054689368103478
:1037E000A34213D34C68103B1E009360002C0BD0F7
:1037F0001D1B2D1165814B60002400211C72598115
:10380000D9600660426070BD0B60F4E70123137459
:103810000026F6E7F0B50700083704000E0083B075
:103820000760002923D008003CF098F905000190BA
:103830000F280DD8012808D1337823720021019B6D
:1038400022686360D15403B0F0BD0028F6D008E0D0
:103850000022200001A932F053FC0700019B2060E8
:10386000A3602A003100380020F0F2F9E6E70148B1
:1038700032F02AFB58030410F0B54746CE4680B517
:10388000254B80460E00170083B0551A9D4240D844
:103890000024002D03D0280020F0E0F90400434666
:1038A00065191C609D60B7420BD128E0012D2DD118
:1038B0001B78237200231836656043551834B742CD
:1038C0001DD0200033687568083099462060019546
:1038D0000F2DEBD90022200001A932F011FC019B31
:1038E0002060A3602A00494620F0B2F90023019D20
:1038F00020681836656043551834B742E1D1434615
:103900005C6003B0C0BCB946B046F0BD002DD1D05C
:10391000E8E7024832F0F0FAF8FFFF7F8C08041065
:10392000F8B506000D001700002918D00468002C17
:1039300017D02800E1683CF093F800280BD00A2249
:10394000A35E002B0DD01B01E4182800E1683CF0B9
:1039500087F80028F3D12000F8BD01233B74002034
:10396000FAE77B68BC6810339C42F6D37368103C5E
:10397000BC60002B09D0E21A12115A810023746036
:10398000200063812372E560E6E73460F6E7C04615
:10399000F8B51500202203000E00815C10000840DD
:1039A0000A4248D0002E45D09C69002C42D03000FD
:1039B000E1683CF055F800280BD00A22A35E002BEA
:1039C00038D01B01E4183000E1683CF049F80028C9
:1039D000F3D17F23227A13400A2B3CD00FD8062B39
:1039E0002AD0082B26D105CC2968CB17934230D892
:1039F0002DD09A4237D89A4237D001201BE00C2BA9
:103A000018D12668676828681FF0AEFB04000D0017
:103A100002000B00300039001FF078FB002818D19D
:103A20002B002200300039001FF086FB431E984116
:103A3000013000E00020F8BD2B682078002B08DB67
:103A4000834206D88342804140420130F3E78142FD
:103A5000CFD90420EFE7296805CCCB179342F8DCD7
:103A600007D09A42C7DD0220E5E78842FBD8012053
:103A7000E1E78142F5D90420DDE7C046202370B597
:103A800042680600D15C01200B4244D0B568002D8D
:103A900041D09469002C3ED02800E1683BF0E0FF63
:103AA00000280BD00A22A35E002B33D01B01E418A0
:103AB0002800E1683BF0D4FF0028F3D1237A9B066D
:103AC00028D5F568002D25D02468002C22D02800A8
:103AD000E1683BF0C5FF00280BD00A22A35E002B53
:103AE00018D01B01E4182800E1683BF0B9FF00285A
:103AF000F3D17F23227A1340202B0DD87E21012081
:103B0000114208D0074A023BDBB2DA4013000340FF
:103B1000584000E0012070BD403B5A1E9341D8B28E
:103B2000F9E7C0465F050040F8B517007F220D0099
:103B30001100037A060019401A4203D000209B06A8
:103B400006D4F8BD93432022134303720160416001
:103B5000002D18D03468002C17D02800E1683BF005
:103B60007FFF00280BD00A22A35E002B0DD01B0183
:103B7000E4182800E1683BF073FF0028F3D120002F
:103B8000DFE701233B740020DBE77B68BC68103370
:103B90009C42F6D37368103CBC60002B09D0E21A3B
:103BA00012115A8100237460200063812372E56042
:103BB000C7E73460F6E7C046F0B54546DE465746EF
:103BC0004E467F23E0B5027A05000C00A1B01340F9
:103BD000402B25D8CD4A9B00D3589F46066847689E
:103BE00032003B00300039001FF088FA002817D05F
:103BF00000220023300039001FF080FA002800D096
:103C000090E132003B00300039001FF00DFA020055
:103C10000B00300039001FF071FA002800D181E15B
:103C20002068BB4B42689B1A032B01D800F004FDAF
:103C3000B849042232F062FC63680433636021B047
:103C4000F0BCBB46B246A946A046F0BD2068B04BCA
:103C5000426822CD9B1A9D4201D900F0EDFC2A005A
:103C600032F04CFC63685B196360E8E70868222166
:103C7000C0CD32F0E1FA636801336360002F23D0D6
:103C8000A54BF7199846A24B9A46A44B9946222574
:103C90004346317804E09D780233002D00D1FFE2E5
:103CA0005A788A42F7D15C21206832F0C5FA6368FD
:103CB000290001336360206832F0BEFA6368013383
:103CC00001366360BE42E2D12221206832F0B4FAAC
:103CD000636801336360B2E7037808684268002BC9
:103CE00000D175E38A4B9B1A032B01D800F0A4FC8A
:103CF0008B499EE702AA76239446634498461D00AA
:103D000007684668380031000A2200231EF086FF4B
:103D1000013D303233002A700E003A000700002BBC
:103D2000F0D1092AEED8434620685E1B4268784BE2
:103D30009B1A9E4201D900F07FFC3200290032F02C
:103D4000DDFB63689B19636079E706684768002FAD
:103D500001DA00F014FC02AA5E23944663449846FC
:103D60001D00300039000A2200231EF057FF013DDC
:103D700030323B002A700F0032000600002BF0D1D9
:103D8000092AEED8CFE708687B2132F055FA63683C
:103D9000013363602B689A46002B00D104E35E4B2D
:103DA0009946534622212068DF6832F045FA63685D
:103DB0000133636000233E789846002E49D0534675
:103DC000029322254B46013704E09D780233002DF3
:103DD00000D150E25A78B242F7D1266832003368F7
:103DE0000832934200D1D9E2B26871688B46012152
:103DF00059448A46914200D9C6E25A465C219954F8
:103E00005346524641467360336899546368266846
:103E100001336360736832009B4601235B449A461A
:103E200033680832934200D1BCE2B268924500D9AF
:103E3000A0E25A469D545346736033685246414649
:103E400099546368013363603E78002EB9D1029BB8
:103E50009A4625682A006F682B6808327E1C9342B8
:103E600000D1B3E2AA68964200D9A5E22222DA552F
:103E700000222B686E609A5563683A2101332068EE
:103E8000636032F0D9F96368210001336360504602
:103E9000FFF792FE53460A229B5E002B00D183E27D
:103EA0001B012C2120689A4432F0C6F96368013363
:103EB000636076E708685B2132F0BEF963682D68BD
:103EC00001336360002D18D021002800FFF774FE35
:103ED0000A22AB5E002B10D01B012C212068ED18AC
:103EE00032F0AAF963682100013363602800FFF70C
:103EF00063FE0A22AB5E002BEED15D21206832F01A
:103F00009BF963680133636099E6C0460C090410AD
:103F1000FFFFFF3FEC080410C2080410F40804106F
:103F2000FC08041000220023300039001FF0EEF8D6
:103F3000002800D00FE3002230003900E34B1FF0CF
:103F4000F3F8002800D050E20022002330003900AE
:103F50001FF0F2F8002800D11FE330003900DC4ADE
:103F6000DC4B1FF0D9F8002800D116E330003900EF
:103F7000D94ADA4B1FF0CAF8002800D159E33000C3
:103F80003900D74BD74A1FF076F8D74B06000F0001
:103F90009B4630003900D54AD54B1FF0B7F80028B2
:103FA0000BD030003900D34BD34A1FF064F85B4686
:103FB000803B1BB206000F009B4630003900CF4A01
:103FC000CF4B1FF0A3F800280BD030003900CD4BA9
:103FD000CD4A1FF050F85B46403B1BB206000F0075
:103FE0009B4630003900C94AC94B1FF08FF80028A2
:103FF0000BD030003900C74BC74A1FF03CF85B4676
:10400000203B1BB206000F009B4630003900C34A1C
:10401000C34B1FF07BF800280BD030003900C14B98
:10402000C14A1FF028F85B46103B1BB206000F0088
:104030009B4630003900BD4ABD4B1FF067F8002891
:104040000BD030003900BB4B00221FF014F85B4648
:10405000083B1BB206000F009B4630003900B64AF1
:10406000B64B1FF053F800280BD030003900B44B8A
:1040700000221FF000F85B46043B1BB206000F0055
:104080009B4630003900AF4AAF4B1FF03FF8002885
:104090000BD030003900AD4B00221EF0ECFF5B4628
:1040A000023B1BB206000F009B4600223000390085
:1040B000A74B1FF02BF800280BD030003900A54B80
:1040C00000221EF0D8FF5B46013B1BB206000F002A
:1040D0009B46300039001FF083F80500092800D8FE
:1040E00093E2082399469C4B0296039782464F46DB
:1040F000A1461C000A2120001EF052FDA846040023
:104100000A2128001EF04CFD42463B00013F0500FD
:10411000FFB2632AEED8029E039FA0465BB24046E0
:104120004C4699461FF01CF8554602900391280012
:104130001FF016F802000B00300039001EF06BFF74
:10414000029A039B1EF097FF06000F001FF048F82D
:1041500082461FF005F802000B00300039001EF007
:104160005AFF02000B001EF05FFF1FF039F85044A9
:104170000600404500D2FAE15B4600260135002BDF
:1041800000D1FAE1092D00D8F7E101331BB29B46BB
:1041900001254F460BE00A2130001EF001FD013FD2
:1041A0000A2106007FB21EF0FBFC002901D1002F7E
:1041B000F1DCB94602AA2E239446634498461F00B8
:1041C000A24628000A211EF0EBFC013F30312800F6
:1041D00039700A211EF0E4FC2C000500092CF0D8EF
:1041E000544643462068DD1B42685C4B9B1A9D4247
:1041F00000D921E22A00390032F080F963685B19A6
:1042000063604B46002B00D0CAE15B46002B00D117
:1042100015E56521206832F00FF8636801336360AB
:104220005B46002B00DAF9E19DB202AA46239446D0
:10423000634498461E0028000A211EF0B1FC013E8E
:104240003031280031700A211EF0AAFC2F0085B2FF
:10425000092FF0D8434620689D1B42683F4B9B1AAC
:104260009D4200D9E8E12A00310032F047F9636845
:104270005B196360E3E425686B682A009B460123B1
:104280005B449A462B680832934200D188E0AA68C2
:10429000924565D85A469E5453466B602B68CDE5CF
:1042A0002068002904D031F0C7FF6368013307E5B7
:1042B00052464368D31A052B00D8BDE10622494671
:1042C00032F01CF963680633FAE4C046D012634149
:1042D000F168E388B5F8E43E148BD77DB207FE0A97
:1042E000DD4F15753CBF737F00FFFFFFC2DEB78156
:1042F000455491254877825A321D30F90DD13196B7
:10430000FC53DA32034F384DF5F93FE9806889658F
:10431000D6398039B5B89346176E05B51656E79E5F
:10432000AF03D23C79C341430080E03748AFBC9A29
:10433000F2D77A3E84D79741FCA9F1D24D62503F23
:104340000088C3409A9999999999B93F00005940BA
:104350000000F03F0000244000CA9A3BFFFFFF3FEF
:1043600001230022009359460023280031F00AFF60
:104370002B688FE701230022009359460023300069
:1043800031F000FF336854E50123002200935946C1
:104390000023300031F0F6FE33682EE50F2224E5CD
:1043A0000F2275E70F2241E57D21206831F044FF9F
:1043B00063680133636042E4012300220093390003
:1043C0000023280031F0DEFE2B684FE50F224AE57E
:1043D0009B4B9B1A042B00D82EE10522994932F001
:1043E0008DF863680533636029E430003900964A2C
:1043F000964B1EF099FE002800D103E130003900F1
:10440000934B944A1EF037FE80235B0006000F009A
:104410009B4630003900904A904B1EF085FE0028E4
:104420000BD0300039008E4B8E4A1EF024FE5B46C6
:1044300080331BB206000F009B46300039008A4AC9
:104440008A4B1EF071FE00280BD030003900884BDB
:10445000884A1EF010FE5B4640331BB206000F0078
:104460009B4630003900844A844B1EF05DFE0028D4
:104470000BD030003900824B824A1EF0FCFD5B46B7
:1044800020331BB206000F009B46300039007E4AE5
:104490007E4B1EF049FE00280BD0300039007C4BCB
:1044A0007C4A1EF0E8FD5B4610331BB206000F008D
:1044B0009B46002230003900774B1EF035FE002865
:1044C0000BD030003900754B754A1EF0D4FD5B46A9
:1044D00008331BB206000F009B4600223000390053
:1044E000704B1EF021FE00280BD0300039006E4BBF
:1044F0006E4A1EF0C0FD5B4604331BB206000F007F
:104500009B46002230003900694B1EF00DFE00284A
:104510000BD030003900674B674A1EF0ACFD5B469C
:1045200002331BB206000F009B4600223000390008
:10453000624B1EF0F9FD002800D1CAE530003900B9
:104540005F4B604A1EF097FD5B4601331BB20600CD
:104550000F009B46BDE52D21206831F06DFE8021C6
:1045600063680906013363607B181F00E3E40A21D6
:104570001EF016FB002900D01CE64F4617E608681F
:104580002D2131F059FE63683200013363603B0036
:10459000002756429F41FFF7DEFB00239B4698E52C
:1045A0004D46013DEBB2984608AB9A461F006DB2EE
:1045B00030000A211EF0F4FA013F3031300039702A
:1045C0000A211EF0EDFA013D6DB206006B1CEFD121
:1045D000022243465242D21A4046534699181B1AA9
:1045E0002E20023B18702068154B456852425B1B19
:1045F0009A4221D831F082FF434662680233D318D1
:10460000636002E600239B4603E700222E4B0292E2
:104610000393092399462D4B984688E52D21206860
:1046200031F00AFE6368013363605B465D42ADB200
:10463000FBE500239B46ACE4254831F05DFCC04619
:10464000FFFFFF3F040904103CBF737FDD4F15756A
:104650002806C80A436FAC64321D30F94877825A85
:1046600008BA5B259D978CCFF5F93FE9034F384D8C
:10467000FD0FA5323DA7F444176E05B5B5B89346B6
:1046800023F6493933A7A8D50080E03779C34143E1
:10469000B2D29C3CBC89D89784D797418E79453E4D
:1046A0003A8C30E20088C340E2361A3F2D431CEBBF
:1046B00000005940E17A843F7B14AE47000024405B
:1046C0009999B93F9A99999965CDCD4100CA9A3B7C
:1046D000D4080410F0B5DE46454657464E46E0B5D0
:1046E0008B4601788DB088462B2900D121E100212D
:1046F0008A4641462D2904D141780130884601215E
:104700008A4641463039CCB2A146092C6BD9424683
:1047100000232E2A5FD10024002500274278431C65
:104720009046303AD2B2092A17D8CB498C46CB49A9
:104730008846654504D800D044E1444500D841E1AD
:104740005A7801339046303A092A06D85A7801330C
:10475000110030390929F9D9904620224146914368
:10476000452900D1AEE03E004346002B00D04FE18A
:10477000200029001EF040FD002E00DCE5E0B84DD1
:1047800001242F00454634420AD0EB001A000432BF
:10479000BA58FB5808920993089A099B1EF06BFCC3
:1047A00001357610EDB2002EEDD15346002B04D02A
:1047B0000D00802109066B1819005B467F221B7AC9
:1047C00093430C2213435A4613725B460A000100BE
:1047D00019605A60012318000DB0F0BCBB46B24608
:1047E000A946A046F0BD9F4E0024B4460E00002509
:1047F0004946B14612E0417801308846009C019D4F
:104800003021494241448946C9B2A4197D41092950
:104810001BD8654500D996E000D190E0A60FAB000B
:104820003343A200A4185D410091002126002F000F
:1048300001910099B6197F41C94334003D000391AD
:10484000791CD8D10399B142D5D243464946002BB1
:1048500000D0D6E05346002B00D1F1E080231B06A8
:104860009D4200D890E0A0231B04994653460027A0
:10487000824600930391200029000A2200231EF0A3
:10488000CDF901372E0004000D003FB24E45F2D2A3
:10489000009B50469A460399C9B2030009290BD8D8
:1048A00019005A7801331600303E092EF8D9904687
:1048B0003A1A013289180FB242462E2A00D04CE72C
:1048C00018002BE75A7890462D2A00D1D0E02B2AE9
:1048D0006FD0414630395A1CCBB2092B00D942E780
:1048E0009A2378185B00984200DDD1E000209A26D8
:1048F00084460B00380000940195760007E099008B
:10490000C91849007B181918B14200DD82E05178BE
:1049100001320F00303FFDB2092DF0D90700009C95
:10492000019D60468846FE1A002800D01CE7DE196B
:104930001AE741780130884600218A46E1E64A4E6E
:10494000B44200D86AE749468DE77442002E00D190
:104950002BE70126454D4746A946B046434623422C
:104960000CD0FB001A0000934B4604329D584A4677
:10497000009BD6582A0033001EF07DFB01376410DF
:10498000FFB2002CEAD110E79D4202D1002C00D0EA
:1049900069E75B467F221B7A594693430A221343F9
:1049A0005A46137200236242AB410A604B600123F6
:1049B00011E79A1C9B78190030399846CBB2092B25
:1049C0008ED9D0E6A60FA90031430591A10004912C
:1049D0000498059924184D410692002224196D412E
:1049E0005E7807920699079A641855413200303A6A
:1049F000013FD2B201333FB2092A00D899E6B0464E
:104A0000ABE6802300275B039D4200D32BE743E7FF
:104A10000023E0E6604600283AD0534600200021FB
:104A2000002B01D0802109065B467F221B7A93432D
:104A30000C2213435A461372106051600123CAE6D8
:104A40005B467F221B7A9343082213435A46137214
:104A5000146055600123BEE69999010098999999CF
:104A60007015041099999919999999992815041014
:104A70009A1C9B78190030399846CBB2092B00D983
:104A800071E69A2378185B009842C6DC01202EE775
:104A900053460020002B01D00149C5E70149C3E777
:104AA0000000F0FF0000F07FF0B5DE4657464546B7
:104AB0004E46E0B5784C82468BB020008B4631F0F4
:104AC0000BF8764D002800D0BEE000232A686B600A
:104AD00013706A68724B9B1A5A2B00D8D8E05B227D
:104AE0002800704931F00AFD5B465C68092C00D84B
:104AF000B7E0632C00D8C1E0FA239B009C4200D2AF
:104B0000BEE0694B9C4200D8BCE0684B9C4200D898
:104B1000BAE0674B9C4200D8B8E0664B07219C4244
:104B200022D9654B9C421ED9644B09219C421BD95A
:104B3000013104AB9946002206AB48460293049328
:104B400031F0FCFA049B01934B465E68632C18D845
:104B50005B4B9846434664001B195B78019A53707F
:104B600043461C5D37E0082104AB9946002206ABA2
:104B700048460293049331F0E1FA049B01934B46BB
:104B80005E68019B023E9C464D4B664498465346E8
:104B90003700AA460393200064211EF001F820008C
:104BA0004E0064211DF0FCFF43469B195B782500F5
:104BB0007B7043469B5D04003B703B4B023F9D4234
:104BC000E9D8039B2F0055469A46FA239B009F4243
:104BD000C0D23034E4B2019B1C704B4668685A68FE
:104BE0002F4B04991B1A9A4252D8280031F086FCA8
:104BF0000498029B984204D04B46996801311FF0FB
:104C000039F86B68264CE31A032B41D904222D494D
:104C1000280031F073FC5B4606CB6B68E41AA242B5
:104C200036D8280031F06AFC52462B680120136008
:104C30006B68536093600023D3600BB0F0BCBB463D
:104C4000B246A946A046F0BD2B0008332B600023D6
:104C50001D486B602B7239F0C5F9200030F058FF09
:104C600033E704AB9946002206AB01214846029384
:104C7000049331F063FA049B0193AAE7022158E7F9
:104C8000032171E704216FE705216DE705214FE757
:104C90000E4831F031F9C046982900207084002078
:104CA000FFFFFF3F100A04100F2700009F8601003E
:104CB0003F420F007F969800FFE0F505FFC99A3B41
:104CC000B81504106C0A04107D370010D4080410C5
:104CD00030B50C0083B000291CD0042220000F49FD
:104CE0003AF098FD051E15D120003AF037FF030079
:104CF0000B48002142680093230031F02DFB8022F5
:104D0000084B0021084812011D801EF09BFF002067
:104D100003B030BD10204042FAE7C046740A0410C8
:104D2000F82D0020582F0120C8510020F0B5C646AC
:104D30000C0000B5164E002919D08027154B358878
:104D400098463F010BE043466168E8181EF080FF7B
:104D500063892468ED18ADB23580002C07D06289D4
:104D6000AB18BB42EFDD01235B42338000E000243F
:104D7000200022F05FF9084B30889C466044434293
:104D8000584101234042984380BCB846F0BDC0461C
:104D9000582F0120C85100200100FFFF094B70B5BA
:104DA00015001A88084B0C009A4209D0074B2A00BC
:104DB000196820003AF062FD0023611901390B7077
:104DC00070BDC046582F0120FFFF0000F82D0020C5
:104DD000F0B54546DE4657464E468046A020E0B533
:104DE0004E4CC001A5441EF0D7FE051E00D18FE039
:104DF000A023DB01994681444B4600270893099381
:104E0000282304ACE754464B069518009A460795AC
:104E1000277630F061FE434E002865D1310011A89D
:104E2000FEF78EF828232022E254183B9C460026E9
:104E30000027AC440C960D97E1456CD302A84A4676
:104E400081463B2000214844009001900820103A00
:104E50005181354982468020D1604021C0001660D2
:104E600057601172130000260027814622610C92C0
:104E70000D923F39634515D35668103B002E31D053
:104E8000981B0011708101985360465C50465F8109
:104E9000DF6018721E605F60494507D0012601314E
:104EA0006345E9D201222276002E00D023614346D9
:104EB000424608331360002302A9536013720CA802
:104EC00002920393FEF778FE002D02D028001EF018
:104ED000A1FE4046154B9D44F0BCBB46B246A946D8
:104EE000A046F0BD1360CEE7114877602CF03CF887
:104EF0003000FDF7B9FE3000FDF7BEFF3000FEF7D1
:104F000071F83000FDF7A0FD504630F001FE85E756
:104F10000023994670E70F3B2376C8E7B4FBFFFFF9
:104F2000A0290020D08400207C0A04104C0400003A
:104F3000385D0020F0B5DE4657464E464546E0B5A2
:104F40000700802095B000011EF026FE061E0A9084
:104F50000B9000D186E080231B01C3180D9308AB92
:104F6000984600239B4643465A4605AD66492800AD
:104F70001A76FCF7B9FD2B7820229A46AB78414689
:104F800099462823CA54183B9C46B444634601936F
:104F9000FE23DB00F4185B4663815C4B163AE3604A
:104FA0006B780C6123605B461094119422726360ED
:104FB000002C00D170E0564B25009B46E96858460E
:104FC0003AF04EFD00280BD00A22AB5E002B63D0D6
:104FD0001B01ED185846E9683AF042FD0028F3D16C
:104FE0007F2100222B7A8B4375390B432B7253465A
:104FF0006A602B60002C63D0464DE16828003AF0CF
:105000002FFD00280BD00A22A35E002B58D01B01D5
:10501000E4182800E1683AF023FD0028F3D17F214D
:105020000022237A8B4375390B4323724B4662600F
:1050300023603B0008333B60002303A97B603B7285
:1050400010A803970493FEF7B7FD002E02D030009E
:105050001EF0E0FD380015B0F0BCBB46B246A946D4
:10506000A046F0BD00240025274905A80C940D9505
:10507000FCF73AFD02AB1B7B20229A4602AB9B7BDE
:1050800010941195994608AB984628234146CA5476
:10509000273B0B760F330193019BA3422FD82500AA
:1050A0004346103D1D6101235B42638143465D62BF
:1050B00000236B812B72164B0022EB600A2395E7CD
:1050C00043461C69019BA34215D84346103C1C6112
:1050D0005B6A002B0CD0E21A12115A8143465C62C3
:1050E0000023638123720B4B0022E3600A239CE7B9
:1050F00043461C62F2E701234246137699E70123F7
:105100004246137676E7C046441F0020880A041002
:10511000940A0410A00A0410F0B5DE4657464E4625
:10512000454683468020E0B50001EFB01EF034FD17
:105130000200031E03D0802109018C466044002434
:105140001593282312ADEC54E74B179016901800D6
:10515000029314922C7630F0BFFCE44B9946002861
:1051600001D000F001FD1EAC49462000FDF7DAFF3A
:10517000249B229F9A46259B239E0F93269B14AA2D
:105180000E93279B1AA80D93289B0C93299B0B9396
:105190002A9B0A932B9B09932C9B08932D9B079387
:1051A0002E9B06932F9B0593309B0493319B039377
:1051B000329B0193339BCE499846FEF7B5FC0028FD
:1051C00009D07F21037A1F9A8B430A2102600B4387
:1051D000D21703724260C74914AA1AA8FEF7A4FCAA
:1051E000002809D07F21037A227A8B430A210B43BE
:1051F0000372002302604360BF4914AA1AA8FEF795
:1052000093FC002809D07F21037A627A8B430A211C
:105210000B430372002302604360B84914AA1AA822
:10522000FEF782FC002809D07F21037AA27A8B4303
:1052300008210B430372002302604360B04914AAA3
:105240001AA8FEF771FC002809D07F21037AE27AC0
:105250008B4308210B430372002302604360A9497A
:1052600014AA1AA8FEF760FC002809D07F21037A4F
:10527000227B8B4308210B430372002302604360AF
:10528000A14914AA1AA8FEF74FFC041E00D1BFE1E1
:105290007F22037A9D499343202213430372002304
:1052A00014AA036043607B1C01D100F0CEFDFEF721
:1052B00037FB002808D07F22037A076093430A2235
:1052C000FF171343037247602000914914AA731C0F
:1052D00001D100F0AEFDFEF723FB002808D07F22AD
:1052E000037A066093430A22F6171343037246605B
:1052F00053462000874914AA013301D100F08DFDE7
:10530000FEF70EFB002809D07F22037A93430A227E
:105310001343037253460360DB1743600F9B200067
:105320007D4914AA013301D100F06BFDFEF7F8FAB4
:10533000002809D07F22037A93430A221343037281
:105340000F9B0360DB1743600E9B2000734914AA78
:10535000013301D100F05FFCFEF7E2FA002809D02A
:105360007F22037A93430A22134303720E9B036046
:10537000DB1743600D9B2000694914AA013301D15A
:1053800000F05BFCFEF7CCFA002809D07F22037AFC
:1053900093430A22134303720D9B0360DB174360A0
:1053A0000C9B20005F4914AA013301D100F057FC87
:1053B000FEF7B6FA002809D07F22037A93430A2227
:1053C000134303720C9B0360DB1743600B9B2000AD
:1053D000554914AA013301D100F053FCFEF7A0FA9D
:1053E000002809D07F22037A93430A2213430372D1
:1053F0000B9B0360DB1743600A9B20004B4914AAF8
:10540000013301D100F04FFCFEF78AFA002809D0E1
:105410007F22037A93430A22134303720A9B036099
:10542000DB174360099B2000414914AA013301D1D5
:1054300000F04BFCFEF774FA002809D07F22037AB3
:1054400093430A2213430372099B0360DB174360F3
:10545000089B2000374914AA013301D100F047FC12
:10546000FEF75EFA002809D07F22037A93430A22CE
:1054700013430372089B0360DB174360079B200004
:105480002D4914AA013301D100F043FCFEF748FA7C
:10549000002809D07F22037A93430A221343037220
:1054A000079B0360DB174360069B2000234914AA77
:1054B000013301D100F03FFCFEF732FA002809D099
:1054C0007F22037A93430A2213430372069B0360ED
:1054D000DB174360059B2000194914AA013301D151
:1054E00000F03BFC2EE0C046A0290020D084002024
:1054F000AC0A0410B40A0410C00A0410CC0A041048
:10550000DC0A0410F00A0410000B04108C030410D1
:10551000900304109803041078110410A0030410E1
:10552000A4030410A8030410AC030410B003041077
:10553000B4030410B8030410BC030410C003041027
:10554000C4030410FEF7ECF9002809D07F22037A87
:1055500093430A2213430372059B0360DB174360E6
:10556000049B2000C24914AA013301D100F007FCBA
:10557000FEF7D6F9002809D07F22037A93430A2246
:1055800013430372049B0360DB174360039B2000FB
:10559000B84914AA013301D100F003FCFEF7C0F9A9
:1055A000002809D07F22037A93430A22134303720F
:1055B000039B0360DB174360019B2000AE4914AAE4
:1055C000013301D100F0FFFBFEF7AAF9002809D052
:1055D0007F22037A93430A2213430372019B0360E1
:1055E000DB17436043462000A44914AA013301D1CC
:1055F00000F0FBFBFEF794F9002809D07F22037A24
:1056000093430A221343037243460360DB1743604C
:10561000029830F061FA002800D0E6E24846FDF733
:105620006BFE9749070014AA1AA8FEF77DFA041E1C
:1056300001D100F09FFC7F22037A00219343402296
:10564000134303729823EE68804601604160F85866
:105650002B69103601969E4201D900F0C5FC1A0054
:105660000026103A2A612260626016720826518173
:10567000D160007816721060019851609C317958A1
:10568000904201D900F0B0FC6268203B2B61002AF7
:1056900000D167E2981A0011508100200022636057
:1056A000187208205A81DA600978187206C3A0239C
:1056B000FE584DAB210014AA18009A46FEF78AF84E
:1056C0004D9A3178002A01D100F0F5FB7F20137A42
:1056D0001160834308200343137200235360A433F3
:1056E000F958019A2B699A4201D900F0ECFB6268E3
:1056F000103B2B61002A01D100F0FAFB981A00112F
:105700005081002000226360187208205A81DA60FC
:105710000978187206C3A823FB5821001E0014AA9A
:105720005046FEF757F84D9A3178002A00D1B8E379
:105730007F20137A116083430820034313720023F0
:105740005360AC33F858002C01D100F005FCEE6832
:105750002B6910360196019A934200D2A8E31900F2
:10576000626810392961002A00D1BBE38E1A361114
:1057700056810026002261600E7208264A81CA60A6
:1057800000780E724A60B0320860B858019A9142AF
:1057900000D28DE31900626820392961002A00D106
:1057A000A4E38E1A361156810026002261600E7223
:1057B00008264A81CA6000780E724A60B4320860D6
:1057C000B858019A914200D272E3190062683039E8
:1057D0002961002A00D187E38E1A361156810026EE
:1057E000002261600E7208264A81CA6000780E723B
:1057F0004A60B8320860B858019A914200D257E323
:105800006268403B2B61002A00D169E3991A0911B3
:10581000518100220021636019725A81DA60017897
:105820000820187206C3BC23FB5821001E0014AACE
:105830005046FDF7CFFF4D9A3178002A00D110E392
:105840007F20137A116083430820034313720023DF
:105850005360C033F8584346002B00D1ADE3EE68E7
:105860002B6910360196019A934200D200E309E0B9
:10587000C8030410CC030410D0030410D403041094
:10588000100B041042461900526810392961002A91
:1058900000D142E38C1A2411548142460024516005
:1058A00000220C7208244A81CA6000780C724A6097
:1058B000C4320860B858019A914200D2D8E24246F8
:1058C0001900526820392961002A00D122E38C1A7C
:1058D0002411548142460024516000220C72082495
:1058E0004A81CA6000780C724A60C8320860B858B1
:1058F000019A914200D2BBE2424619005268303907
:105900002961002A00D102E38C1A241154814246F5
:105910000024516000220C7208244A81CA60007879
:105920000C724A60CC320860B858019A914200D299
:105930009EE242465268403B2B61002A00D1E3E2DE
:10594000991A09115181424600245360002208210E
:105950001A725C81DC600278197214C3D023FB5880
:1059600041461E0014AA5046FDF734FF4D9A317887
:10597000002A00D1AAE27F20137A83430820034340
:105980001372D42312C2F858EE682B6910360196B0
:10599000019A934200D2A0E242461900526810399F
:1059A0002961002A00D1A6E28C1A241154814246B2
:1059B0000024516000220C7208244A81CA600078D9
:1059C0000C724A60D8320860B858019A914200D2ED
:1059D00083E242461900526820392961002A00D129
:1059E0008FE28C1A24115481424600245160002217
:1059F0000C7208244A81CA6000780C724A60DC325A
:105A00000860B858019A914200D266E24246526854
:105A1000303B2B61002A00D170E2991A09115181A3
:105A2000424600215360002219725A81DA600178DF
:105A30000820187206C3029830F04EF8002800D0F3
:105A4000BDE049465046FDF773F853461E7F5F7F21
:105A500035ACFF2E10D04146200014AAFDF7BAFE47
:105A6000359B002B08D07F211A7A1E608A430821BB
:105A70000A431A7200225A60FF2F10D041462000BC
:105A800014AAFDF7A7FE359B002B08D07F211A7AB8
:105A90001F608A4308210A431A7200225A60029842
:105AA00030F01AF8002800D073E020004946FDF7D6
:105AB00041F92B23E75C0133E65C0833E45CFF2FFC
:105AC00010D0414614AA10A8FDF784FE109B002BAD
:105AD00008D07F211A7A1F608A4308210A431A726C
