:020000041000EA
:1000000000B5324B212058609868022188439860DF
:10001000D860186158612E4B002199600221596106
:100020000121F02299502B49196001219960352056
:1000300000F044F80222904214D00621196600F024
:1000400034F8196E01211966002018661A6600F04E
:100050002CF8196E196E196E052000F02FF8012189
:100060000842F9D1002199601B49196000215960AB
:100070001A491B48016001219960EB211966A021F2
:10008000196600F012F800219960164914480160C1
:100090000121996001BC002800D000471248134993
:1000A000086003C880F30888084703B5996A0420EC
:1000B0000142FBD001200142F8D103BD02B5186610
:1000C0001866FFF7F2FF186E186E02BD00000240BE
:1000D000000000180000070000035F00212200005C
:1000E000F4000018222000A00001001008ED00E03C
:1000F00000000000000000000000000074B24E7A12
:1001000000200420F7010010C3010010C5010010F9
:10011000C1010010C1010010C1010010C101001097
:10012000C1010010C1010010C1010010C701001081
:10013000C1010010C1010010C9010010CB01001065
:10014000CD010010CD010010CD010010CD01001037
:10015000CD010010CD010010CD010010CD01001027
:10016000CD010010CD010010CD010010CD01001017
:10017000CD010010CD010010CD010010CD01001007
:10018000CD010010CD010010CD010010CD010010F7
:10019000CD010010CD010010CD010010CD010010E7
:1001A000CD010010CD010010CD010010CD010010D7
:1001B000CD010010CD010010CD010010CD010010C7
:1001C00000BE00BE00BE00BE00BE00BEEFF3058054
:1001D000103800BEF2EB8871E82D0B100C2E0B10BE
:1001E0003402001090A31AE700201F49086006C8D7
:1001F00081F3088810471D48006800282FD10DA4FE
:100200000ECC002902D000F012F8F9E71849194A7B
:10021000002000E001C19142FCD1174988471749ED
:1002200088471749884700BEFDE701C901C29A42C5
:10023000FBD370470C2E0B10C0000020AC27002011
:1002400004550B10000004200000042004550B107E
:10025000001004200010042000000000704709482E
:1002600026F014FC0047000008ED00E0000000D07C
:10027000B8270020D44A0120A552021029030010FB
:10028000D95302105756000006005250ABB36053CA
:1002900070DA041006005250861C030280DA041043
:1002A000060052505422A29D8CDA041005005250D0
:1002B000DE65F46804550B10F8B5C04606480749DA
:1002C000091A8B10C90FC91810B5491003D0044B77
:1002D000002B00D0984710BDAC270020AC27002091
:1002E00000000000054B10B5002B03D00449054861
:1002F00000E000BFFFF7E2FF10BDC04600000000B5
:100300004C32012050B3041010B528F0B9F8182071
:1003100027F094FC040000F0BBFE200000F0C2FEB9
:10032000200000F04BFF10BDA42010B5400027F0C6
:1003300085FC040000F068F8200000F0DDFB0448B4
:1003400028F072F8200000F07FF9002010BDC046B0
:1003500009030010F0B50700083704000E0083B051
:100360000760002923D008004AF0ECFB050001904B
:100370000F280DD8012808D1337823720021019B62
:1003800022686360D15403B0F0BD0028F6D008E0C5
:100390000022200001A940F023FE0700019B2060FD
:1003A000A3602A003100380027F042FCE6E701484C
:1003B00040F0FAFC50B3041070B5104D280040F026
:1003C000FBFA0F4C002801D1200070BD00230D481E
:1003D00063603AF08FFA200003F08EF9200003F0FA
:1003E00097FA200003F036FB200003F09FF820006E
:1003F00003F0D0F8280040F0FBFAE5E7FC2A0020E3
:100400002C990020D06A0020F0B50022C6460023B7
:1004100000B502604360854A002542618261002187
:1004200005236C22824F03730581817281730561FC
:10043000858387668354C02269339200C252C022EA
:1004400002331201C25201220433C2520300743338
:100450009A70A0230200C154764BA032D38013813E
:100460005381558095809381AE228552023281540A
:100470000200B032D38013815381558095809381DF
:10048000BE23C5525E33C55003001D33FF339D604C
:100490005D60942304005B00C154674B832218689D
:1004A000596823002933FF3392009860D96098611E
:1004B000D9611A82614B1800984640F07DFA604E6F
:1004C000002800D084E08A20400027F0B7FB01001C
:1004D000564A0025CA600A610020052364228870FC
:1004E0000B7188710D808D608D820F668B54C022D8
:1004F00061339200CA52C02202331201CA52012251
:100500000433CA520B006C339A7098230A00C85403
:10051000484B9832D38013815381938155809580C5
:10052000A6228D52023288540A00A832D380138149
:1005300053819381B623300055809580CD5203F0CE
:1005400017FC404640F038FA002858D18A20400075
:1005500027F074FB002500230522010083608570CD
:1005600085710271038031480F66C860086164209C
:100570008B820A54C020613280008852C02002322F
:10058000000188520120043288520A006C329070B7
:10059000982208008D54274A983043808380C28077
:1005A000028142818281A6200B5202300D54080044
:1005B000A830C280028142818281B622438083803A
:1005C00030008B5203F0D8FB200080BCB846F0BD51
:1005D0001C4875603AF08EF9300003F08DF8300059
:1005E00003F096F9300003F035FA300002F09EFF78
:1005F000300002F0CFFF404640F0FAF963E71148BF
:1006000075603AF077F9300003F076F8300003F0C7
:100610007FF9300003F01EFA300002F087FF30004F
:1006200002F0B8FF404640F0E3F98FE7FF7FFF7F1D
:1006300004200020FF7F0000F0D70410FC2A0020D7
:100640002C990020D06A0020F0B5DE46454657467A
:100650004E46E0B587B08046FFF7AEFE03F08AFB5A
:100660000500FFF7A9FE03F089FB0400FFF7A4FED5
:1006700003F07CFB002800D02DE194235B00434471
:100680009946CC4BA8349B468E235B0043449A4644
:10069000A8239C46AC4463460494C74C03932600AD
:1006A0004446C64BC64F059323680093636898463B
:1006B00000F02EFF884574D8884500D19BE02800C3
:1006C00001F064F8280001F029F9280002F07AF816
:1006D00094235B00E35C002B68D1AA33EB5A002B18
:1006E00000D0A9E04B469A68DB68110000920193A4
:1006F000194300D1C1E0B349019B486A9C4683423B
:1007000009D88B6A009A934201D2844503D094237E
:1007100001225B00E2540021504602F01FFA28003B
:1007200000F0FAFE0021504602F030FA1022039940
:10073000049827F07DFA280001F010FD804628007B
:1007400001F0F4F8010040463EF0C6FB380040F0EE
:1007500033F9002858D1300003F012FB380040F084
:100760002BF900282FD1300003F016FB3EF0A0FB40
:100770000121504602F00AFA01200021404228F0EF
:1007800033FB00F0C5FE002364228018594120602D
:100790006160236800936368984600F0B9FE88455D
:1007A0008AD93220002123F087FF7DE7AA23EA5A65
:1007B0004B461B8A9A4246D05B4649461A685B689C
:1007C0008A61CB61A7E70023059873603AF092F83D
:1007D000300002F091FF300003F09AF8300003F08F
:1007E00039F9300002F0A2FE300002F0D3FE3800EA
:1007F00040F0FEF8B7E7009B834200D85FE7322065
:10080000002123F059FF4FE70023059873603AF069
:1008100071F8300002F070FF300003F079F830001A
:1008200003F018F9300002F081FE300002F0B2FE51
:10083000380040F0DDF88EE75B4649461A685B6891
:100840008A60CB6067E74B469A69DB6911000092CA
:100850000193194328D05B49019B486A9C46834217
:1008600000D958E78B6A009A934202D2844500D19E
:1008700051E7554803F03AFD4DE723F0F3FF3222EC
:10088000002312184B4180210092019309068B42EC
:1008900004D301224D4B5242009201930099019AD8
:1008A0004B469960DA6026E723F0DCFF0023484AD4
:1008B00012184B4180210092019309068B4204D308
:1008C0000122424B5242009201930099019A4B46F9
:1008D0009961DA61BFE794235B0043449946354B45
:1008E0004C469B463B4E3C4F300040F065F800289C
:1008F00031D1300040F060F8002834D1380002F0E7
:1009000047FA280000F042FF942342465B00D35C84
:10091000002B2CD1AA33EB5A002B33D1A268E36809
:1009200011000092019319435AD02649019B486A4D
:100930009C468342D8D88B6A009A934201D2844560
:10094000D2D09423012241465B003000CA5440F0CB
:1009500033F80028CDD0300040F04AF8300040F0A5
:100960002BF80028CAD0300040F042F8C6E7AA238E
:10097000EA5A238A9A420BD05B461A685B68A261E6
:10098000E361B1E75B461A685B68A260E360ABE7CE
:10099000A069E16903000B4338D00A4B5A6A9142BF
:1009A000A2D89B6A834201D291429DD00B4803F0AA
:1009B0009DFC99E7F0D704102C990020D06A002004
:1009C000FC2A002000400540A58477E7FFFFFF7F59
:1009D00000093D00F42A0020F8930020CD66D5439D
:1009E00023F040FF3222002312184B418021009255
:1009F000019309068B4204D301220C4B5242009210
:100A00000193009A019BA260E3608EE723F02AFF26
:100A10000023074A8018594180231B06994202D3BC
:100A2000012002494042A061E161B6E7FFFFFF7F7C
:100A300000093D0070B503F06DFC2A4B040098429C
:100A400046D0294B98422AD0002801D0002040E00F
:100A5000264E30003FF0B0FF254D002821D1280060
:100A600003F088F9040000F091FE6623E25A443353
:100A70001100E35A194091420DD09A0528D45A0723
:100A800028D41A0728D4DA0728D49A0728D41B06B2
:100A9000DCD506201DE0A822A25CD207EDD50220FD
:100AA00017E014486C6039F025FF280002F024FE9E
:100AB000280002F02DFF280002F0CCFF280002F0F1
:100AC00035FD280002F066FD30003FF091FFC6E7DB
:100AD000012070BD0320FCE70720FAE70420F8E7B7
:100AE0000520F6E7A58477E7E1E437F7FC2A002044
:100AF0002C990020D06A0020F8B5A14F04003800DE
:100B00003FF05AFF9F4D002800D0FBE0280003F083
:100B100031F9060001F0DEFBFFF78CFF012800D160
:100B2000D9E000DCCEE0022800D11FE1C21E042A79
:100B300018D86C22B25C032800D11EE101250428DC
:100B400006D00025052803D0C31F59424B41DD1CA8
:100B5000954204D06C233000F55401F0EDFD2800DF
:100B60003EF096F931F04AFA082027F067F800269F
:100B7000854B1D34FF340100868003600022200075
:100B800002F09AF8082027F059F8804B0100036022
:100B900046600022200002F08FF8242027F04EF853
:100BA00005002422002127F03DF8794B29002B6015
:100BB0000022200002F080F8282027F03FF80500EE
:100BC0002822002127F02EF8724B29002B600022EA
:100BD000200002F071F80C2027F030F80023037297
:100BE0006D4B0100036046600022200002F064F8B3
:100BF000242027F023F805002422002127F012F8F2
:100C0000664B29002B600022200002F055F81020CE
:100C100027F014F805001022002127F003F8604B9C
:100C200029002B600022200002F046F8202027F047
:100C300005F805002022002126F0F4FF594B290079
:100C40002B600022200002F037F8542026F0F6FF37
:100C500005005422002126F0E5FF534B29002B60AC
:100C60000022200002F028F8302026F0E7FF0500DF
:100C70003022002126F0D6FF4C4B29002B600022A9
:100C8000200002F019F80C2026F0D8FF05000C22F5
:100C9000002126F0C7FF464B29002B6001222000CF
:100CA00002F00AF8142026F0C9FF050014220021E2
:100CB00026F0B8FF3F4B29002B600022200001F0F6
:100CC000FBFFF8BD002800D04CE76C23F55C280042
:100CD0003EF0DEF846E738003FF06EFE00282DD1EA
:100CE0002800012103F038F8FF203EF0D1F8324D02
:100CF00028003FF061FE00281CD100212F4802F09F
:100D000035F82FE700232E486B6039F0F3FD2800FB
:100D100002F0F2FC280002F0FBFD280002F09AFE2F
:100D2000280002F003FC280002F034FC38003FF0F9
:100D30005FFEEBE628003FF05BFEDEE70023204885
:100D40006B6039F0D7FD280002F0D6FC280002F0D5
:100D5000DFFD280002F07EFE280002F0E7FB2800FD
:100D600002F018FC38003FF043FEB9E7154825F0C3
:100D70008DFE00210300080098470225E8E6C046E2
:100D8000FC2A00202C990020A0D00410F4D00410DC
:100D900078D10410B8D70410A0D10410C8D1041021
:100DA000ECD104101CD7041040D7041094D70410C1
:100DB000A8D6041068D70410F42A0020F893002065
:100DC000D06A0020554200000123F0B5DE465746A8
:100DD0004E464546574A5B42E0B513600023FF2666
:100DE000FF2153609360D3601361534A534F1360E4
:100DF000534A544D1760544A544C1660544A55484F
:100E00001560554A09021460544A8FB01060544A64
:100E10001160544A54498C461160544A5449116037
:100E20008846544A544911608946FF21534A0904AF
:100E300011608A46524A53491160534A53490494F7
:100E40001160534A5349544C1160FF22120206921A
:100E500062460792424608924A468B46099252469B
:100E60000A925A46474905900B9148493820009309
:100E700023606360A36003950C910D920197029625
:100E800026F0DCFE05003822694638352060A56072
:100E900026F0CEFE414942486560FFF75BFA4149C2
:100EA0004148FFF757FA41494148FFF753FA414992
:100EB0004148FFF74FFA41494148FFF74BFA414992
:100EC0004148FFF747FA41494148FFF743FA414992
:100ED0004148FFF73FFA41494148FFF73BFA414992
:100EE0004148FFF737FA41494148FFF733FA414992
:100EF0004148FFF72FFA41494148FFF72BFA414992
:100F00004148FFF727FA41494148FFF723FA414991
:100F10004148FFF71FFA41494148FFF71BFA414991
:100F20004148FFF717FA0FB0F0BCBB46B246A946DE
:100F3000A046F0BDEC6D0020002B0020FFFFFF005D
:100F4000002C0020FF8000006C6D0020FFFF0000DF
:100F5000842C002080FF0000842D002024300020FD
:100F6000802B0020CC2E002000FF80007870002015
:100F700000FFFF004C2F00200080FF00F8700020D1
:100F8000042D00208000FF0078710020FF00FF008A
:100F90004C2E0020FF0080002C6B002084B3041036
:100FA0003450002088B30410A852002090B30410DD
:100FB000E854002054C204107067002098B3041055
:100FC000343500209CB3041074370020A0B3041003
:100FD000B4390020A4B30410F43B0020A8B30410DB
:100FE000343E0020ACB30410F4440020B0B304102D
:100FF00074400020B4B3041034470020B8B3041088
:10100000B44B0020BCB30410F44D0020C0B3041056
:10101000B4420020C4B3041074490020C8B30410C3
:10102000B4300020CCB30410F4320020F0B5070037
:10103000083704000E0083B00760002923D00800A1
:1010400049F080FD050001900F280DD8012808D136
:10105000337823720021019B22686360D15403B06E
:10106000F0BD0028F6D008E00022200001A93FF0E2
:10107000B7FF0700019B2060A3602A003100380001
:1010800026F0D6FDE6E701483FF08EFE50B304108F
:10109000002200230260436000238360C360036179
:1010A0007047C046F8B53E4E08300500300026F0C7
:1010B000C5FD04003200002126F0B4FD394B0026A6
:1010C0002360012323738A23E427DB00E218083B13
:1010D000E2500833E65421002800BF00022201F04C
:1010E000EBFD380026F0AAFD04003A00002126F0AE
:1010F00099FD2D4B20002360CA230A225B00C530D6
:10110000E250FF3037F09EFCDF239B00E654E318EB
:10111000210028005E601E6102229B60DB6001F0FE
:10112000CBFD102026F08AFD204B01000360FF2339
:101130000222037186600673280001F0BDFD0C20B9
:1011400026F07CFD04000C22002126F06BFD184BDC
:10115000210023602800022201F0AEFD142026F0B9
:101160006DFDED2604001422002126F05BFD114BDD
:10117000210023602800F600022201F09DFD3000CE
:1011800026F05CFD04003200002126F04BFD0A4BE6
:10119000280002222100236001F08EFDF8BDC04628
:1011A0006C04000000D4041080D60410CCD60410C7
:1011B000C8D0041020D10410F0D60410F8B50823CC
:1011C000CE464746994606006424002580B58144F2
:1011D00033687768984600F09BF98F420AD932202D
:1011E000002123F069FA33687768984600F090F997
:1011F0008F42F4D88F4201D18045F0D80221484671
:1012000001F0C4FC00F084F900196941306071609C
:10121000DEE7C0460123F0B5DE4657464E4645465A
:10122000574A5B42E0B513600023FF26FF2153605D
:101230009360D3601361534A534F1360534A544D24
:101240001760544A544C1660544A55481560554A24
:1012500009021460544A8FB01060544A1160544A15
:1012600054498C461160544A544911608846544A86
:10127000544911608946FF21534A090411608A4686
:10128000524A53491160534A534904941160534AD6
:101290005349544C1160FF22120206926246079293
:1012A000424608924A468B46099252460A925A464C
:1012B000474905900B9148493820009323606360AB
:1012C000A36003950C910D920197029626F0B6FC4F
:1012D00005003822694638352060A56026F0A8FC54
:1012E000414942486560FFF7A1FE41494148FFF787
:1012F0009DFE41494148FFF799FE41494148FFF7AA
:1013000095FE41494148FFF791FE41494148FFF7A9
:101310008DFE41494148FFF789FE41494148FFF7A9
:1013200085FE41494148FFF781FE41494148FFF7A9
:101330007DFE41494148FFF779FE41494148FFF7A9
:1013400075FE41494148FFF771FE41494148FFF7A9
:101350006DFE41494148FFF769FE41494148FFF7A9
:1013600065FE41494148FFF761FE41494148FFF7A9
:101370005DFE0FB0F0BCBB46B246A946A046F0BD2C
:10138000006E0020042B0020FFFFFF00042C002033
:10139000FF800000706D0020FFFF0000882C0020FF
:1013A00080FF0000882D002028300020842B0020A2
:1013B000D02E002000FF80007C70002000FFFF0086
:1013C000502F00200080FF00FC700020082D00201E
:1013D0008000FF007C710020FF00FF00502E0020E5
:1013E000FF008000386B002084B304104C500020B4
:1013F00088B30410C052002090B3041000550020A0
:1014000054C204108867002098B304104C350020A3
:101410009CB304108C370020A0B30410CC390020FA
:10142000A4B304100C3C0020A8B304104C3E0020D0
:10143000ACB304100C450020B0B304108C40002065
:10144000B4B304104C470020B8B30410CC4B0020B8
:10145000BCB304100C4E0020C0B30410CC420020DA
:10146000C4B304108C490020C8B30410CC30002051
:10147000CCB304100C3300207047C04610B50248AE
:1014800039F0F2F910BDC046D46A0020F0B507006B
:10149000083704000E0083B00760002923D008003D
:1014A00049F050FB050001900F280DD8012808D104
:1014B000337823720021019B22686360D15403B00A
:1014C000F0BD0028F6D008E00022200001A93FF07E
:1014D00087FD0700019B2060A3602A0031003800CF
:1014E00026F0A6FBE6E701483FF05EFC50B304108F
:1014F00010B523F0B7F9002905D0FA220023920095
:1015000025F05CFB10BDFA21890025F019FBF9E7F5
:1015100010B523F0A7F910BD70B50400210010220A
:101520009830A83126F084FB23006C339B78042B81
:1015300039D0A822A05CA53A0240022A00D19BE043
:10154000032A00D172E0012A00D185E00425082693
:1015500000228B490A700C210140082900D185E046
:101560000C2900D1B3E0042900D170E0854B0021A3
:101570001970A823E2543B3BE35C012B22D0022BE1
:1015800000D17EE06378002B04D1AE227E4BA352C3
:101590000232A352A378002B04D1B2227A4BA35279
:1015A0000232A35270BD6C23E35C5A1E012A30D96B
:1015B000042B2ED0A823E25CA823E2543B3BE35C3F
:1015C000012BDCD1A378002B04D1B2216E4B6352E6
:1015D000023163520C231340042B00D18AE0083BF4
:1015E00059424B416849DB038C466344AE21635248
:1015F00003231340012B7BD0023B5A425341624AE2
:10160000DB0394466344B022A352A8230022E25491
:10161000C8E7A823E05CA53B0340022B2BD0032B9B
:1016200000D18AE0012B17D001238FE7002B6FD167
:101630000122534B1A700C230340082B00D195E074
:101640000C2B00D190E0042B00D08FE7052503225E
:101650004C4B1A702A008CE70122494905250A7073
:101660000C2109260140082900D079E70422454BC6
:101670001A7032007DE7012306250A26022240491E
:1016800068E76378002B04D1AE213F4B63520231EF
:1016900063520C231340042B2ED0083B59424B417C
:1016A0003949DB038C466344B22163520323134060
:1016B000012B1BD0023B5A425341334ADB03944671
:1016C0006344B422A352A8230022E2546AE7022B07
:1016D00014D0032B00D049E72A4B1978002900D1F8
:1016E00045E70329C5D12E00320042E70023E8E791
:1016F000002388E7002379E70023D5E7214B1978F9
:10170000002900D133E70329A4D135002A0030E7AE
:101710001B49022B17D10A78002A10D0012A27D0A2
:101720000525092601220C230340082B9ED00C2BF3
:10173000E4D0042B00D019E789E7012310490425E0
:101740000826002206E7032BF9D10A78002AF6D0F2
:10175000012A11D006250A2602220C230340082B59
:1017600084D00C2BE5D1B7E70122FFE609267DE7FF
:10177000022206250A26D6E705250926EDE7C046FA
:10178000BE4A0120BD4A0120FF7F0000B822D023BD
:1017900030B584581B0659686268CB438A4300D130
:1017A0009BE07022825C002A00D1A6E0BC22815816
:1017B00008228A564968194202D021890A4352B246
:1017C000C02141584C681C4202D009890A4352B2D8
:1017D000C42141584C681C4202D009890A4352B2C4
:1017E000A8214254C822815800224C681C4201D0D2
:1017F00008228A5ECC2141584C681C4202D00989DB
:101800000A4312B2D02141584C681C4202D00989C7
:101810000A4312B2D42141584C681C4202D00989B3
:101820000A4312B2D82141584C681C4202D009899F
:101830000A4312B2DC2141584C681C4202D009898B
:101840000A4312B2E02141584C681C4202D0098977
:101850000A4312B2E42141584C681C4202D0098963
:101860000A4312B2E82141584C681C4202D009894F
:101870000A4312B2EC2141584C681C4202D009893B
:101880000A4312B2F02141584C681C4202D0098927
:101890000A4312B2F42141584C681C4202D0098913
:1018A0000A4312B2F82141584C681C4202D00989FF
:1018B0000A4312B2FC2141584C681C4202D00B89E9
:1018C0001A4312B2AA23C252AE22124B12498352B9
:1018D000023281500432835030BDBC228158002234
:1018E0004D681D4200D16BE77025455D002D00D08D
:1018F00063E709890A4352B262E7BC2108224158D2
:10190000A2564C681C4200D15AE709890A4352B2D8
:1019100056E7C046FF7F0000FF7FFF7F010010B544
:10192000A831043021F064F810BDC0466C23C35CBC
:101930001320042B02D8024A5B00985A7047C04615
:1019400090B40410A82330B5C15C993B02000B4051
:101950000A2B55D832499B00CB589F460323314868
:101960008370AA23D45AA83B61000B400121A5082B
:101970000D402B4365080D40AD002B43E5080D409D
:10198000ED002B4325090D402D012B4365090D402A
:101990006D012B43A5090D40AD012B43E5090D4019
:1019A000ED012B43250A0D402D022B43650A0D4006
:1019B0006D022B43A50A0D40AD022B43E50A0D40F5
:1019C000ED022B43250B0D40640B2D0321402B43CF
:1019D00049030B430188890B89030B430380AE2322
:1019E000D35A1B0AC370B023D35A1B0A0371B22304
:1019F000D35A1B0A4371B423D35A1B0A837130BDD7
:101A00000823ACE70023AAE70423A8E70623A6E7F8
:101A10000723A4E70523A2E70223A0E701239EE70B
:101A2000D0B3041064200020A82370B5C25C993B99
:101A3000010013400A2B51D8304A9B00D3589F46CF
:101A400003232F4801228370AA230225CC5A660063
:101A5000A308354013402B4365081540AD002B43C8
:101A6000E5081540ED002B43250915402D012B43BA
:101A7000650915406D012B43A5091540AD012B43A8
:101A8000E5091540ED012B43250A15402D022B4396
:101A9000650A15406D022B43A50A1540AD022B4384
:101AA000E50A1540ED022B43250B1540640B2D0371
:101AB00022402B43520313430380AE23CB5A1B0A0D
:101AC000C370B023CB5A1B0A0371B223CB5A1B0A33
:101AD0004371B423CB5A1B0A837170BD0823B0E74E
:101AE0000023AEE70423ACE70623AAE70723A8E711
:101AF0000523A6E70223A4E70123A2E7FCB3041011
:101B00001C200020A82370B5C55C0233C15AAA0866
:101B1000A93B6E081A401E407600920032431E0018
:101B20002E40ED081D40ED0032432A434D0A1D4072
:101B30002D012A430D0A1D406D012A438D0A1D40C7
:101B4000AD012A43CD0A1D40ED012A431D000400CA
:101B500020480D4082700A092D011A402A434D0980
:101B60001D406D002A430D0B1D40AD002A434D085A
:101B70001D406D012A438D081D40AD012A43CD084B
:101B80001D40ED012A43C270134DAE22AC46A25A4D
:101B90006244C280B022A55A104A551B0581B22565
:101BA000655B65444581B425655B521B8281227863
:101BB000002A06D0B533E35C0371B723E35C4371BD
:101BC00070BD8A09C9091A400B4052425B4202713A
:101BD000DBB2F4E7082000200080FFFFFF7F000059
:101BE000A82370B5C25C993B13400A2B00D967E06B
:101BF0003B4A9B00D3589F460323AA22855A394A61
:101C000011784C1C1470AE22825A374C120A627042
:101C1000B022825A8902120AA270B222825A120A91
:101C2000E270B422825AA808120A227101221040DE
:101C3000000103431000284040010343680810409E
:101C400080010343E8081040C001034363716B093E
:101C50001340280910405B000343A809104080008E
:101C60000343E8091040C0000343280A1040000164
:101C70000343680A104040010343A80A1040800152
:101C80000343E80A1040C0010343280B10406D0BCA
:101C90002A4000020343520213430B43E380002314
:101CA0002000124923810A78803B1A430A700A797E
:101CB0002330134308220B7125F0BAFF200070BDBA
:101CC0000F239AE7002398E7042396E7062394E777
:101CD000072392E7052390E702238EE701238CE791
:101CE00028B40410B94A012024200020FC2F002031
:101CF00070B5C04C050010220021200025F092FF95
:101D0000A8230122EB5C1A4234D19A0741D45A0726
:101D100050D41B075FD4AA230122EB5A1A4200D0E9
:101D20006EE09A0700D57DE05A0700D58CE01A07CF
:101D300000D59BE0DA0600D5AAE09A0600D5B9E006
:101D40005A0600D5C8E01A0600D5D7E0DA0500D556
:101D5000E6E09A0500D5F5E05A0500D504E11A053C
:101D600000D513E1DA0400D522E19B0400D531E16E
:101D7000200070BD7121695CDF2900D8E7E12031C6
:101D8000C9B20022072901D89B4A525C22709A07E7
:101D9000BDD57222AA5CDF2A00D82FE12032D2B250
:101DA0000021072A01D89449895C227811432170C7
:101DB0005A07AED57322AA5CDF2A00D828E1203268
:101DC000D2B20021072A01D88B49895C22781143BD
:101DD00021701B079FD57423EB5CDF2B00D821E11A
:101DE0002033DBB20022072B01D8834AD25C237850
:101DF0001A43AA2322700122EB5A1A4200D190E71B
:101E00007521695CDF2900D816E12031C9B20022B2
:101E1000072901D8784A525C21780A4322709A0730
:101E200000D481E77622AA5CDF2A00D80DE12032B7
:101E3000D2B20021072A01D86F49895C2278114368
:101E400021705A0700D472E77722AA5CDF2A00D8F3
:101E500005E12032D2B20021072A01D86649895C07
:101E60002278114321701A0700D463E77822AA5C14
:101E7000DF2A00D8FDE02032D2B20021072A01D8A3
:101E80005D49895C227811432170DA0600D454E759
:101E90007922AA5CDF2A00D8F5E02032D2B20021F4
:101EA000072A01D85449895C2278114321709A0687
:101EB00000D445E77A22AA5CDF2A00D8EDE0203280
:101EC000D2B20021072A01D84B49895C22781143FC
:101ED00021705A0600D436E77B22AA5CDF2A00D89C
:101EE000E5E02032D2B20021072A01D84249895CBC
:101EF0002278114321701A0600D427E77C22AA5CBD
:101F0000DF2A00D8DDE02032D2B20021072A01D832
:101F10003949895C227811432170DA0500D418E729
:101F20007D22AA5CDF2A00D8D5E02032D2B200217F
:101F3000072A01D83049895C2278114321709A051B
:101F400000D409E77E22AA5CDF2A00D8CDE0203247
:101F5000D2B20021072A01D82749895C227811438F
:101F600021705A0500D4FAE67F22AA5CDF2A00D845
:101F7000C5E02032D2B20021072A01D81E49895C6F
:101F80002278114321701A0500D4EBE68022AA5C66
:101F9000DF2A00D8BDE02032D2B20021072A01D8C2
:101FA0001549895C227811432170DA0400D4DCE6FB
:101FB0008122AA5CDF2A00D8B5E02032D2B200210B
:101FC000072A01D80C49895C2278114321709B04AF
:101FD00000D4CDE68223EB5CDF2B00D8ADE02033CC
:101FE000DBB20022072B01D8034AD25C23781A43C4
:101FF0002270BDE6A430002088B404100720D10868
:102000001040012282400131605C024362547EE64E
:102010000720D1081040012282400131605C024358
:10202000625476E60721DA08194001238B40013219
:10203000A15C0B43A3546EE60726C80831408A40D2
:102040000130215C0A4322546BE60720D10810407E
:10205000012282400131605C0243625464E6072041
:10206000D1081040012282400131605C0243625479
:102070005DE60720D1081040012282400131605CFA
:102080000243625456E60720D108104001228240E4
:102090000131605C024362544FE60720D1081040D2
:1020A000012282400131605C0243625448E607200D
:1020B000D1081040012282400131605C0243625429
:1020C00041E60720D1081040012282400131605CC6
:1020D000024362543AE60720D108104001228240B0
:1020E0000131605C0243625433E60720D10810409E
:1020F000012282400131605C024362542CE60720D9
:10210000D1081040012282400131605C02436254D8
:1021100025E60720D1081040012282400131605C91
:10212000024362541EE60720D1081040012282407B
:102130000131605C0243625417E60721DA08194056
:1021400001238B400132A15C0B43A35410E6072608
:10215000C80831408A4001302254D6E56C2310B5BE
:10216000C35C032B0CD006D8002B0FD0012B0AD157
:10217000FFF75AFC10BD042B05D1FFF731FDF9E73D
:10218000FFF7B6FDF6E7FFF7DDFBF3E7FFF7BAFC75
:10219000F0E7C046F0B5CE464746050080B5454B52
:1021A0008DB019002C22984625F042FDAB6A01AE95
:1021B0009946002330002F00AB622C0038F0F4FA6F
:1021C0002C3721003000013438F0F6FABC42F8D147
:1021D000300038F009FB814505D128000DB0C0BCA6
:1021E000B946B046F0BD344B28002B60334B344C1D
:1021F0006B60344B2100AB60334B0222EB60334BFE
:1022000017302B61324B0CAFAB823B23AB7525F003
:102210000FFD2800211D0222193025F009FD2100A3
:102220002800022208311B3025F002FD2100280081
:1022300002220C311D3025F0FBFC21002800022277
:1022400010311F3025F0F4FC210028000222143147
:10225000213025F0EDFC2100280002221831233026
:1022600025F0E6FC210028001C310222253025F053
:10227000DFFC33002A0013CA13C313CA13C313CAE3
:1022800013C303CA03C300236846B36238F08CFA51
:10229000340021006846013438F08EFABC42F8D18F
:1022A000684638F0A1FA2C22B0623100404625F091
:1022B000BFFC92E750730020010001000052515012
:1022C000ACB404104FE11DE0E2062C191B221E2EB7
:1022D0002D260000F0B5C64600B58CB06D46040052
:1022E000016E2800FFF756FF230028006C3326C834
:1022F00026C326C826C326C826C306C806C39022FE
:102300006823E54E52013000E2523EF055FBE34DAA
:10231000002800D0F6E10C2025F090FC6A7B1D2AF5
:1023200000D9EBE101239340027043600126B823FA
:102330000681E0500C2025F081FCAB7B1D2B00D8E2
:10234000D9E1FF230026037002230381BA334660DC
:10235000E0500C2025F072FCEA7B1D2A00D8C6E173
:10236000FF2303700023436004230381BC33E05048
:102370000C2025F063FC2A7C1D2A00D8B3E1FF2342
:1023800003700023436008230381BC33E0500C201A
:1023900025F054FC6A7C1D2A00D8A0E1FF230370BD
:1023A000002343600126C8230681E0500C2025F05D
:1023B00045FCAB7C1D2B00D88EE1FF23002603706B
:1023C00002230381CA334660E0500C2025F036FC1E
:1023D000EA7C1D2A00D87BE1FF23037000234360C1
:1023E00004230381CC33E0500C2025F027FC2A7D08
:1023F0001D2A00D868E1FF230370002343600823EF
:102400000381CC33E0500C2025F018FC6A7D1D2A96
:1024100000D855E1FF23037000234360102303819C
:10242000C833E0500C2025F009FCAA7D1D2A00D8F5
:1024300042E1FF2303700023436020230381BC3368
:10244000E0500C2025F0FAFBEA7D1D2A00D82FE190
:10245000FF2303700023436040230381A033E05037
:102460000C2025F0EBFB2A7E1D2A00D81CE1FF235F
:10247000037000234360802303816433E0500C2009
:1024800025F0DCFB6A7E1D2A00D809E1FF230370DA
:102490000023436080235B000381183BE0500C2045
:1024A00025F0CCFBAA7E1D2A00D8F0E0FF230370A4
:1024B0000023436080239B000381153BFF3BE050DA
:1024C0000C2025F0BBFBEA7E1D2A00D8DBE0FF23B1
:1024D0000370002343608023DB000381F023E0507E
:1024E0000C2025F0ABFB2A7F1D2A00D8C7E0FF2374
:1024F00003700023436080231B010381F423E05019
:102500000C2025F09BFB6A7F1D2A00D8B3E0FF2337
:1025100003700023436080235B010381F823E050B4
:102520000C2025F08BFBAA7F1D2A00D89FE0FF23FB
:102530000370002343608023FC259B0103816051CD
:10254000482025F07FFBBC22A258B8234260C0225D
:10255000A258E3588260C422A2580360C260C82215
:10256000A25880260261CC22A258D0274261D022F4
:10257000A25876008261D422A2583F06C261D822B6
:10258000A2580262DC22A2584262E022A258826271
:10259000E422A258C262E822A2580263EC22A258A6
:1025A0004263F022A2588263F422A258C263F82246
:1025B000A25802646259002542640122A05190464B
:1025C00001E0A3595B591878FF280BD021F0ACF932
:1025D000A35900225B590121187843468340BB620E
:1025E00021F07CF90435482DEBD12100601D022239
:1025F0008331FF3025F01CFB2100E01D02228531D4
:10260000FF3025F015FB2000210009300222873120
:10261000FF3025F00DFB200021000B300222893114
:10262000FF3025F005FB200021000D3002228B3108
:10263000FF3025F0FDFA200021000F3002228D31FD
:10264000FF3025F0F5FA20002100113002228F31F1
:10265000FF3025F0EDFA20002100133002229131E5
:10266000FF3025F0E5FA0CB080BCB846F0BD012380
:10267000027093405EE70123027093404AE7012312
:102680000270934036E701230270934022E7012352
:10269000027093400DE7C046FC2A00202C990020D0
:1026A000012302709340F4E6012302709340E1E6B7
:1026B000012302709340CEE6012302709340BBE6F3
:1026C000012302709340A8E601230270934095E62F
:1026D00001230270934082E69E40037070E601235E
:1026E000027093405DE60123027093404AE60123A5
:1026F0000270934037E69E40037025E6FF23037087
:10270000002312E600230B486B6038F0F3F8280032
:1027100000F0F2FF280001F0FBF8280001F09AF920
:10272000280000F003FF280000F034FF30003EF0E6
:102730005FF9F0E5D46A0020F0B505002C0099B0EF
:10274000016E6C3402A8FFF725FD2C22210002A89F
:1027500047F07AFF002801D119B0F0BD0DAF21007C
:102760003B0015C915C315C915C315C915C305C93E
:1027700005C3002301A8BB623C0038F015F818AE71
:10278000210001A8013438F017F8A642F8D101A8B9
:1027900038F02AF82C22B8623900074825F048FAA8
:1027A000286E064A03685B68934203D1044838F0F8
:1027B0005BF8D1E79847CFE7507300207D140010F5
:1027C000D46A0020662370B5C25A44331100C35A3C
:1027D00019408A4232D06822825A002411001940DE
:1027E0008A4201D0200070BD8625A8216D00415C81
:1027F000455D8D4252D087256D00455D8D4249D0A3
:1028000088256D00455D8D4240D089256D00455D70
:102810008D4237D0002CE5D093430021A82281546B
:10282000023283520C2C06D83249A2008A589746AD
:102830006E230322C254FFF77FFFD3E78224A8212F
:102840006400055D415C00248D4202D10624FF3402
:10285000045D83256D00455D8D4202D10824FF345F
:10286000045D84256D00455D8D4202D10A24FF344C
:10287000045D85256D00455D8D42CBD10C21FF3176
:10288000445CC7E71421FF31445CC3E71224FF34E2
:10289000045DBAE71024FF34045DB1E70E24FF3471
:1028A000045DA8E76E230422C254C4E76D2300220E
:1028B000C254C0E76D230122C254BCE76D2302223B
:1028C000C254B8E7802252011343AA228352B2E7CE
:1028D0006E230022C254AEE76E230122C254AAE73F
:1028E0006E230222C254A6E770220121835C4B4072
:1028F0008354A0E754B404100123F0B5DE465746D4
:102900004E464546574A5B42E0B513600023FF261A
:10291000FF2153609360D3601361534A534F136098
:10292000534A544D1760544A544C1660544A554803
:102930001560554A09021460544A8FB01060544A19
:102940001160544A54498C461160544A54491160EC
:102950008846544A544911608946FF21534A090464
:1029600011608A46524A53491160534A53490494AC
:102970001160534A5349544C1160FF2212020692CF
:1029800062460792424608924A468B460992524650
:102990000A925A46474905900B91484938200093BE
:1029A00023606360A36003950C910D9201970296DA
:1029B00025F044F905003822694638352060A560C5
:1029C00025F036F9414942486560FEF75FFD41490F
:1029D0004148FEF75BFD41494148FEF757FD41493B
:1029E0004148FEF753FD41494148FEF74FFD41493B
:1029F0004148FEF74BFD41494148FEF747FD41493B
:102A00004148FEF743FD41494148FEF73FFD41493A
:102A10004148FEF73BFD41494148FEF737FD41493A
:102A20004148FEF733FD41494148FEF72FFD41493A
:102A30004148FEF72BFD41494148FEF727FD41493A
:102A40004148FEF723FD41494148FEF71FFD41493A
:102A50004148FEF71BFD0FB0F0BCBB46B246A9468D
:102A6000A046F0BD146E0020082B0020FFFFFF00E1
:102A7000082C0020FF800000746D0020FFFF000084
:102A80008C2C002080FF00008C2D00202C3000209A
:102A9000882B0020D42E002000FF800080700020B2
:102AA00000FFFF00542F00200080FF000071002075
:102AB0000C2D00208000FF0080710020FF00FF002F
:102AC000542E0020FF008000446B002084B30410CB
:102AD0006450002088B30410D852002090B3041032
:102AE0001855002054C20410A067002098B30410A9
:102AF000643500209CB30410A4370020A0B3041058
:102B0000E4390020A4B30410243C0020A8B304102E
:102B1000643E0020ACB3041024450020B0B3041080
:102B2000A4400020B4B3041064470020B8B30410DC
:102B3000E44B0020BCB30410244E0020C0B30410AA
:102B4000E4420020C4B30410A4490020C8B3041018
:102B5000E4300020CCB3041024330020F8B54568DD
:102B6000046807000E00AC4206D023681A79B2420E
:102B700003D00434A542F8D1F8BD186804340368C2
:102B8000DB6898477D68A542EFD1F5E7F8B5456861
:102B9000046807000E00AC4206D023681A79B242DE
:102BA00003D00434A542F8D1F8BD18680434036892
:102BB0009B6898477D68A542EFD1F5E7F8B5454693
:102BC000DE4657464E460368E0B546689346374AA8
:102BD0009846F31A05008A469B10934262D0B0458E
:102BE00056D01A009A18934247D8534641465C1A69
:102BF000002300279946002A4CD15B461B683B51B5
:102C0000002C2ADC534604343C19F61A002E0DDC45
:102C10004346A419002B19D14B462F606C60AB6062
:102C2000F0BCBB46B246A946A046F8BD2000320023
:102C3000514624F0FDFF4346A419002BECD005E0DB
:102C400020003200514624F0F3FFA4194346A9683E
:102C5000C91A404624F0FEFFDEE722004146380054
:102C600047F014FD534604343C19F61A002EE7DCF5
:102C70004346A968A419C91AEBE7534642469C1A71
:102C80000B4B9946484624F0D9FF07008144B4E72E
:102C90000122A7E780239B059A4200D3034A9300B1
:102CA0009946EFE703483EF097F8C046FFFFFF1F45
:102CB000FCFFFF7FCCB40410F0B50B68050083B0B7
:102CC00008001B680C0017009847002811D0082046
:102CD00024F0B4FF0600236801905B682000984749
:102CE0006968AB6834603771994208D040C1696047
:102CF00003E00421200024F0ADFF03B0F0BD280064
:102D000001AAFFF75BFFF8E7F0B5070008370400FA
:102D10000E0083B00760002923D0080047F012FF9F
:102D2000050001900F280DD8012808D133782372AF
:102D30000021019B22686360D15403B0F0BD0028DC
:102D4000F6D008E00022200001A93EF049F9070072
:102D5000019B2060A3602A003100380024F068FF46
:102D6000E6E701483EF020F850B3041070B50500C6
:102D70000C1E01D02C7070BD042024F05FFF0600F3
:102D8000024B036001F0E8FA6E60F3E7A0CB041099
:102D900010B5406803685B68984710BD10B508001F
:102DA000FFF7CAFC10BDC04684B030B5194D95B0D0
:102DB000280019911A921B933DF0FEFD164C002835
:102DC0000FD11CA95022684624F032FF2000199927
:102DD0001A9A1B9B00F054FF15B030BC08BC04B01D
:102DE000184700230D48636037F084FD200000F091
:102DF00083FC200000F08CFD200000F02BFE200062
:102E000000F094FB200000F0C5FB28003DF0F0FD31
:102E1000D7E7C046FC2A00202C990020D86A002061
:102E200084B070B5DC4E9EB030002391249225937F
:102E30003DF0C2FD23ACD94D002800D07CE17822C2
:102E400026A9684624F0F4FE280023996268A36846
:102E500000F078FC30003DF0AFFD002800D083E1A9
:102E6000280000F087FFB823C25863781D2B00D9D3
:102E7000B5E0012199401370BC235160C258A3787A
:102E80001D2B00D9B5E0012199401370C02351607A
:102E9000C258E3781D2B00D9B5E001219940137089
:102EA000C4235160C25823791D2B00D9B5E00121FC
:102EB00099401370C8235160C25863791D2B00D903
:102EC000B5E0012199401370CC235160C258A37919
:102ED0001D2B00D9B5E0012199401370D02351601A
:102EE000C258E3791D2B00D9B5E001219940137038
:102EF000D4235160C258237A1D2B00D9B5E001219B
:102F000099401370D8235160C258637A1D2B00D9A1
:102F1000B5E0012199401370DC235160C258A37AB7
:102F20001D2B00D9B5E0012199401370E0235160B9
:102F3000C258E37A1D2B00D9B5E0012199401370E6
:102F4000E4235160C258237B1D2B00D9B5E0012139
:102F500099401370E8235160C258637B1D2B00D940
:102F6000B5E0012199401370EC235160C258A37B56
:102F70001D2B00D9B5E0012199401370F023516059
:102F8000C258E37B1D2B00D9B5E001219940137095
:102F9000F4235160C258237C1D2B00D9B5E00121D8
:102FA00099401370F8235160C258637C1D2B00D9DF
:102FB000B5E0012199401370FC235160C258A37CF5
:102FC0001D2B00D9B5E0012199407548516013705F
:102FD000FEF754FA1EB070BC08BC04B01847FF23BB
:102FE00000211370BC235160C258A3781D2B00D858
:102FF00049E7FF2300211370C0235160C258E378D2
:103000001D2B00D849E7FF2300211370C423516012
:10301000C25823791D2B00D849E7FF2300211370E4
:10302000C8235160C25863791D2B00D849E7FF239C
:1030300000211370CC235160C258A3791D2B00D8F6
:1030400049E7FF2300211370D0235160C258E37970
:103050001D2B00D849E7FF2300211370D4235160B2
:10306000C258237A1D2B00D849E7FF230021137093
:10307000D8235160C258637A1D2B00D849E7FF233B
:1030800000211370DC235160C258A37A1D2B00D895
:1030900049E7FF2300211370E0235160C258E37A0F
:1030A0001D2B00D849E7FF2300211370E423516052
:1030B000C258237B1D2B00D849E7FF230021137042
:1030C000E8235160C258637B1D2B00D849E7FF23DA
:1030D00000211370EC235160C258A37B1D2B00D834
:1030E00049E7FF2300211370F0235160C258E37BAE
:1030F0001D2B00D849E7FF2300211370F4235160F2
:10310000C258237C1D2B00D849E7FF2300211370F0
:10311000F8235160C258637C1D2B00D849E7FF2378
:1031200000211370FC235160C258A37C1D2B00D8D2
:1031300049E70021FF2348E700231A486B6037F076
:10314000D9FB280000F0D8FA280000F0E1FB2800A5
:1031500000F080FC280000F0E9F9280000F01AFADD
:1031600030003DF045FC6AE600230E486B6037F006
:10317000C1FB280000F0C0FA280000F0C9FB2800BD
:1031800000F068FC280000F0D1F9280000F002FAF5
:1031900030003DF02DFC63E6FC2A00202C99002035
:1031A00078200020D86A002084B070B5144D0591B5
:1031B0002800069207933DF0FFFB124C002807D130
:1031C000200005A900F0C2FD70BC08BC04B018477F
:1031D00000230D48636037F08DFB200000F08CFA6F
:1031E000200000F095FB200000F034FC200000F0EF
:1031F0009DF9200000F0CEF928003DF0F9FBDFE753
:10320000FC2A00202C990020D86A002070B5124EAC
:103210000C0030003DF0D0FB104D002804D12800F8
:10322000210000F0D9FB70BD00230D486B6037F022
:1032300061FB280000F060FA280000F069FB28001C
:1032400000F008FC280000F071F9280000F0A2F955
:1032500030003DF0CDFBE2E7FC2A00202C99002055
:10326000D86A00200123F0B5DE4657464E46454653
:10327000574A5B42E0B513600023FF26FF215360ED
:103280009360D3601361534A534F1360534A544DB4
:103290001760544A544C1660544A55481560554AB4
:1032A00009021460544A8FB01060544A1160544AA5
:1032B00054498C461160544A544911608846544A16
:1032C000544911608946FF21534A090411608A4616
:1032D000524A53491160534A534904941160534A66
:1032E0005349544C1160FF22120206926246079223
:1032F000424608924A468B46099252460A925A46DC
:10330000474905900B91484938200093236063603A
:10331000A36003950C910D920197029624F08EFC08
:1033200005003822694638352060A56024F080FC0D
:10333000414942486560FFF7E7FC41494148FFF7D2
:10334000E3FC41494148FFF7DFFC41494148FFF7B1
:10335000DBFC41494148FFF7D7FC41494148FFF7B1
:10336000D3FC41494148FFF7CFFC41494148FFF7B1
:10337000CBFC41494148FFF7C7FC41494148FFF7B1
:10338000C3FC41494148FFF7BFFC41494148FFF7B1
:10339000BBFC41494148FFF7B7FC41494148FFF7B1
:1033A000B3FC41494148FFF7AFFC41494148FFF7B1
:1033B000ABFC41494148FFF7A7FC41494148FFF7B1
:1033C000A3FC0FB0F0BCBB46B246A946A046F0BD78
:1033D000286E00200C2B0020FFFFFF000C2C00208B
:1033E000FF800000786D0020FFFF0000902C00207F
:1033F00080FF0000902D0020303000208C2B00201A
:10340000D82E002000FF80008470002000FFFF0005
:10341000582F00200080FF0004710020102D002094
:103420008000FF0084710020FF00FF00582E002064
:10343000FF008000506B002084B304107C500020FB
:1034400088B30410F052002090B3041030550020CF
:1034500054C20410B867002098B304107C350020D3
:103460009CB30410BC370020A0B30410FC3900202A
:10347000A4B304103C3C0020A8B304107C3E002000
:10348000ACB304103C450020B0B30410BC40002095
:10349000B4B304107C470020B8B30410FC4B0020E8
:1034A000BCB304103C4E0020C0B30410FC4200200A
:1034B000C4B30410BC490020C8B30410FC30002081
:1034C000CCB304103C330020F0B5070008370400EB
:1034D0000E0083B00760002923D0080047F032FBBC
:1034E000050001900F280DD8012808D133782372E8
:1034F0000021019B22686360D15403B0F0BD002815
:10350000F6D008E00022200001A93DF069FD070087
:10351000019B2060A3602A003100380024F088FB62
:10352000E6E701483DF040FC50B30410F0B5144B01
:103530000500C61883B01349134A300024F078FB05
:103540000022124B01A8EF58EA5037F02DF9CA2398
:103550001B019C4634006544210001A8013437F06A
:103560002BF9AC42F8D101A837F03EF9874205D0DB
:10357000802230000649D20024F05AFB03B0F0BD8F
:103580009C080000508B0020040400009C0C0000EC
:10359000F0B4041070B50500D3220400E535FF3502
:1035A000D2002800074924F043FB074A074BA258E2
:1035B0009A4205D0D32200212800D20024F032FB09
:1035C00070BDC0465083002078080000EFBEADDE1D
:1035D0003D4BF0B5C3603D4B002503613C4B0122E0
:1035E00043613C4BADB083613B4B0400C3613B4B3B
:1035F00003842223C5543A4BC562436201235B42D4
:103600000385384B03633423C25408338363393B47
:1036100083873B33C554344B01AA0564110018005D
:103620009C46C8C8C8C1C0C8C0C121004431C1CA75
:10363000C1C141CA41C1634611001433C1CBC1C1EC
:1036400041CB41C12300583343CA43C303CA03C318
:103650002000062225490C346C3024F0E9FA84223B
:1036600021000BA824F0E4FA842221000BA846F0E4
:10367000EBFF002801D12DB0F0BD2C216A4680233C
:1036800052186846D55037F08FF80BAD2CAE290094
:103690006846013537F090F8B542F8D1684637F002
:1036A000A3F86A462C2180235218D0500BA98422FB
:1036B0000F4824F0BDFA0F4837F0D6F884222000D6
:1036C0000BA924F0B5FAD6E700FFFFFFFF0C0E05AB
:1036D00004FF020301001DFFFFFFFF0003030000C2
:1036E0004C1D0000801A0600F0B80410E8B4041065
:1036F00050770020DC6A0020F0B504000C3406008E
:1037000083B084220E49200024F092FA8C230022F8
:10371000F7583500F25001A837F046F890352100EF
:1037200001A8013437F048F8AC42F8D101A837F0CD
:103730005BF8874202D03000FFF74AFF03B0F0BDCC
:103740005077002084B070B50C3082B0050007912E
:1037500008920100842207A8099346F075FF00280B
:1037600004D102B070BC08BC04B018471C206946E4
:1037700080230022091801A8CA5037F015F807ACB9
:1037800028AE210001A8013437F016F8B442F8D170
:1037900001A837F029F86A461C2180235218D0501E
:1037A00007A98422054824F043FA054837F05CF85D
:1037B0008422280007A924F03BFAD2E750770020A2
:1037C000DC6A002001238A225B424349520070B523
:1037D000835004328150414904328150FF2100243A
:1037E000043249428152023283544A33FF33C45077
:1037F000243BC4503A4B063283503F31043281504F
:1038000038490432815038490432815037490432F2
:103810008150374904328150364904328150FF21AA
:1038200004328154344908328150043284540232C3
:103830008452324902328450043281503049043279
:103840008150FF21043284500904043281502D49F3
:10385000043281500432845004328350BA235B0016
:10386000C450703A0433C25000220433C4500433AD
:10387000C4520233C2541530FF3005009EB001001F
:10388000742201A824F0D4F97422290001A846F07A
:10389000DBFE002801D11EB070BD68461D9436F0D5
:1038A00083FF01AC1EAE21006846013436F084FF70
:1038B000A642F8D1684636F097FF01A974221D9000
:1038C000114824F0B5F9114836F0CEFF74222800D3
:1038D00001A924F0ADF9DEE7FFFF0FFFFF010101B1
:1038E000801A0600FF01030B1C080A1A1B0F0D07A4
:1038F00009060100FFFF0500FF6401000000FFFF53
:10390000FFFF00000201FFFF507F0020DC6A002063
:10391000F0B504001534FF34060083B0742210495A
:10392000200024F085F9C22300225B003500F758FF
:1039300001A8F25036F038FF8935FF35210001A883
:10394000013436F039FFAC42F8D101A836F04CFF13
:10395000874202D03000FFF735FF03B0F0BDC0460C
:10396000507F002084B070B5153082B0FF30050064
:10397000079108920100742207A8099346F064FE9B
:10398000002804D102B070BC08BC04B01847002362
:1039900001A8239336F008FF07AC24AE210001A84C
:1039A000013436F009FFB442F8D101A836F01CFF0B
:1039B00007A974222390064824F03AF9054836F006
:1039C00053FF7422280007A924F032F9DAE7C04631
:1039D000507F0020DC6A0020F0B5194B0500C718A5
:1039E00083B03800174A0C0046F02EFE002801D1A3
:1039F00003B0F0BD2100134A380024F019F9002269
:103A0000114B01A8EA5036F0CFFECA233C001B013F
:103A1000EE18210001A8013436F0CEFEB442F8D1F0
:103A200001A836F0E1FE084C3900064A2851074843
:103A300024F0FEF8064836F017FF00232B51D7E795
:103A40009C080000040400009C0C0000508B002027
:103A5000DC6A0020F0B5CE46474680B50700494BEA
:103A60008937FF370500190099B05C223800984665
:103A700024F0DEF8F0235B00EA582E009146002285
:103A800001A8EA5036F090FE3C00E536FF362100F2
:103A900001A8013436F090FEB442F8D101A836F006
:103AA000A3FE814504D119B0C0BCB946B046F0BDF3
:103AB0000123C6225B4234495200AB500432A95064
:103AC000CA21032000248C3AFF3A49006A54043189
:103AD000685004310238685004316C5001300431B0
:103AE00068500431063068500431013068500431A8
:103AF0000538685004316A50B432AE39FF32FF39AC
:103B0000A950C9180432A95004320531A950C91866
:103B10000432A9500432AB500432AB500432AB50E3
:103B20000432AB500432AB500432AB50813A39000E
:103B3000FF3A01A824F07CF85C22390001A846F085
:103B400083FD0028AFD06846179436F02DFE01ACF7
:103B500018AD21006846013436F02EFEA542F8D19A
:103B6000684636F041FE01A95C221790404624F0D9
:103B70005FF8064836F078FE5C22380001A924F090
:103B800057F890E75079002000000132DC6A0020ED
:103B90000123C6225B423749520070B5835004327C
:103BA0008150CA2103248C3AFF3A4900425404311F
:103BB00044500431023C4450002402250431445056
:103BC0000431455004310635455004310135455026
:103BD0000431053D455004314250B432AE39FF3214
:103BE000FF398150C91804328150043205318150A7
:103BF000C918043281500432835004328350043295
:103C0000835004328350043283500432835089300D
:103C1000FF30050098B0813A0100FF3A01A824F076
:103C200007F85C22290001A846F00EFD002801D10A
:103C300018B070BD6846179436F0B6FD01AC18AEEA
:103C400021006846013436F0B7FDB442F8D1684629
:103C500036F0CAFD01A95C221790074823F0E8FF5F
:103C6000064836F001FE5C22280001A923F0E0FF9F
:103C7000DEE7C0460000013250790020DC6A0020F7
:103C800084B070B5893082B0FF300500079108928A
:103C900001005C2207A8099346F0D6FC002804D155
:103CA00002B070BC08BC04B01847002301A81D93E3
:103CB00036F07AFD07AC1EAE210001A8013436F0C3
:103CC0007BFDB442F8D101A836F08EFD07A95C2235
:103CD0001D90064823F0ACFF054836F0C5FD5C2278
:103CE000280007A923F0A4FFDAE7C0465079002096
:103CF000DC6A0020074B084A010010B5C250D322ED
:103D0000E531FF31D200054823F092FF044836F038
:103D1000ABFD10BD78080000EFBEADDE5083002083
:103D2000DC6A0020E530FF307047C04610B505481A
:103D300036F014FEFA2200200349D20021F048FA9E
:103D400010BDC046DC6A00200020042010B584228B
:103D5000903023F06DFF10BD030010B50C330170DF
:103D600084221900903023F063FF10BD0078704763
:103D70004160704740687047816070478068704755
:103D8000044B10B59C4620220021604423F04AFFDA
:103D900010BDC0467C080000014B9C466044704743
:103DA0007C080000F0B5C646864B80219846050089
:103DB00000B50901AAB09E22414423F039FF6A7878
:103DC0002B7812021A43AB78EF781B0413433F069B
:103DD0001F4300232E0002A82B706B70AB70EB709A
:103DE0002C0036F0E1FC9E36210002A8013436F0AA
:103DF000E3FCB442F8D102A836F0F6FC874204D1C5
:103E000028002AB080BCB846F0BD02234B222B719B
:103E1000AB71013BEB7154332B722D3BAB722B001A
:103E200000246A7100221E339C70DC701C715C716E
:103E30006C72EC722C736C73AC73EC732C746C74CA
:103E4000AC74EC742C756C75AC75EC752C766C766A
:103E5000AC76EC762C776C77AC77EC779C71DC7178
:103E60001C725C729C72DC721C735C739C73DC73DE
:103E700010331C705C709C70DC701C715C719C71E8
:103E8000DC711C725C729C72DC721C735C739C73C0
:103E9000DC7310331C705C709C70DC701C715C7186
:103EA0009C71DC711C745C749C74DC741C755C7596
:103EB0009C75DC7508331C705C709C70DC7004337E
:103EC0001C705C709C70DC701C735C739C73DC7386
:103ED0001C745C749C74DC741C755C759C75DC755E
:103EE00018331C705C709C70DC701C715C719C7170
:103EF000DC711C725C729C72DC721C735C739C7350
:103F0000DC735C7410339C70DC701C701C715C7111
:103F10009C71DC711C725C729C72DC721A735C7333
:103F20009C73DC738223EC542B0082335C709C7096
:103F3000DC708623EC542B0086335C709C70DC7044
:103F40008A23EC542B008A335C709C70DC709623BF
:103F5000EC542B0096335C709C70DC709A23EC540C
:103F60002B009A335C709C70DC708E23EC542B0019
:103F70008E335C709C70DC709223EC542B009E227C
:103F80009233290002A85C709C70DC70A62623F096
:103F90004FFE01A8029436F007FC02AC6E442100EB
:103FA00001A8013436F008FCA642F8D101A836F089
:103FB0001BFC0290802000019E22404402A923F0B5
:103FC00037FE1DE75073002030B5D3B0010002A8C2
:103FD000FFF7E8FE154C9E22210002A846F034FBB4
:103FE000002801D153B030BD21009E222AA823F021
:103FF0001FFE0023A32501A82A9336F0D5FB6D00F0
:104000002AAC6D44210001A8013436F0D5FBAC4246
:10401000F8D101A836F0E8FB9E222A902AA904488C
:1040200023F006FE034836F01FFCDBE79872002001
:10403000507B0020DC6A00200123F0B5DE465746A5
:104040004E464546574A5B42E0B513600023FF26C3
:10405000FF2153609360D3601361534A534F136041
:10406000534A544D1760544A544C1660544A5548AC
:104070001560554A09021460544A8FB01060544AC2
:104080001160544A54498C461160544A5449116095
:104090008846544A544911608946FF21534A09040D
:1040A00011608A46524A53491160534A5349049455
:1040B0001160534A5349544C1160FF221202069278
:1040C00062460792424608924A468B4609925246F9
:1040D0000A925A46474905900B9148493820009367
:1040E00023606360A36003950C910D920197029683
:1040F00023F0A4FD05003822694638352060A5600C
:1041000023F096FD414942486560FFF7DDF94149DA
:104110004148FFF7D9F941494148FFF7D5F94149ED
:104120004148FFF7D1F941494148FFF7CDF94149ED
:104130004148FFF7C9F941494148FFF7C5F94149ED
:104140004148FFF7C1F941494148FFF7BDF94149ED
:104150004148FFF7B9F941494148FFF7B5F94149ED
:104160004148FFF7B1F941494148FFF7ADF94149ED
:104170004148FFF7A9F941494148FFF7A5F94149ED
:104180004148FFF7A1F941494148FFF79DF94149ED
:104190004148FFF799F90FB0F0BCBB46B246A946BB
:1041A000A046F0BD3C6E0020102B0020FFFFFF005A
:1041B000102C0020FF8000007C6D0020FFFF00001D
:1041C000942C002080FF0000942D0020343000202B
:1041D000902B0020DC2E002000FF80008870002043
:1041E00000FFFF005C2F00200080FF00087100200E
:1041F000142D00208000FF0088710020FF00FF00C8
:104200005C2E0020FF0080005C6B002084B3041053
:104210009450002088B304100853002090B3041079
:104220004855002054C20410D067002098B30410F1
:10423000943500209CB30410D4370020A0B30410A0
:10424000143A0020A4B30410543C0020A8B3041076
:10425000943E0020ACB3041054450020B0B30410C9
:10426000D4400020B4B3041094470020B8B3041025
:10427000144C0020BCB30410544E0020C0B30410F2
:1042800014430020C4B30410D4490020C8B3041060
:1042900014310020CCB3041054330020802080035C
:1042A0007047C0460148024BC01A704704550B10B6
:1042B00000000010024B0348C01A034BC01870479F
:1042C0000000042000200420D44A01000148024BD1
:1042D000C01A704700000420D44A012000B58BB0FA
:1042E000684645F049F907980BB000BD10B50400C9
:1042F00001200649404224F0E3F8054B002200214A
:1043000000201C6220F064FF30BFFDE7FFFFFF0FBD
:104310000080054010B520F0A9FF002811D00A4BFD
:10432000186A0A4B984208D0094B984205D0094BAD
:10433000C3185A4253415B4218400022024B1A6292
:1043400010BD0020FCE7C04600800540CD66D54387
:10435000A58477E71F1BC80810B539F0B7FD10BD5D
:10436000054B10B51A0018680832904203D09968BE
:10437000013123F06FFC10BDA093002010B539F07F
:10438000F1FD0A4B0CCB110019430AD00849486AC9
:10439000834206D8896A914204D3064B1868FFF716
:1043A000A5FF10BD8342F8D1FBE7C046B827002027
:1043B00000400540802C0020026810B5002A16D06D
:1043C00044686068A3681030834213D35068103B80
:1043D000A36000280CD01C1A2411448153600022D1
:1043E00019605A81DA60C9170A321A72596010BD11
:1043F0001360F3E701232374F9E7C046F0B545469F
:104400005746DE464E46E0B5436807000D00984625
:1044100085B09B0700D081E043469B085C00E41810
:104420000368280043445A1E1278023B3D3A514229
:104430004A411B78A41A3D3B5A425341E41A0022D8
:1044400021003CF0E5FE4346002B33D00123994682
:104450000133029301339B46344BBA469C46434694
:104460000393634604260193534600961968009B04
:104470000022CB18043B1B783D2B4BD00198C35C2A
:104480009B044846085C3D2803D0019E305C000335
:104490001B180298085C3D2803D0019E305C800107
:1044A0001B185846095C3D2902D00198415C5B18F5
:1044B000944206D805B0F0BCBB46B246A946A04619
:1044C000F0BD28681E0C511C86548C4224D92E68DD
:1044D000901CB4461E0AB04666464746775484424E
:1044E00021D9296803320B54039B00998B42E1D9EF
:1044F0000B000433009304239C46029BE3440433E3
:10450000029353461968009BE144CB18043B1B7887
:104510003D2BB3D10023B4E70A00E5E700230A6886
:104520004B601370C6E70200DEE7C04690CF041070
:10453000F0B50700083704000E0083B007600029BB
:1045400023D0080046F0FEFA050001900F280DD890
:10455000012808D1337823720021019B226863600F
:10456000D15403B0F0BD0028F6D008E000222000AE
:1045700001A93CF035FD0700019B2060A3602A00E3
:104580003100380023F054FBE6E701483CF00CFC16
:1045900050B30410F0B54746CE4680B5254B804653
:1045A0000E00170083B0551A9D4240D80024002DFC
:1045B00003D0280023F042FB0400434665191C6029
:1045C0009D60B7420BD128E0012D2DD11B782372BD
:1045D00000231836656043551834B7421DD02000BB
:1045E0003368756808309946206001950F2DEBD926
:1045F0000022200001A93CF0F3FC019B2060A36095
:104600002A00494623F014FB0023019D2068183638
:10461000656043551834B742E1D143465C6003B04E
:10462000C0BCB946B046F0BD002DD1D0E8E7024885
:104630003CF0D2FBF8FFFF7F18B90410F8B5CE4666
:1046400047460B0080B520331B7A814616009B0637
:1046500027D5002A26D00B6A9846002B21D01000BF
:1046600046F070FA4346DD680700002D0FD02800A1
:1046700046F068FAB8421ED043460A229B5E002BE1
:104680000FD01B0198444346DD68002DEFD1002F69
:10469000F2D143461A7A7F231340042B08D0052B0E
:1046A00006D000264B461E60C0BCB946B046F8BDD9
:1046B00043461E68F6E7002FEBD0002302E00133EB
:1046C000BB42E6D0F45CE95C8C42F8D0D4E7C0464B
:1046D000F8B5CE4647460B0080B520331B7A81469D
:1046E00017009B0627D50B6A9846002B23D0100095
:1046F00046F028FA4346DD680600002D0FD028005A
:1047000046F020FA86421DD043460A229B5E002BCB
:1047100011D01B0198444346DD68002DEFD1002ED7
:10472000F2D143461A7A7F2313400C2B16D8164A2F
:104730009B00D3589F4600204B461870C0BCB9461A
:10474000B046F8BD002EECD0002302E001339E42BB
:10475000E7D0FC5CE95C8C42F8D0D5E70120EBE7C0
:10476000434609CB1843431E9841C0B2E4E7434691
:104770001878E1E74146002308684968002222F0E2
:104780008DFC43425841D7E74CB90410F0B54F4671
:10479000D64646460300C0B520331B7A894617002B
:1047A0009B0647D5036A9A46002B43D0080046F083
:1047B000C9F95346DE688046002E0FD0300046F01F
:1047C000C1F9404538D053460A229B5E002B31D0B8
:1047D0001B019A445346DE68002EEFD14346002B5E
:1047E000F1D153461B7A9B0624D553461B68984645
:1047F000002B1FD0380046F0A5F94346DD680600BF
:10480000002D0FD0280046F09DF9864222D0434665
:104810000A229B5E002B0DD01B0198444346DD68A5
:10482000002DEFD1002EF2D10120E0BCBA46B146F6
:10483000A846F0BD0020F8E74346002BD1D0002366
:1048400002E001334345CCD04A46F45CD55CA54236
:10485000F7D0B8E7002EE7D00023FC5CE95C8C427F
:10486000D5D101339E42F8D1DEE7C046F0B54546CA
:10487000DE4657464E467F23E0B5027A05000C001F
:10488000A1B01340402B25D89C4A9B00D3589F468B
:104890000668476832003B003000390022F0FEFB1A
:1048A000002817D0002200233000390022F0F6FB48
:1048B000002800D001E232003B003000390022F035
:1048C00083FB02000B003000390022F0E7FB0028D8
:1048D00000D1F2E120688A4B42689B1A032B01D871
:1048E00000F02BFE874904223CF078FD6368043316
:1048F000636021B0F0BCBB46B246A946A046F0BDFD
:1049000020687F4B426822CD9B1A9D4201D900F05E
:1049100014FE2A003CF062FD63685B196360E8E7FF
:1049200007684568086822213CF0F6FB636801339C
:104930006360002D4FD0A846734BB8449946734B23
:10494000029322254B463E7804E09D780233002DE9
:1049500000D1BDE35A78B242F7D1266832003368FD
:104960000832934201D100F043FCB26871688B4673
:10497000012159448A46914201D900F02EFC5A4641
:104980005C219954534600225146736033685A544F
:104990006368266801336360736832009B460123B5
:1049A0005B449A4633680832934201D100F04DFCD3
:1049B000B268924501D900F005FC5A469D54534611
:1049C00073603368002251465A54636801330137DB
:1049D00063604745B5D1222120683CF09DFB6368A8
:1049E0000133636085E7037808684268002B01D1D2
:1049F00000F01BFC424B9B1A032B01D800F09DFDDD
:104A0000434970E702AA76239446634498461D0002
:104A100007684668380031000A22002322F0CEF8E9
:104A2000013D303233002A700E003A000700002B9F
:104A3000F0D1092AEED8434620685E1B4268304B0D
:104A40009B1A9E4201D900F078FD320029003CF00B
:104A5000C5FC63689B1963604BE706684768002FD5
:104A600001DA00F0C3FC02AA5E2394466344984630
:104A70001D00300039000A22002322F09FF8013D7A
:104A800030323B002A700F0032000600002BF0D1BC
:104A9000092AEED8CFE708687B213CF03DFB63682C
:104AA000013363602B689A46002B00D159E3164B03
:104AB000994653462568DF682A006B680832984695
:104AC0005E1C2B68934200D1ABE3AA68964200D9E2
:104AD00064E342462221995400222B686E609A5565
:104AE00063680133636000233E789846002E55D0FA
:104AF0005346029322254B46013710E0CCB90410EF
:104B0000FFFFFF3FACB9041082B90410B4B9041020
:104B1000BCB904109D780233002D00D178E25A7898
:104B2000B242F7D12668320033680832934200D18E
:104B300011E3B26871688B46012159448A4691425B
:104B400000D9FEE25A465C219954534652464146EA
:104B500073603368995463682668013363607368CF
:104B600032009B4601235B449A46336808329342E5
:104B700000D1F4E2B268924500D9D8E25A469D5479
:104B80005346736033685246414699546368013313
:104B900063603E78002EADD1029B9A4625682A00BC
:104BA0006F682B6808327E1C934200D137E3AA68F5
:104BB000964200D9E8E22222DA5500222B686E6084
:104BC0009A55256863682A00013363606F682B6813
:104BD00008327E1C934200D125E3AA68964200D990
:104BE000C8E23A22DA5500222B686E609A55636853
:104BF0002100013363605046FFF738FE53460A2216
:104C00009B5E002B00D1ACE225681B012A006F6877
:104C10009A442B6808327E1C934200D1E4E3AA68D0
:104C2000964200D9F1E22C22DA5500222B686E6000
:104C30009A556368013363603BE708685B213CF089
:104C40006BFA63682E6801336360002E2DD02C232D
:104C500098460023210030009946FFF707FE0A22FC
:104C6000B35E002B21D025681B012A00F6186B6863
:104C700008329A465F1C2B68934200D1B2E3AA68BF
:104C8000974200D9B7E25246414699544A462B68AA
:104C90006F60DA5563682100013363603000FFF70D
:104CA000E5FD0A22B35E002BDDD15D2120683CF0DA
:104CB00033FA6368013363601BE60022002330008F
:104CC000390022F0F3F9002800D077E30022300009
:104CD0003900DA4B22F0F8F9002800D0B8E20022BF
:104CE00000233000390022F0F7F9002800D18BE3CF
:104CF00030003900D24AD34B22F0DEF9002800D12F
:104D000082E330003900D04AD04B22F0CFF900289E
:104D100001D100F00EFC30003900CD4BCD4A22F01D
:104D20007AF9CD4B06000F009B4630003900CB4A84
:104D3000CB4B22F0BBF900280BD030003900C94B17
:104D4000C94A22F068F95B46803B1BB206000F009F
:104D50009B4630003900C54AC54B22F0A7F9002810
:104D60000BD030003900C34BC34A22F054F95B46E4
:104D7000403B1BB206000F009B4630003900BF4A83
:104D8000BF4B22F093F900280BD030003900BD4B07
:104D9000BD4A22F040F95B46203B1BB206000F00E3
:104DA0009B4630003900B94AB94B22F07FF9002800
:104DB0000BD030003900B74BB74A22F02CF95B46D4
:104DC000103B1BB206000F009B4630003900B34A6F
:104DD000B34B22F06BF900280BD030003900B14BF7
:104DE000002222F018F95B46083B1BB206000F00B8
:104DF0009B4630003900AC4AAC4B22F057F90028F2
:104E00000BD030003900AA4B002222F004F95B4697
:104E1000043B1BB206000F009B4630003900A54A38
:104E2000A54B22F043F900280BD030003900A34BEA
:104E3000002222F0F0F85B46023B1BB206000F0096
:104E40009B460022300039009D4B22F02FF90028AC
:104E50000BD0300039009B4B002222F0DCF85B467F
:104E6000013B1BB206000F009B463000390022F0C8
:104E700087F90500092800D8FEE208239946924BDD
:104E8000A246029603974C46070081461D000A2160
:104E9000280021F055FEB84605000A21380021F00F
:104EA0004FFE42462300013C0700E4B2632AEED8DD
:104EB000029E039FA8465BB240464D46994622F0AB
:104EC0001FF9544602900391280022F019F90200BC
:104ED0000B003000390022F06EF8029A039B22F09A
:104EE0009AF806000F0022F04BF9824622F008F9EA
:104EF00002000B003000390022F05DF802000B00C8
:104F000022F062F822F03CF950440600404500D2FD
:104F100060E25B4600260135002B00D160E2092DDE
:104F200000D85DE201331BB29B4601254F460BE0E2
:104F30000A21300021F004FE013F0A2106007FB261
:104F400021F0FEFD002901D1002FF1DCB94602AAB3
:104F50002E239446634498461F00A24628000A2147
:104F600021F0EEFD013F3031280039700A2121F097
:104F7000E7FD2C000500092CF0D854464346206874
:104F8000DD1B4268514B9B1A9D4200D9D5E22A0095
:104F900039003CF023FA63685B1963604B46002BD1
:104FA00000D034E25B46002B00D1A2E465212068EA
:104FB0003CF0B2F86368013363605B46002B00DAB3
:104FC000ACE29DB202AA46239446634498461E0072
:104FD00028000A2121F0B4FD013E30312800317053
:104FE0000A2121F0ADFD2F0085B2092FF0D84346EC
:104FF00020689D1B4268354B9B1A9D4200D99CE25C
:105000002A0031003CF0EAF963685B19636070E4E0
:1050100025686B682A009B4601235B449A462B68EF
:105020000832934200D198E0AA68924575D85A4652
:105030009E5453466B602B68A5E5C046D012634171
:10504000F168E388B5F8E43E148BD77DB207FE0A19
:10505000DD4F15753CBF737F00FFFFFFC2DEB781D8
:10506000455491254877825A321D30F90CD131963A
:10507000FC53DA32034F384DF5F93FE98068896512
:10508000D6398039B5B89346176E05B51656E79EE2
:10509000AF03D23C79C341430080E03748AFBC9AAC
:1050A000F2D77A3E84D79741FCA9F1D24D62503FA6
:1050B0000088C3409A9999999999B93F000059403D
:1050C0000000F03F0000244000CA9A3BFFFFFF3F72
:1050D000002E14D025686B682A009B4601235B4490
:1050E0009A462B680832934200D1ACE0AA689245F8
:1050F0005ED85A469E5453466B602B6862E4206823
:10510000E24B42689B1A052B00D816E20622029950
:105110003CF064F96368063359E4012300220093EC
:105120005946002328003BF09DFF2B687FE70123B1
:10513000002200935946002330003BF093FF336870
:105140001CE50123002200935946002330003BF068
:1051500089FF3368F6E40F22ECE40F2265E70F22A3
:1051600009E57D2120683BF0D7FF63680133636068
:10517000FFF7BFFB01230022009339000023280022
:105180003BF070FF2B682CE50123002200933900CF
:10519000002328003BF066FF2B680CE5012300226A
:1051A00000934146002328003BF05CFF2B6890E40D
:1051B0000123002200935946002328003BF052FFB0
:1051C0002B6896E701230022009359460023300004
:1051D0003BF048FF3368FFF7F0FB01230022009308
:1051E0005946002330003BF03DFF3368FFF7C7FB13
:1051F0000F22FFF7BBFB012300220093514600233F
:1052000028003BF02FFF2B683DE50123002200938F
:105210003900002328003BF025FF2B6803E50F220F
:10522000C6E40F2252E40F22D8E4984B9B1A042BB9
:1052300000D882E1052296493CF0D0F86368053336
:105240006360FFF756FB0F2251E70F22FFF7B1FB18
:10525000300039008F4A904B21F036FF002800D1F2
:1052600007E1300039008D4B8D4A21F0D4FE8023B8
:105270005B0006000F009B4630003900894A8A4BCC
:1052800021F022FF00280BD030003900874B884ADC
:1052900021F0C1FE5B4680331BB206000F009B4627
:1052A00030003900834A844B21F00EFF00280BD0D8
:1052B00030003900814B824A21F0ADFE5B4640331D
:1052C0001BB206000F009B46300039007D4A7E4B22
:1052D00021F0FAFE00280BD0300039007B4B7C4ACD
:1052E00021F099FE5B4620331BB206000F009B465F
:1052F00030003900774A784B21F0E6FE00280BD0C9
:1053000030003900754B764A21F085FE5B4610333C
:105310001BB206000F009B46002230003900714B83
:1053200021F0D2FE00280BD0300039006E4B6F4ABE
:1053300021F071FE5B4608331BB206000F009B464E
:105340000022300039006A4B21F0BEFE00280BD04D
:1053500030003900674B684A21F05DFE5B4604333C
:105360001BB206000F009B46002230003900634B41
:1053700021F0AAFE00280BD030003900604B614AB2
:1053800021F049FE5B4602331BB206000F009B462C
:105390000022300039005C4B21F096FE002800D13D
:1053A00063E530003900594B594A21F034FE5B4621
:1053B00001331BB206000F009B4656E52D212068E5
:1053C0003BF0AAFE802163680906013363607B1805
:1053D0001F007BE40A2121F0B3FB002900D0B6E5D1
:1053E0004F46B1E50F224BE40F2219E408682D2146
:1053F0003BF092FE63683200013363603B0000279C
:1054000056429F41FFF72FFB00239B462DE54D465B
:10541000013DEBB2984608AB9A461F006DB23000D2
:105420000A2121F08DFB013F3031300039700A2113
:1054300021F086FB013D6DB206006B1CEFD102220C
:1054400043465242D21A4046534699181B1A2E2000
:10545000023B187020680D4B456852425B1B9A4214
:105460006BD83BF0BBFF434662680233D3186360DE
:1054700098E500239B46FFE60022264B0292039309
:1054800009239946244B98461EE5C046FFFFFF3F7F
:10549000C4B904103CBF737FDD4F15752806C80AD8
:1054A000436FAC64321D30F94877825A08BA5B25E5
:1054B0009D978CCFF5F93FE9034F384DFD0FA5328D
:1054C0003DA7F444176E05B5B5B8934623F64939A0
:1054D00033A7A8D50080E03779C34143B2D29C3CC2
:1054E000BC89D89784D797418E79453E3A8C30E273
:1054F0000088C340E2361A3F2D431CEB00005940A0
:10550000E17A843F7B14AE47000024409999B93F6B
:105510009A99999965CDCD4100CA9A3B2D21206871
:105520003BF0FAFD6368013363605B465D42ADB2F8
:1055300048E500239B46FFF7F8FB01483BF04CFC95
:1055400094B9041070B5374D06008EB028003BF0BA
:1055500033FA354C002835D12000FEF7E7FB8020D8
:10556000400122F0E9FA041E0490059042D0802305
:105570005B01C31807932020282302A90022C854E6
:10558000FF230A761B012949E318D96006215A81B5
:10559000197206930A930B93FF2305391B01E154FB
:1055A00033000833336000230AA8694672603372FF
:1055B00000960192FFF75AF9200022F01BFB300001
:1055C0000EB070BD00231A48636035F093F92000D7
:1055D000FEF792F82000FEF79BF92000FEF73AFA5A
:1055E0002000FDF7A3FF2000FDF7D4FF28003BF0CB
:1055F000FFF9B1E72822202502AB9D54273A1A76FD
:105600003300002000210833069007910A900B9187
:1056100033606946746034720AA800960194FFF7FB
:1056200025F9CCE7FC2A00202C990020D0BA0410E0
:10563000E06A0020F0B5C646040000B5002842D05C
:10564000037A7F2005001D40184230D05B063AD512
:105650002068002831D0002905D125E01B0101393F
:10566000C018002920D00A25435F002BF6D100295D
:1056700029D01020844600200027804653689C448F
:1056800093689C451BD86568103B18009360002DFB
:105690001BD05E1B36116E814546013963605F8108
:1056A0001D72DF600029ECD180BCB846F0BD834399
:1056B000402003432372256065600131D7E701294B
:1056C00005D0012313740020EEE72360E4E70020F7
:1056D0001174E9E7F0B557464546DE464E46E0B55B
:1056E0008A46017889B088462B2900D11AE1002129
:1056F0008B4641462D2904D141780130884601214D
:105700008B4641463039CCB2A146092C65D9424678
:1057100000232E2A59D10024002500274278431C5B
:105720009046303AD2B2092A17D8C7498C46C749A1
:105730008846654504D800D023E1444500D820E1DF
:105740005A7801339046303A092A06D85A780133FC
:10575000110030390929F9D9904620224146914358
:10576000452900D1A7E03E004346002B00D02EE1A2
:105770002000290021F010FD002E00DCDEE0B44DF9
:1057800001244746344205D0FB00EB181A685B68D9
:1057900021F041FC01377610FFB2002EF2D15B46BA
:1057A000002B04D00D00802109066B181900534608
:1057B0007F221B7A93430C221343524613725346A3
:1057C0000A00010019605A600123180009B0F0BCFA
:1057D000BB46B246A946A046F0BD9E4E0024B44644
:1057E0000E0000254946B14612E041780130884656
:1057F000009C019D3021494241448946C9B2A41907
:105800007D4109291BD8654500D995E000D18FE07D
:10581000A60FAB003343A200A4185D410091002104
:1058200026002F0001910099B6197F41C943340029
:105830003D000391791CD8D10399B142D5D243469A
:105840004946002B00D0BBE05B46002B00D1D6E0E0
:1058500080231B069D4277D9A0231B0499465B46F3
:105860000027834600930391200029000A22002389
:1058700021F0A4F901372E0004000D003FB24E457F
:10588000F2D2009B58469B460399C9B203000929EE
:105890000BD819005A7801331600303E092EF8D97A
:1058A00090463A1A013289180FB242462E2A00D089
:1058B00053E7180032E75A7890462D2A00D1AAE023
:1058C0002B2A55D0414630395A1CCBB2092B00D96E
:1058D00049E79A2378185B00984200DDACE000238A
:1058E0009A209C460E003B0000940195400006E083
:1058F000B100891949007E18F118814269DC51789C
:1059000001320F00303FFDB2092DF1D91F00009C7C
:10591000019D634688463100BE1B002B00D023E763
:10592000CE1921E741780130884600218B46E8E610
:10593000494EB44200D86BE749468DE7002E00D1AE
:105940002DE7464D76421BE79D4201D1002C83D1C5
:1059500053467F221B7A514693430A2213435246F1
:10596000137200236242AB410A604B6001232CE7B3
:105970009A1C9B78190030399846CBB2092BA8D9CC
:10598000F1E6A60FA90031430591A1000491049806
:10599000059924184D410692002224196D415E7824
:1059A00007920699079A641855413200303A013F30
:1059B000D2B201333FB2092A00D8BAE6B046CCE6EB
:1059C000802300275B039D4200D345E75DE700236A
:1059D000FBE66346002B2FD05B4600200021002B06
:1059E00001D08021090653467F221B7A93430C2263
:1059F000134352461372106051600123E5E653468B
:105A00007F221B7A93430822134352461372146079
:105A100055600123D9E69A1C9B78190030399846C5
:105A2000CBB2092B00D99EE69A2378185B009842E6
:105A3000D2DC343BFF3B53E75B460020002B01D018
:105A40000749D0E70749CEE79999010098999999B4
:105A5000F0CB04109999991999999999A8CB0410A8
:105A60000000F0FF0000F07FF0B5DE4657464546E7
:105A70004E46E0B5784C82468BB020008B463AF01B
:105A80009BFF764D002800D0BEE000232A686B60A3
:105A900013706A68724B9B1A5A2B00D8D8E05B22AD
:105AA000280070493BF09AFC5B465C68092C00D8E2
:105AB000B7E0632C00D8C1E0FA239B009C4200D2DF
:105AC000BEE0694B9C4200D8BCE0684B9C4200D8C9
:105AD000BAE0674B9C4200D8B8E0664B07219C4275
