:020000041000EA
:1000000000B5324B212058609868022188439860DF
:10001000D860186158612E4B002199600221596106
:100020000121F02299502B49196001219960352056
:1000300000F044F80222904214D00621196600F024
:1000400034F8196E01211966002018661A6600F04E
:100050002CF8196E196E196E052000F02FF8012189
:100060000842F9D1002199601B49196000215960AB
:100070001A491B48016001219960EB211966A021F2
:10008000196600F012F800219960164914480160C1
:100090000121996001BC002800D000471248134993
:1000A000086003C880F30888084703B5996A0420EC
:1000B0000142FBD001200142F8D103BD02B5186610
:1000C0001866FFF7F2FF186E186E02BD00000240BE
:1000D000000000180000070000035F00212200005C
:1000E000F4000018222000A00001001008ED00E03C
:1000F00000000000000000000000000074B24E7A12
:1001000000200420F7010010C3010010C5010010F9
:10011000C1010010C1010010C1010010C101001097
:10012000C1010010C1010010C1010010C701001081
:10013000C1010010C1010010C9010010CB01001065
:10014000CD010010CD010010CD010010CD01001037
:10015000CD010010CD010010CD010010CD01001027
:10016000CD010010CD010010CD010010CD01001017
:10017000CD010010CD010010CD010010CD01001007
:10018000CD010010CD010010CD010010CD010010F7
:10019000CD010010CD010010CD010010CD010010E7
:1001A000CD010010CD010010CD010010CD010010D7
:1001B000CD010010CD010010CD010010CD010010C7
:1001C00000BE00BE00BE00BE00BE00BEEFF3058054
:1001D000103800BEF2EB8871AC910910D091091073
:1001E0003402001090A31AE700201F49086006C8D7
:1001F00081F3088810471D48006800282FD10DA4FE
:100200000ECC002902D000F012F8F9E71849194A7B
:10021000002000E001C19142FCD1174988471749ED
:1002200088471749884700BEFDE701C901C29A42C5
:10023000FBD37047D0910910C00000204826002051
:1002400064B70910000004200000042064B70910FE
:10025000001004200010042000000000704709482E
:1002600020F07CFC0047000008ED00E0000000D01A
:1002700058260020582B012075F301102903001087
:10028000A9F401105756000006005250ABB360535A
:10029000C808041006005250861C0302D808041037
:1002A000060052505422A29DE4080410050052504A
:1002B000DE65F46864B70910F8B5C046064807491A
:1002C000091A8B10C90FC91810B5491003D0044B77
:1002D000002B00D0984710BD48260020482600205B
:1002E00000000000054B10B5002B03D00449054861
:1002F00000E000BFFFF7E2FF10BDC04600000000B5
:100300001813012008ED031010B52BF0AFFC1820D6
:1003100021F0DCFC040000F051FE200000F058FE4B
:10032000200000F0CDFE10BD902010B5400021F05F
:10033000CDFC040000F066F8200000F0B5FB044896
:100340002BF068FC200000F07BF9002010BDC046B7
:1003500009030010F0B50700083704000E0083B051
:100360000760002923D008003EF0D0F80500019076
:100370000F280DD8012808D1337823720021019B62
:1003800022686360D15403B0F0BD0028F6D008E0C5
:100390000022200001A934F007FC0700019B206027
:1003A000A3602A003100380021F08AFCE6E701480A
:1003B00034F0DEFA08ED031070B50F4D280034F06C
:1003C000DFF80E4C002801D1200070BD00230C483E
:1003D00063602FF0A1FA200002F01CF9200002F067
:1003E00011FA200002F0C4FA200002F003F82800FD
:1003F00034F0E2F8E8E7C04698290020B0800020F9
:1004000070590020F0B500224E464546DE460023D6
:100410005746E0B502604360C02304009B00E381BF
:10042000C0231B0123820123002505203226A3754A
:100430001F332073A582E254784B79496362794B6C
:10044000E162A36265842586A2550236A05531304B
:100450002254E36323644423A563E552724B83B0C3
:10046000984690234046E050704BA360019394233C
:10047000E25423009433D980198159815D809D8095
:100480009981A223E5524E33E5502300F0339D605D
:100490005D6080235B00E2548322654B9200186804
:1004A0005968631CFF339860D9609861D9611A82DA
:1004B000604B1800994634F063F85F4E002800D076
:1004C00084E0E82021F002FC052303719C46C02350
:1004D0009B00C380C02301221B0103810025002350
:1004E0002A2782734D4A0376C2614E4A8581026291
:1004F00093464B4A4583426205850100C3556046D9
:100500000237C85529300B5458464746486388631C
:1005100088200D638D870F50019808608C200B5444
:100520000B008C335D809D80DA801A815A819A811C
:100530009A233000CD5202F09FFB484634F020F859
:10054000002857D1E82021F0C1FB052303719C4608
:10055000C0239B00C380C0231B0103810023010033
:100560008381012088732D480022C8612A272D48E5
:100570006546824608622A480A7648624B830B85A4
:10058000CA550237CD5529354A55554647464D631C
:100590008D6388250B638B874F51019D0D608C25E2
:1005A0004A550A008C3253809380D080108150814C
:1005B00090819A2230008B5202F062FB200003B03F
:1005C000F0BCBB46B246A946A046F0BD1B487560CC
:1005D0002FF0A2F9300002F01DF8300002F012F9FD
:1005E000300002F0C5F9300001F004FF484633F056
:1005F000E3FF66E7114875602FF08EF9300002F0D6
:1006000009F8300002F0FEF8300002F0B1F93000D5
:1006100001F0F0FE484633F0CFFF93E70000FF7F84
:10062000FF7F0000FF7FFF7F0C1F0020A0ED031065
:100630004806041098290020B0800020705900203E
:10064000F0B5DE46574645464E46E0B589B0050052
:10065000FFF7B2FE02F012FB0700FFF7ADFE02F05B
:1006600011FB0400FFF7A8FE02F004FB002800D0F5
:1006700017E16B1CFF339A46CB4B18349B4618236B
:10068000984614339C46BC4463460693F0239C462C
:10069000AC4463460293C54B03940093C44B564647
:1006A000C44CB84407935CE07B8B002B00D0A6E0E1
:1006B000B268F368110004920593194300D1C4E0B5
:1006C000BD49059B486A9C46834209D88B6A049AB7
:1006D000934201D2844503D0802301225B00EA5477
:1006E000029B00219946180001F072FA3B6838001D
:1006F000DB6898474846002101F082FA1022414603
:10070000039821F0DDFA38002BF078FF814638009D
:100710002BF026FE010048462EF004FE009833F030
:100720002FFF002856D1200002F0AEFA009833F0D7
:1007300027FF002839D1200002F0AEFA2EF0DEFDAE
:100740000121029801F05CFA01200021404222F0D0
:1007500083F801F08FF86422002380185941286043
:1007600069602B689A466B68994601F083F8894561
:100770004DD84AD03B6838005B6898474146069898
:100780002BF0FEFF3B6838009B68984780235B0096
:10079000EB5C002B88D07A8B338A9A423CD05B4644
:1007A0001A685B68B261F3619AE700230798636097
:1007B0002FF0B2F8200001F02DFF200002F022F807
:1007C000200002F0D5F8200001F014FE009833F06C
:1007D000F3FEB0E70023079863602FF09DF8200038
:1007E00001F018FF200002F00DF8200002F0C0F820
:1007F000200001F0FFFD009833F0DEFE93E75B463A
:100800001A685B68B260F3606AE78245B2D9322049
:1008100000211DF0B9FFA4E7B269F3691100049249
:100820000593194327D06449059B486A9C46834237
:1008300000D955E78B6A049A934202D2844500D1CD
:100840004EE75E4802F022FC4AE71EF073F83222BF
:10085000002312184B4180210492059309068B4214
:1008600004D30122564B524204920593049A059BED
:10087000B260F36024E71EF05DF80023514A1218BD
:100880004B4180210492059309068B4204D3012237
:100890004B4B524204920593049A059BB261F3615B
:1008A000C1E76B1CFF339A46474C3F4BA0469B4623
:1008B0005446464E300033F063FE00282FD13000FE
:1008C00033F05EFE002832D1404601F09BFA3B68CF
:1008D00038005B68984780235B00EB5C002B2AD1D3
:1008E0007B8B002B31D1A268E36811000092019349
:1008F000194342D03049019B486A9C468342D9D86B
:100900008B6A009A934201D28445D3D0802301227E
:100910005B003000EA5433F033FE0028CFD03000C3
:1009200033F04AFE300033F02BFE0028CCD03000EC
:1009300033F042FEC8E77A8B238A9A420BD05B469B
:100940001A685B68A261E361B4E75B461A685B689A
:10095000A260E360AEE7A069E16903000B4339D010
:10096000154B5A6A9142A5D89B6A834201D29142A3
:10097000A0D0174802F08AFB9CE71DF0DBFF322273
:10098000002312184B4180210092019309068B42EB
:1009900004D301220A4B524200920193009A019B18
:1009A000A260E360A6E7C04648060410982900202C
:1009B00070590020B080002000400540A58477E7F2
:1009C000FFFFFF7F00093D00A88000209429002040
:1009D000CD66D5431DF0AEFF0023064A801859416D
:1009E00080231B06994202D3012003494042A061A3
:1009F000E161B5E700093D00FFFFFF7F70B502F040
:100A000059FB244B040098423DD0234B984224D0FC
:100A1000002801D0002070BD204E300033F0B0FD22
:100A20001F4D00281BD1280002F028F9040003689C
:100A30005B689847E288638B11001940914209D0A6
:100A40009A0520D45A0720D4DA0720D49B07E1D591
:100A50000520E0E7227ED207F2D50220DBE711482D
:100A60006C602EF059FF280001F0D4FD280001F041
:100A7000C9FE280001F07CFF280001F0BBFC30001B
:100A800033F09AFDCFE70120C5E70320C3E7042038
:100A9000C1E7C046A58477E7E1E437F7982900204D
:100AA000B080002070590020F8B5834F0400380052
:100AB00033F066FD814D002800D0C5E0280002F02B
:100AC000DDF8036806001B689847FFF797FF0128C9
:100AD00000D1A2E000DC98E0022800D1E2E0C21ED2
:100AE000022A10D8327B032800D1E2E0051F6B42B6
:100AF0005D41EDB2954203D0300035732BF000FE1E
:100B000028002EF0EBFB2BF0A7FA082021F0DEF8EE
:100B100000266B4BF0340100868003600022200029
:100B200001F004F9082021F0D1F8664B01000360C0
:100B300046600022200001F0F9F8242021F0C6F8D8
:100B400005002422002121F0B5F85F4B29002B601D
:100B50000022200001F0EAF80C2021F0B7F8002371
:100B600003725A4B0100036046600022200001F02E
:100B7000DDF8242021F0AAF805002422002121F02C
:100B800099F8534B29002B600022200001F0CEF889
:100B9000102021F09BF805001022002121F08AF896
:100BA0004C4B29002B600022200001F0BFF82020D0
:100BB00021F08CF805002022002121F07BF8464B23
:100BC00029002B600022200001F0B0F8542021F011
:100BD0007DF805005422002121F06CF83F4B2900DC
:100BE0002B600022200001F0A1F80C2021F06EF80B
:100BF00005000C22002121F05DF8394B29002B6003
:100C00000122200001F092F8F8BD002800D07AE718
:100C1000357B28002EF062FB75E7380033F0B0FC1E
:100C2000002826D12800012102F01AF8FF202EF01A
:100C300055FB2C4D280033F0A3FC00282ED10021B9
:100C4000294801F0CDF85EE7002328486B602EF0BC
:100C500063FE280001F0DEFC280001F0D3FD28002F
:100C600001F086FE280001F0C5FB380033F0A4FC3B
:100C700024E700231D486B602EF04EFE280001F093
:100C8000C9FC280001F0BEFD280001F071FE28001B
:100C900001F0B0FB380033F08FFCC3E7280033F0DD
:100CA0008BFCCCE712481FF059FF0021030008001D
:100CB000984702251EE7C04698290020B0800020F2
:100CC000D0FF031024000410A8000410D00004106A
:100CD000F80004101C010410EC05041010060410A8
:100CE0009C05041094290020A88000207059002041
:100CF000554200000123F0B5DE4657464E464546B4
:100D0000574A5B42E0B513600023FF26FF21536082
:100D10009360D3601361534A534F1360534A544D49
:100D20001760544A544C1660544A55481560554A49
:100D300009021460544A8FB01060544A1160544A3A
:100D400054498C461160544A544911608846544AAB
:100D5000544911608946FF21534A090411608A46AB
:100D6000524A53491160534A534904941160534AFB
:100D70005349544C1160FF221202069262460792B8
:100D8000424608924A468B46099252460A925A4671
:100D9000474905900B9148493820009323606360D0
:100DA000A36003950C910D920197029620F08EFF9F
:100DB00005003822694638352060A56020F080FFA4
:100DC000414942486560FFF7C5FA41494148FFF78C
:100DD000C1FA41494148FFF7BDFA41494148FFF78F
:100DE000B9FA41494148FFF7B5FA41494148FFF78F
:100DF000B1FA41494148FFF7ADFA41494148FFF78F
:100E0000A9FA41494148FFF7A5FA41494148FFF78E
:100E1000A1FA41494148FFF79DFA41494148FFF78E
:100E200099FA41494148FFF795FA41494148FFF78E
:100E300091FA41494148FFF78DFA41494148FFF78E
:100E400089FA41494148FFF785FA41494148FFF78E
:100E500081FA0FB0F0BCBB46B246A946A046F0BD31
:100E60001C5C00209C290020FFFFFF006C2A002052
:100E7000FF800000B45B0020FFFF0000D82A0020A4
:100E800080FF0000A82B0020C42D0020042A002091
:100E9000A82C002000FF8000305E002000FFFF0033
:100EA000102D00200080FF00985E0020402B0020C5
:100EB0008000FF00005F0020FF00FF00402C0020AA
:100EC000FF008000BC5900203CED03106C4800205E
:100ED00040ED0310804A002048ED0310604C0020D4
:100EE000B4F903108856002050ED0310EC310020B7
:100EF00054ED0310CC33002058ED0310AC35002026
:100F00005CED03108C37002060ED03106C3900207D
:100F100064ED03100C3F002068ED03104C3B0020F3
:100F20006CED0310EC40002070ED0310AC44002089
:100F300074ED03108C46002078ED03102C3D00204A
:100F40007CED0310CC42002080ED03102C2E0020FD
:100F500084ED03100C300020F0B5070008370400C2
:100F60000E0083B00760002923D008003DF0CEFAC0
:100F7000050001900F280DD8012808D1337823727D
:100F80000021019B22686360D15403B0F0BD0028AA
:100F9000F6D008E00022200001A933F005FE07008A
:100FA000019B2060A3602A003100380020F088FEF9
:100FB000E6E7014833F0DCFC08ED031000220023D3
:100FC0000260436000238360C36003617047C046D2
:100FD000F8B5354E08300500300020F077FE0400EB
:100FE0003200002120F066FE304B002623600123F2
:100FF00023738A23E427DB00E218083BE25008331E
:10100000E65421002800BF00022200F08FFE3800C5
:1010100020F05CFE04003A00002120F04BFE244B3F
:1010200020002360CA230A225B00C530E250FF3053
:101030002CF0AEFADF239B00E654E3185E601E61DD
:101040002100280002229B60DB6000F06FFE102070
:1010500020F03CFE174B01000360FF238660037104
:1010600006730222280000F061FE0C2020F02EFE04
:1010700004000C22002120F01DFE0F4B21002360F4
:101080002800022200F052FE142020F01FFE04006F
:101090001422002120F00EFE084B2800022221001D
:1010A000236000F043FEF8BD6C040000F40204105D
:1010B00074050410C0050410F8FF0310500004105C
:1010C000F8B50823CE464746994606006424002515
:1010D00080B5814433687768984600F0CBFB8F4237
:1010E0000AD9322000211DF04FFB336877689846FB
:1010F00000F0C0FB8F42F4D88F4201D18045F0D878
:101100000221484600F07CFD00F0B4FB0019694163
:1011100030607160DEE7C0460123F0B5DE46574619
:101120004E464546574A5B42E0B513600023FF2612
:10113000FF2153609360D3601361534A534F136090
:10114000534A544D1760544A544C1660544A5548FB
:101150001560554A09021460544A8FB01060544A11
:101160001160544A54498C461160544A54491160E4
:101170008846544A544911608946FF21534A09045C
:1011800011608A46524A53491160534A53490494A4
:101190001160534A5349544C1160FF2212020692C7
:1011A00062460792424608924A468B460992524648
:1011B0000A925A46474905900B91484938200093B6
:1011C00023606360A36003950C910D9201970296D2
:1011D00020F07CFD05003822694638352060A56086
:1011E00020F06EFD414942486560FFF7B5FE414978
:1011F0004148FFF7B1FE41494148FFF7ADFE414983
:101200004148FFF7A9FE41494148FFF7A5FE414982
:101210004148FFF7A1FE41494148FFF79DFE414982
:101220004148FFF799FE41494148FFF795FE414982
:101230004148FFF791FE41494148FFF78DFE414982
:101240004148FFF789FE41494148FFF785FE414982
:101250004148FFF781FE41494148FFF77DFE414982
:101260004148FFF779FE41494148FFF775FE414982
:101270004148FFF771FE0FB0F0BCBB46B246A9462D
:10128000A046F0BD305C0020A0290020FFFFFF0039
:10129000702A0020FF800000B85B0020FFFF0000E4
:1012A000DC2A002080FF0000AC2B0020C82D00208D
:1012B000082A0020AC2C002000FF8000345E0020B3
:1012C00000FFFF00142D00200080FF009C5E002026
:1012D000442B00208000FF00045F0020FF00FF007F
:1012E000442C0020FF008000C85900203CED031072
:1012F0008448002040ED0310984A002048ED031078
:10130000784C0020B4F90310A056002050ED0310D3
:101310000432002054ED0310E433002058ED031094
:10132000C43500205CED0310A437002060ED0310ED
:101330008439002064ED0310243F002068ED031081
:10134000643B00206CED03100441002070ED03109D
:10135000C444002074ED0310A446002078ED03106F
:10136000443D00207CED0310E442002080ED03109A
:10137000442E002084ED0310243000209C22D02332
:1013800030B584581B0659686268CB438A4300D144
:1013900095E0027C002A00D1A0E0A022815808221A
:1013A0008A564968194202D021890A4352B2A421BF
:1013B00041584C681C4202D009890A4352B2A82104
:1013C00041584C681C4202D009890A4352B2027645
:1013D000AC22815800224C681C4201D008228A5E4F
:1013E000B02141584C681C4202D009890A4312B20C
:1013F000B42141584C681C4202D009890A4312B2F8
:10140000B82141584C681C4202D009890A4312B2E3
:10141000BC2141584C681C4202D009890A4312B2CF
:10142000C02141584C681C4202D009890A4312B2BB
:10143000C42141584C681C4202D009890A4312B2A7
:10144000C82141584C681C4202D009890A4312B293
:10145000CC2141584C681C4202D009890A4312B27F
:10146000D02141584C681C4202D009890A4312B26B
:10147000D42141584C681C4202D009890A4312B257
:10148000D82141584C681C4202D009890A4312B243
:10149000DC2141584C681C4202D009890A4312B22F
:1014A000E02141584C681C4202D00B891A4312B209
:1014B000104B4283104AC3830262436230BDA022B4
:1014C000815800224D681D4200D170E7057C002D37
:1014D00000D069E709890A4352B268E7A0210822CF
:1014E0004158A2564C681C4200D160E709890A4362
:1014F00052B25CE7FF7F0000FF7FFF7F7047C0466E
:10150000F0B5DE464E4645465746E0B5A3B004006A
:101510002BF0E8F89023AF4E5B013000238133F0CD
:101520002FF8AD4D002800D03EE12900012501AE85
:10153000300000F0D3FF0C2020F0C8FB2A007378A5
:1015400005819A4003709C234260E0500C2020F0FB
:10155000BDFB2A00B3782F009A40426002229146D8
:1015600002819E32A05003700C2020F0AFFB2900B6
:10157000F37899404160042188460181A031605090
:1015800003700C2020F0A2FB33799F40037047606A
:10159000A8230827E05007810C2020F097FB2900A2
:1015A0007379058199404160AC21037060500C2033
:1015B00020F08CFB2A00B3799A4003704B460381DC
:1015C000AE334260E0500C2020F080FB2A00F3791B
:1015D0009A40037043460381B0334260E0500C20D0
:1015E00020F074FB2900337A07819940B037E0512D
:1015F0002F00416003700C2020F068FB737A9F403D
:101600004760BC2703701023E0512F0003810C209A
:1016100020F05CFBB37A9F404760C0270370202313
:10162000E0512F0003810C2020F050FBF37A9F4003
:10163000037047604023C4270381E0510C2020F051
:1016400045FB2900337B2F009940037041608023C4
:10165000C821038160500C2020F038FB737B9F4031
:101660004760CC2703708023E051BB462F005B000E
:1016700003810C2020F02AFBB37B9F404760D027DA
:1016800003708023E051BA462F009B0003810C2099
:1016900020F01CFBF37B9F404760D427037080231E
:1016A000E051B9462F00DB0003810C2020F00EFB37
:1016B000337C9F404760D82703708023B846E051B1
:1016C0002F001B0103810C2020F000FB737C9F4046
:1016D000037080234760DC275B010381E0510C200D
:1016E00020F0F4FAB37CE4269D400370802345602B
:1016F000E0259B0103816051482020F0EBFAA022F5
:10170000A421A2589C234260625808318260A8221A
:10171000A258E358C26062581C310261B022A2583C
:1017200003604261B422A2588261B822A258C26109
:10173000BC22A2580262C022A2584262C422A2580D
:1017400082626258C2625A46A25802635246A25846
:1017500042634A46A25882634246A258C263E25993
:10176000D027026462593F064264E422A050E33A63
:101770000025904601E0A3595B5918781CF03CF90C
:10178000A35900225B590121187843468340043550
:10179000BB621CF00BF9482DEDD123B0F0BCBB4669
:1017A000B246A946A046F0BD00230C486B602EF05F
:1017B000B3F8280000F02EFF280001F023F82800DD
:1017C00001F0D6F8280000F015FE300032F0F4FEEB
:1017D000ABE6C04698290020B08000207459002054
:1017E00010B502482EF052F810BDC04674590020C2
:1017F000F0B50700083704000E0083B00760002929
:1018000023D008003CF082FE050001900F280DD87F
:10181000012808D1337823720021019B226863607C
:10182000D15403B0F0BD0028F6D008E0002220001B
:1018300001A933F0B9F90700019B2060A3602A00D9
:101840003100380020F03CFAE6E7014833F090F828
:1018500008ED031010B51DF06DF8002905D0FA222F
:10186000002392001FF012FA10BDFA2189001FF028
:10187000CFF9F9E710B51DF05DF810BDF0B5CE4613
:101880004746060080B5224B85B019000C229846C9
:1018900020F016FAB36801AD9946002328003700FE
:1018A000B360340031F0A4FA0C3721002800013471
:1018B00031F0A6FABC42F8D1280031F0B9FA8145DE
:1018C00005D1300005B0C0BCB946B046F0BD80239C
:1018D0005B02336000232A003100337191C991C249
:1018E0006846AB6031F084FA2C0004AF21006846F2
:1018F000013431F085FABC42F8D1684631F098FAEB
:101900000C22A8602900404620F0DAF9D9E7C04649
:1019100000600020002330B587B005A80191029235
:10192000039331F065FA01AC04AD210005A8013440
:1019300031F066FAAC42F8D105A831F079FA0C2200
:10194000039001A9024820F0BBF907B030BDC046A2
:10195000006000200123F0B5DE4657464E4645465E
:10196000574A5B42E0B513600023FF26FF21536016
:101970009360D3601361534A534F1360534A544DDD
:101980001760544A544C1660544A55481560554ADD
:1019900009021460544A8FB01060544A1160544ACE
:1019A00054498C461160544A544911608846544A3F
:1019B000544911608946FF21534A090411608A463F
:1019C000524A53491160534A534904941160534A8F
:1019D0005349544C1160FF2212020692624607924C
:1019E000424608924A468B46099252460A925A4605
:1019F000474905900B914849382000932360636064
:101A0000A36003950C910D920197029620F05EF968
:101A100005003822694638352060A56020F050F96D
:101A2000414942486560FFF7E3FE41494148FFF7FD
:101A3000DFFE41494148FFF7DBFE41494148FFF7DE
:101A4000D7FE41494148FFF7D3FE41494148FFF7DE
:101A5000CFFE41494148FFF7CBFE41494148FFF7DE
:101A6000C7FE41494148FFF7C3FE41494148FFF7DE
:101A7000BFFE41494148FFF7BBFE41494148FFF7DE
:101A8000B7FE41494148FFF7B3FE41494148FFF7DE
:101A9000AFFE41494148FFF7ABFE41494148FFF7DE
:101AA000A7FE41494148FFF7A3FE41494148FFF7DE
:101AB0009FFE0FB0F0BCBB46B246A946A046F0BDA3
:101AC000445C0020A4290020FFFFFF00742A0020AE
:101AD000FF800000BC5B0020FFFF0000E02A002028
:101AE00080FF0000B02B0020CC2D00200C2A00200D
:101AF000B02C002000FF8000385E002000FFFF00B7
:101B0000182D00200080FF00A05E0020482B002040
:101B10008000FF00085F0020FF00FF00482C00202D
:101B2000FF008000D45900203CED03109C480020A9
:101B300040ED0310B04A002048ED0310904C002007
:101B4000B4F90310B856002050ED03101C320020E9
:101B500054ED0310FC33002058ED0310DC35002059
:101B60005CED0310BC37002060ED03109C390020B1
:101B700064ED03103C3F002068ED03107C3B002027
:101B80006CED03101C41002070ED0310DC440020BC
:101B900074ED0310BC46002078ED03105C3D00207E
:101BA0007CED0310FC42002080ED03105C2E002031
:101BB00084ED03103C30002010B5040021001022F9
:101BC00018318C3020F07CF820002AF0DBFA10BDB0
:101BD000F8B54568046807000E00AC4206D02368DB
:101BE0001A79B24203D00434A542F8D1F8BD18687E
:101BF00004340368DB6898477D68A542EFD1F5E7B8
:101C0000F8B54568046807000E00AC4206D02368AA
:101C10001A79B24203D00434A542F8D1F8BD18684D
:101C2000043403689B6898477D68A542EFD1F5E7C7
:101C3000F8B54546DE4657464E460368E0B5466869
:101C40009346374A9846F31A05008A469B109342FA
:101C500062D0B04556D01A009A18934247D85346DE
:101C600041465C1A002300279946002A4CD15B4666
:101C70001B683B51002C2ADC534604343C19F61AED
:101C8000002E0DDC4346A419002B19D14B462F60C2
:101C90006C60AB60F0BCBB46B246A946A046F8BD3E
:101CA00020003200514620F00BF84346A419002BC7
:101CB000ECD005E020003200514620F001F8A419D4
:101CC0004346A968C91A404620F00CF8DEE7220016
:101CD000414638003CF0BEF9534604343C19F61A2C
:101CE000002EE7DC4346A968A419C91AEBE753465E
:101CF00042469C1A0B4B994648461FF0E7FF0700E7
:101D00008144B4E70122A7E780239B059A4200D3D0
:101D1000034A93009946EFE7034832F041FEC0467C
:101D2000FFFFFF1FFCFFFF7FB0ED0310F0B50B6856
:101D3000050083B008001B680C00170098470028B6
:101D400011D008201FF0C2FF0600236801905B68D5
:101D5000200098476968AB6834603771994208D0B1
:101D600040C1696003E0042120001FF0BBFF03B005
:101D7000F0BD280001AAFFF75BFFF8E7F0B5070008
:101D8000083704000E0083B00760002923D0080044
:101D90003CF0BCFB050001900F280DD8012808D1AC
:101DA000337823720021019B22686360D15403B011
:101DB000F0BD0028F6D008E00022200001A932F092
:101DC000F3FE0700019B2060A3602A003100380069
:101DD0001FF076FFE6E7014832F0CAFD08ED031078
:101DE00070B505000C1E01D02C7070BD04201FF0D2
:101DF0006DFF0600024B036001F07EF96E60F3E7B1
:101E00005CFD031010B5406803685B68984710BD1F
:101E100010B508002AF074FC10BDC04684B030B57F
:101E2000174D95B0280019911A921B9332F0A8FB18
:101E3000144C00280FD11CA9502268461FF040FF07
:101E4000200019991A9A1B9B00F0B2FE15B030BC05
:101E500008BC04B0184700230B4863602DF05CFDFC
:101E6000200000F0D7FB200000F0CCFC200000F0A8
:101E70007FFD200000F0BEFA280032F09DFBDAE77B
:101E800098290020B08000207859002084B070B5D7
:101E9000684E9EB0300023912492259332F070FB5F
:101EA00023AC654D002800D099E0782226A9684629
:101EB0001FF006FF280023996268A36800F0D0FB9A
:101EC000300032F05DFB002800D09DE0280000F0DB
:101ED000D5FE9C23C2589B3B1D0061788D40556008
:101EE0001D001170A178A0228D40825855601D0000
:101EF0001170E178A4228D40825855601D00117048
:101F00002179A8228D40825855601D001170617999
:101F1000AC228D40825855601D001170A179B0220D
:101F20008D40825855601D001170E179B4228D40BA
:101F3000825855601D001170217AB8228D40825858
:101F400011705560BC221D008258617A8D40556029
:101F50001D001170A17AC0228D40825855601D006D
:101F60001170E17AC4228D40825855601D001170B5
:101F7000217BC8228D40825855601D001170617B05
:101F8000CC228D40825855601D001170A17BD0225B
:101F90008D40825855601D001170E17BD4228D4028
:101FA000825855601D001170217CD8228D408258C6
:101FB00011705560DC221D008258617C8D401170CB
:101FC0005560A17CE0228B4082581C481170536000
:101FD000FFF706FC1EB070BC08BC04B01847002315
:101FE00017486B602DF098FC280000F013FB2800C8
:101FF00000F008FC280000F0BBFC280000F0FAF913
:10200000300032F0D9FA50E700230D486B602DF014
:1020100083FC280000F0FEFA280000F0F3FB280003
:1020200000F0A6FC280000F0E5F9300032F0C4FA18
:102030004CE7C04698290020B0800020101F0020E7
:102040007859002084B070B5134D05912800069290
:10205000079332F095FA114C002807D1200005A90A
:1020600000F0F0FD70BC08BC04B0184700230C4819
:1020700063602DF051FC200000F0CCFA200000F04D
:10208000C1FB200000F074FC200000F0B3F9280030
:1020900032F092FAE2E7C04698290020B080002092
:1020A0007859002084B070B51C4C1D4EA544FFAC7F
:1020B000300021616261A36132F062FA1034194D7F
:1020C000002815D1FE22FFA9684692001C311FF09E
:1020D000F7FDFFAB1969280062681033A36800F0B0
:1020E00001FCFE239B009D4470BC08BC04B0184753
:1020F00000230D486B602DF00FFC280000F08AFAD9
:10210000280000F07FFB280000F032FC280000F0DF
:1021100071F9300032F050FAD4E7C04608FCFFFFF6
:1021200098290020B0800020785900200123F0B5C4
:10213000DE4657464E464546574A5B42E0B5136079
:102140000023FF26FF2153609360D3601361534A3D
:10215000534F1360534A544D1760544A544C166001
:10216000544A55481560554A09021460544A8FB0C4
:102170001060544A1160544A54498C461160544AC4
:10218000544911608846544A544911608946FF21D8
:10219000534A090411608A46524A53491160534A0E
:1021A000534904941160534A5349544C1160FF221F
:1021B0001202069262460792424608924A468B46AF
:1021C000099252460A925A46474905900B9148494E
:1021D0003820009323606360A36003950C910D92F7
:1021E000019702961FF072FD0500382269463835C6
:1021F0002060A5601FF064FD414942486560FFF71B
:10220000BDFD41494148FFF7B9FD41494148FFF74C
:10221000B5FD41494148FFF7B1FD41494148FFF74C
:10222000ADFD41494148FFF7A9FD41494148FFF74C
:10223000A5FD41494148FFF7A1FD41494148FFF74C
:102240009DFD41494148FFF799FD41494148FFF74C
:1022500095FD41494148FFF791FD41494148FFF74C
:102260008DFD41494148FFF789FD41494148FFF74C
:1022700085FD41494148FFF781FD41494148FFF74C
:102280007DFD41494148FFF779FD0FB0F0BCBB46E9
:10229000B246A946A046F0BD585C0020A8290020FF
:1022A000FFFFFF00782A0020FF800000C05B0020B5
:1022B000FFFF0000E42A002080FF0000B42B002074
:1022C000D02D0020102A0020B42C002000FF800018
:1022D0003C5E002000FFFF001C2D00200080FF005E
:1022E000A45E00204C2B00208000FF000C5F00202B
:1022F000FF00FF004C2C0020FF008000E059002070
:102300003CED0310B448002040ED0310C84A002003
:1023100048ED0310A84C0020B4F90310D05600205B
:1023200050ED03103432002054ED0310143400201B
:1023300058ED0310F43500205CED0310D437002075
:1023400060ED0310B439002064ED0310543F002009
:1023500068ED0310943B00206CED03103441002025
:1023600070ED0310F444002074ED0310D4460020F7
:1023700078ED0310743D00207CED03101443002021
:1023800080ED0310742E002084ED031054300020E3
:10239000F0B50700083704000E0083B0076000297D
:1023A00023D008003CF0B2F8050001900F280DD8AA
:1023B000012808D1337823720021019B22686360D1
:1023C000D15403B0F0BD0028F6D008E00022200070
:1023D00001A932F0E9FB0700019B2060A3602A00FD
:1023E000310038001FF06CFCE6E7014832F0C0FA1B
:1023F00008ED0310F0B5C6460600050000B5314CE7
:10240000314FE536FF36A5443900304A30001FF021
:1024100057FC2F4B01A8EA58340090460022EA509E
:1024200030F0E6FCBD23DB009C466544210001A89A
:10243000013430F0E5FCAC42F8D101A830F0F8FCF2
:10244000804505D18123DB009D4480BCB846F0BDAA
:102450008024E40022001F4930001FF031FC3100CD
:102460001A4A01A81FF02CFC3000184A01A93BF0C1
:10247000CFFD0028E6D06A46002304321351684697
:1024800030F0B6FCFFAD01AC0C35210068460134DC
:1024900030F0B6FCAC42F8D1684630F0C9FC6A4670
:1024A00080230432DB00D05001A9084A38001FF015
:1024B00007FC09482DF0EAF93000044A01A91FF091
:1024C000FFFBBFE7F8FBFFFF0070002004040000E3
:1024D000E4050000D4ED03107C59002010B5040081
:1024E00084220C311FF0ECFB200010BD3D4BF0B5F9
:1024F000C3603D4B002503613C4B012243613C4BD3
:10250000ADB083613B4B0400C3613B4B038422238A
:10251000C5543A4BC562436201235B420385384B85
:1025200003633423C25408338363393B83873B33CB
:10253000C554344B01AA0564110018009C46C8C854
:10254000C8C1C0C8C0C121004431C1CAC1C141CA4B
:1025500041C1634611001433C1CBC1C141CB41C15C
:102560002300583343CA43C303CA03C320000622CF
:1025700025490C346C301FF0A3FB842221000BA8EA
:102580001FF09EFB842221000BA83BF041FD002898
:1025900001D12DB0F0BD2C216A4680235218684627
:1025A000D55030F025FC0BAD2CAE29006846013526
:1025B00030F026FCB542F8D1684630F039FC6A4666
:1025C0002C2180235218D0500BA984220F481FF0D1
:1025D00077FB0F482DF05AF9842220000BA91FF039
:1025E0006FFBD6E700090B0C0A050601020403087D
:1025F000071B1D0F1A0D0E00030300004C1D0000E9
:10260000801A0600D4F10310CCED03100064002002
:102610007C590020F0B504000C34060083B08422FD
:102620000E4920001FF04CFB8C230022F758350088
:10263000F25001A830F0DCFB9035210001A80134F4
:1026400030F0DEFBAC42F8D101A830F0F1FB87425C
:1026500002D03000FFF74AFF03B0F0BD0064002055
:1026600084B070B50C3082B005000791089201006B
:10267000842207A809933BF0CBFC002804D102B0C8
:1026800070BC08BC04B018471C2069468023002297
:10269000091801A8CA5030F0ABFB07AC28AE2100E6
:1026A00001A8013430F0ACFBB442F8D101A830F0FD
:1026B000BFFB6A461C2180235218D05007A98422F0
:1026C00005481FF0FDFA05482DF0E0F884222800A7
:1026D00007A91FF0F5FAD2E7006400207C5900201A
:1026E00010B5040015315422FF311FF0E9FA200023
:1026F00010BDC04601228A23524238495B0070B5A2
:10270000C2500433C15036490433C15090210024D3
:10271000490042543C32FF3284523249163A8450C6
:1027200004328150C0210432494281501D3B2E4960
:102730000432835004328150043283542B4A3D3397
:10274000C25000220433C2540233C452284A023316
:10275000C4500433C250274A0433C250FF2204330A
:10276000C45012040433C2500433C450224A043308
:10277000C4500433C2521530FF30050096B05532B4
:102780000100FF3201A81FF09BFA5422290001A882
:102790003BF03EFC002801D116B070BD6846159490
:1027A00030F026FB01AC16AE21006846013430F053
:1027B00027FBA642F8D1684630F03AFB01A9542223
:1027C00015900E481FF07CFA0D482DF05FF854224A
:1027D000280001A91FF074FADEE7C0460FFFFF01D1
:1027E000010101FF801A0600FFFF1B00FF640100CA
:1027F0000000FFFFFFFF000000FFFFFF006C002054
:102800007C590020F0B504001534FF34060083B075
:102810005422104920001FF053FAB22300225B001B
:102820003500F75801A8F25030F0E2FA6935FF356B
:10283000210001A8013430F0E3FAAC42F8D101A83C
:1028400030F0F6FA874202D03000FFF753FF03B0B2
:10285000F0BDC046006C002084B070B5153082B069
:10286000FF300500079108920100542207A8099340
:102870003BF0CEFB002804D102B070BC08BC04B011
:102880001847002301A81B9330F0B2FA07AC1CAE26
:10289000210001A8013430F0B3FAB442F8D101A804
:1028A00030F0C6FA07A954221B9006481FF008FA18
:1028B00005482CF0EBFF5422280007A91FF000FA6E
:1028C000DAE7C046006C00207C59002010B50400F7
:1028D000E531034AFF311FF0F3F9200010BDC04677
:1028E0000404000084B070B5E53082B0079108920E
:1028F000FF301C4A07A9050009933BF089FB00281B
:1029000004D102B070BC08BC04B018471C2080235E
:10291000694600220918DB0001A8CA5030F068FAA5
:10292000FFAE07AC2436210001A8013430F068FA6C
:10293000B442F8D101A830F07BFA6A461C2180230A
:102940005218DB00D05007A9064A07481FF0B8F913
:1029500006482CF09BFF2800024A07A91FF0B0F997
:10296000CFE7C04604040000007000207C5900201E
:10297000F0B5CE46474680B50700494B6937FF376B
:102980000500190099B05C22380098461FF098F9AC
:10299000E0235B00EA582E009146002201A8EA508D
:1029A00030F026FA3C00C536FF36210001A801347C
:1029B00030F026FAB442F8D101A830F039FA814556
:1029C00004D119B0C0BCB946B046F0BD0123B6224F
:1029D0005B4234495200AB500432A950BA21032063
:1029E00000246C3AFF3A49006A54043168500431BB
:1029F0000238685004316C500130043168500431A1
:102A00000630685004310130685004310538685090
:102A100004316A5094328E39FF32FF39A950C918F7
:102A20000432A95004320531A950C9180432A95002
:102A30000432AB500432AB500432AB500432AB50D2
:102A40000432AB500432AB50613A3900FF3A01A86E
:102A50001FF036F95C22390001A83BF0D9FA0028B2
:102A6000AFD06846179430F0C3F901AC18AD21001F
:102A70006846013430F0C4F9A542F8D1684630F018
:102A8000D7F901A95C22179040461FF019F90648B2
:102A90002CF0FCFE5C22380001A91FF011F990E730
:102AA00000660020000001327C59002010B50400AF
:102AB00069315C22FF311FF003F9200010BDC046D0
:102AC0000123B6225B423749520070B5835004326D
:102AD0008150BA2103246C3AFF3A49004254043130
:102AE00044500431023C4450002402250431445037
:102AF0000431455004310635455004310135455007
:102B00000431053D45500431425094328E39FF3234
:102B1000FF398150C9180432815004320531815087
:102B2000C918043281500432835004328350043275
:102B3000835004328350043283500432835069300E
:102B4000FF30050098B0613A0100FF3A01A81FF07C
:102B5000B7F85C22290001A83BF05AFA002801D1FD
:102B600018B070BD6846179430F042F901AC18AE49
:102B700021006846013430F043F9B442F8D1684688
:102B800030F056F901A95C22179007481FF098F819
:102B900006482CF07BFE5C22280001A91FF090F86B
:102BA000DEE7C04600000132006600207C590020AC
:102BB00084B070B5693082B0FF300500079108928B
:102BC00001005C2207A809933BF022FA002804D1F7
:102BD00002B070BC08BC04B01847002301A81D93C4
:102BE00030F006F907AC1EAE210001A8013430F028
:102BF00007F9B442F8D101A830F01AF907A95C220C
:102C00001D9006481FF05CF805482CF03FFE5C2242
:102C1000280007A91FF054F8DAE7C0460066002034
:102C20007C59002010B505482CF0AAFEFA2200209D
:102C30000349D2001CF034FB10BDC0467C59002073
:102C40000020042010B5842290301FF039F810BD08
:102C500010B50400842290311FF032F8200010BD1E
:102C6000030010B50C3301708422190090301FF05E
:102C700027F810BD00787047416070474068704782
:102C8000816070478068704710B5C53020220021F0
:102C9000FF301FF00FF810BDC530FF307047C04641
:102CA000F0B5C6462F4B80219846050000B50901B6
:102CB00086B00D2241441FF003F86A782B78120287
:102CC0001A43AB78EF781B0413433F061F430023DE
:102CD0002E0002A82B706B70AB70EB702C0030F0E4
:102CE00087F80D36210002A8013430F089F8B4428B
:102CF000F8D102A830F09CF8874204D1280006B031
:102D000080BCB846F0BD02234B2200242B71AB716E
:102D1000013BEB71543329006A712B723E3A2D3B13
:102D200002A86C72AB72EC722C7315261EF0C8FFF1
:102D300001A8029430F05CF802AC6E44210001A8B6
:102D4000013430F05DF8A642F8D101A830F070F8F7
:102D50000290802000010D22404402A91EF0B0FF25
:102D6000CCE7C0460060002030B58BB0010002A85F
:102D7000FFF796FF154C0D22210002A83BF048F901
:102D8000002801D10BB030BD21000D2206A81EF095
:102D900097FF0023252501A8069330F029F806ACFB
:102DA0006D44210001A8013430F02AF8AC42F8D17A
:102DB00001A830F03DF80D22069006A904481EF047
:102DC0007FFF04482CF062FDDCE7C046F05F002086
:102DD000006800207C5900200123F0B5DE465746EC
:102DE0004E464546574A5B42E0B513600023FF2636
:102DF000FF2153609360D3601361534A534F1360B4
:102E0000534A544D1760544A544C1660544A55481E
:102E10001560554A09021460544A8FB01060544A34
:102E20001160544A54498C461160544A5449116007
:102E30008846544A544911608946FF21534A09047F
:102E400011608A46524A53491160534A53490494C7
:102E50001160534A5349544C1160FF2212020692EA
:102E600062460792424608924A468B46099252466B
:102E70000A925A46474905900B91484938200093D9
:102E800023606360A36003950C910D9201970296F5
:102E90001EF01CFF05003822694638352060A56009
:102EA0001EF00EFF414942486560FFF771FA414943
:102EB0004148FFF76DFA41494148FFF769FA414936
:102EC0004148FFF765FA41494148FFF761FA414936
:102ED0004148FFF75DFA41494148FFF759FA414936
:102EE0004148FFF755FA41494148FFF751FA414936
:102EF0004148FFF74DFA41494148FFF749FA414936
:102F00004148FFF745FA41494148FFF741FA414935
:102F10004148FFF73DFA41494148FFF739FA414935
:102F20004148FFF735FA41494148FFF731FA414935
:102F30004148FFF72DFA0FB0F0BCBB46B246A94698
:102F4000A046F0BD6C5C0020AC290020FFFFFF0014
:102F50007C2A0020FF800000C45B0020FFFF0000EF
:102F6000E82A002080FF0000B82B0020D42D00208C
:102F7000142A0020B82C002000FF8000405E0020B2
:102F800000FFFF00202D00200080FF00A85E002031
:102F9000502B00208000FF00105F0020FF00FF008A
:102FA000502C0020FF008000EC5900203CED031065
:102FB000CC48002040ED0310E04A002048ED03100B
:102FC000C04C0020B4F90310E856002050ED031067
:102FD0004C32002054ED03102C34002058ED031027
:102FE0000C3600205CED0310EC37002060ED031080
:102FF000CC39002064ED03106C3F002068ED031015
:10300000AC3B00206CED03104C41002070ED031030
:103010000C45002074ED0310EC46002078ED031001
:103020008C3D00207CED03102C43002080ED03102C
:103030008C2E002084ED03106C3000208020800353
:103040007047C0460148024BC01A704764B7091068
:1030500000000010024B0348C01A034BC018704711
:103060000000042000200420582B01000148024BDE
:10307000C01A704700000420582B012000B58BB007
:10308000684639F081FF07980BB000BD10B5040009
:1030900001200649404228F009FE054B002200218C
:1030A00000201C621CF0FCF830BFFDE7FFFFFF0FA3
:1030B0000080054010B51CF041F9002811D00A4BE2
:1030C000186A0A4B984208D0094B984205D0094B20
:1030D000C3185A4253415B4218400022024B1A6205
:1030E00010BD0020FCE7C04600800540CD66D543FA
:1030F000A58477E71F1BC80810B52FF01DFF10BD72
:10310000054B10B51A0018680832904203D0996830
:1031100001311EF0E7FD10BD5080002010B52FF0EA
:1031200057FF0A4B0CCB110019430AD00849486AD3
:10313000834206D8896A914204D3064B1868FFF788
:10314000A5FF10BD8342F8D1FBE7C04658260020FA
:1031500000400540D42A002070B500291AD05468D8
:1031600093681034A34213D34C68103B1E00936045
:10317000002C0BD01D1B2D1165814B6000240021FC
:103180001C725981D9600660426070BD0B60F4E723
:10319000012313740026F6E7F0B507000837040092
:1031A0000E0083B00760002923D008003BF0AEF981
:1031B000050001900F280DD8012808D1337823721B
:1031C0000021019B22686360D15403B0F0BD002848
:1031D000F6D008E00022200001A931F0E5FC07004C
:1031E000019B2060A3602A00310038001EF068FDBA
:1031F000E6E7014831F0BCFB08ED0310F0B54746A7
:10320000CE4680B5254B80460E00170083B0551A78
:103210009D4240D80024002D03D028001EF056FD0A
:103220000400434665191C609D60B7420BD128E03D
:10323000012D2DD11B78237200231836656043556C
:103240001834B7421DD0200033687568083099469D
:10325000206001950F2DEBD90022200001A931F04B
:10326000A3FC019B2060A3602A0049461EF028FDB4
:103270000023019D20681836656043551834B74215
:10328000E1D143465C6003B0C0BCB946B046F0BD76
:10329000002DD1D0E8E7024831F082FBF8FFFF7F34
:1032A000FCF10310F8B506000D001700002918D036
:1032B0000468002C17D02800E1683BF0A9F800282A
:1032C0000BD00A22A35E002B0DD01B01E4182800AE
:1032D000E1683BF09DF80028F3D12000F8BD012300
:1032E0003B740020FAE77B68BC6810339C42F6D33D
:1032F0007368103CBC60002B09D0E21A12115A818D
:1033000000237460200063812372E560E6E7346087
:10331000F6E7C046F8B51500202203000E00815CD8
:10332000100008400A4248D0002E45D09C69002C6D
:1033300042D03000E1683BF06BF800280BD00A2245
:10334000A35E002B38D01B01E4183000E1683BF08D
:103350005FF80028F3D17F23227A13400A2B3CD058
:103360000FD8062B2AD0082B26D105CC2968CB17DD
:10337000934230D82DD09A4237D89A4237D0012084
:103380001BE00C2B18D12668676828681DF024FF05
:1033900004000D0002000B00300039001DF0EEFEAD
:1033A000002818D12B002200300039001DF0FCFE4F
:1033B000431E9841013000E00020F8BD2B682078C2
:1033C000002B08DB834206D8834280414042013013
:1033D000F3E78142CFD90420EFE7296805CCCB176A
:1033E0009342F8DC07D09A42C7DD0220E5E7884225
:1033F000FBD80120E1E78142F5D90420DDE7C04692
:10340000202370B542680600D15C01200B4244D0F5
:10341000B568002D41D09469002C3ED02800E168A9
:103420003AF0F6FF00280BD00A22A35E002B33D01F
:103430001B01E4182800E1683AF0EAFF0028F3D104
:10344000237A9B0628D5F568002D25D02468002C0A
:1034500022D02800E1683AF0DBFF00280BD00A22D6
:10346000A35E002B18D01B01E4182800E1683AF095
:10347000CFFF0028F3D17F23227A1340202B0DD8D1
:103480007E210120114208D0074A023BDBB2DA401C
:1034900013000340584000E0012070BD403B5A1E1D
:1034A0009341D8B2F9E7C0465F050040F8B5170070
:1034B0007F220D001100037A060019401A4203D042
:1034C00000209B0606D4F8BD9343202213430372C9
:1034D00001604160002D18D03468002C17D02800FE
:1034E000E1683AF095FF00280BD00A22A35E002B7A
:1034F0000DD01B01E4182800E1683AF089FF00288C
:10350000F3D12000DFE701233B740020DBE77B6879
:10351000BC6810339C42F6D37368103CBC60002B2F
:1035200009D0E21A12115A810023746020006381CD
:103530002372E560C7E73460F6E7C046F0B545465C
:10354000DE4657464E467F23E0B5027A05000C0062
:10355000A1B01340402B25D8C54A9B00D3589F46A5
:103560000668476832003B00300039001DF0FEFD60
:10357000002817D000220023300039001DF0F6FD8E
:10358000002800D080E132003B00300039001DF0FF
:1035900083FD02000B00300039001DF0E7FD00281C
:1035A00000D171E12068B34B42689B1A032B01D80C
:1035B00000F0E8FCB049042231F0F4FC6368043305
:1035C000636021B0F0BCBB46B246A946A046F0BD40
:1035D0002068A84B426822CD9B1A9D4201D900F079
:1035E000D1FC2A0031F0DEFC63685B196360E8E718
:1035F00008682221C0CD31F073FB6368013363603A
:10360000002F23D09D4BF71998469A4B9A469C4B16
:10361000994622254346317804E09D780233002DF7
:1036200000D1EFE25A788A42F7D15C21206831F06C
:1036300057FB6368290001336360206831F050FB59
:103640006368013301366360B742E2D1222120680A
:1036500031F046FB636801336360B2E703780868C2
:103660004268002B00D159E3824B9B1A032B01D8EF
:1036700000F088FC83499EE702AA762394466344BF
:1036800098461D0007684668380031000A2200236A
:103690001DF0FCFA013D303233002A700E003A0072
:1036A0000700002BF0D1092AEED8434620685E1BA4
:1036B0004268704B9B1A9E4201D900F063FC3200B5
:1036C000290031F06FFC63689B19636079E7066835
:1036D0004768002F01DA00F0F8FB02AA5E23944647
:1036E000634498461D00300039000A2200231DF073
:1036F000CDFA013D30323B002A700F003200060047
:10370000002BF0D1092AEED8CFE708687B2131F0F1
:10371000E7FA6368013363602B689A46002B00D197
:10372000F4E2564B9946534622212068DF6831F077
:10373000D7FA63680133636000233E789846002E11
:1037400049D05346029322254B46013704E09D7829
:103750000233002D00D140E25A78B242F7D12668F8
:10376000320033680832934200D1C9E2B26871680E
:103770008B46012159448A46914200D9B6E25A4605
:103780005C219954534652464146736033689954BC
:103790006368266801336360736832009B460123C7
:1037A0005B449A4633680832934200D1ACE2B26877
:1037B000924500D990E25A469D545346736033684F
:1037C0005246414699546368013363603E78002E47
:1037D000B9D1029B9A462221206831F081FA6368B0
:1037E0003A2101332068636031F07AFA636821007E
:1037F000013363605046FFF7A1FE53460A229B5EE9
:10380000002B00D182E21B012C2120689A4431F068
:1038100067FA63680133636085E708685B2131F00C
:103820005FFA63682D6801336360002D18D02100B2
:103830002800FFF783FE0A22AB5E002B10D01B018D
:103840002C212068ED1831F04BFA63682100013318
:1038500063602800FFF772FE0A22AB5E002BEED1F8
:103860005D21206831F03CFA636801336360A8E6AB
:103870007CF20310FFFFFF3F5CF2031032F20310F3
:1038800064F203106CF203100022002330003900B0
:103890001DF074FC002800D003E300223000390042
:1038A000E34B1DF079FC002800D044E20022002305
:1038B000300039001DF078FC002800D113E33000FF
:1038C0003900DC4ADC4B1DF05FFC002800D10AE324
:1038D00030003900D94ADA4B1DF050FC002800D1E5
:1038E0004DE330003900D74BD74A1DF0FCFBD74BD6
:1038F00006000F009B4630003900D54AD54B1DF01D
:103900003DFC00280BD030003900D34BD34A1DF0CA
:10391000EAFB5B46803B1BB206000F009B46300073
:103920003900CF4ACF4B1DF029FC00280BD03000C6
:103930003900CD4BCD4A1DF0D6FB5B46403B1BB258
:1039400006000F009B4630003900C94AC94B1DF0E4
:1039500015FC00280BD030003900C74BC74A1DF0BA
:10396000C2FB5B46203B1BB206000F009B463000AB
:103970003900C34AC34B1DF001FC00280BD03000B6
:103980003900C14BC14A1DF0AEFB5B46103B1BB278
:1039900006000F009B4630003900BD4ABD4B1DF0AC
:1039A000EDFB00280BD030003900BB4B00221DF08E
:1039B0009AFB5B46083B1BB206000F009B4630009B
:1039C0003900B64AB64B1DF0D9FB00280BD03000A9
:1039D0003900B44B00221DF086FB5B46043B1BB252
:1039E00006000F009B4630003900AF4AAF4B1DF078
:1039F000C5FB00280BD030003900AD4B00221DF074
:103A000072FB5B46023B1BB206000F009B46002286
:103A100030003900A74B1DF0B1FB00280BD030005F
:103A20003900A54B00221DF05EFB5B46013B1BB23B
:103A300006000F009B46300039001DF009FC050010
:103A4000092800D887E2082399469C4B02960397E1
:103A500082464F46A1461C000A2120001DF0D8F8DE
:103A6000A84604000A2128001DF0D2F842463B0077
:103A7000013F0500FFB2632AEED8029E039FA046D5
:103A80005BB240464C4699461DF0A2FB554602905B
:103A9000039128001DF09CFB02000B003000390050
:103AA0001DF0F1FA029A039B1DF01DFB06000F00AA
:103AB0001DF0CEFB82461DF08BFB02000B00300098
:103AC00039001DF0E0FA02000B001DF0E5FA1DF0D0
:103AD000BFFB50440600404500D2EEE15B460026A5
:103AE0000135002B00D1EEE1092D00D8EBE10133C7
:103AF0001BB29B4601254F460BE00A2130001DF00A
:103B000087F8013F0A2106007FB21DF081F80029E5
:103B100001D1002FF1DCB94602AA2E23944663445A
:103B200098461F00A24628000A211DF071F8013FA7
:103B30003031280039700A211DF06AF82C00050088
:103B4000092CF0D8544643462068DD1B42685C4B84
:103B50009B1A9D4200D915E22A00390031F022FA61
:103B600063685B1963604B46002B00D0BEE15B4687
:103B7000002B00D125E56521206831F0B1F863689C
:103B8000013363605B46002B00DAEDE19DB202AACF
:103B900046239446634498461E0028000A211DF0DF
:103BA00037F8013E3031280031700A211DF030F81D
:103BB0002F0085B2092FF0D8434620689D1B42682C
:103BC0003F4B9B1A9D4200D9DCE12A00310031F0C5
:103BD000E9F963685B196360F3E425686B682A00A0
:103BE0009B4601235B449A462B680832934200D1DE
:103BF00088E0AA68924565D85A469E5453466B6041
:103C00002B68DDE52068002904D031F069F863688D
:103C1000013317E552464368D31A052B00D8B1E1AA
:103C20000622494631F0BEF9636806330AE5C0460C
:103C3000D0126341F168E388B5F8E43E148BD77D78
:103C4000B207FE0ADD4F15753CBF737F00FFFFFF13
:103C5000C2DEB781455491254877825A321D30F92A
:103C60000DD13196FC53DA32034F384DF5F93FE967
:103C700080688965D6398039B5B89346176E05B521
:103C80001656E79EAF03D23C79C341430080E0372C
:103C900048AFBC9AF2D77A3E84D79741FCA9F1D2BB
:103CA0004D62503F0088C3409A9999999999B93FBC
:103CB000000059400000F03F0000244000CA9A3B39
:103CC000FFFFFF3F012300220093594600232800F5
:103CD00030F0ACFF2B688FE7012300220093594698
:103CE0000023300030F0A2FF336864E50123002296
:103CF000009359460023300030F098FF33683EE5CA
:103D00000F2234E50F2275E70F2251E57D2120684F
:103D100030F0E6FF63680133636052E49B4B9B1A0B
:103D2000042B00D82EE10522994931F03BF9636854
:103D30000533636045E430003900964A964B1DF028
:103D40002BFA002800D103E130003900934B944A4C
:103D50001DF0C9F980235B0006000F009B46300070
:103D60003900904A904B1DF017FA00280BD0300014
:103D700039008E4B8E4A1DF0B6F95B4680331BB27C
:103D800006000F009B46300039008A4A8A4B1DF01E
:103D900003FA00280BD030003900884B884A1DF008
:103DA000A2F95B4640331BB206000F009B46300071
:103DB0003900844A844B1DF0EFF900280BD0300005
:103DC0003900824B824A1DF08EF95B4620331BB2CC
:103DD00006000F009B46300039007E4A7E4B1DF0E6
:103DE000DBF900280BD0300039007C4B7C4A1DF0F9
:103DF0007AF95B4610331BB206000F009B46002287
:103E000030003900774B1DF0C7F900280BD0300087
:103E10003900754B754A1DF066F95B4608331BB2D5
:103E200006000F009B46002230003900704B1DF049
:103E3000B3F900280BD0300039006E4B6E4A1DF0EC
:103E400052F95B4604331BB206000F009B4600226A
:103E500030003900694B1DF09FF900280BD030006D
:103E60003900674B674A1DF03EF95B4602331BB2CF
:103E700006000F009B46002230003900624B1DF007
:103E80008BF9002800D1D6E5300039005F4B604A3D
:103E90001DF029F95B4601331BB206000F009B465B
:103EA000C9E52D21206830F01BFF802163680906D9
:103EB000013363607B181F00EFE40A211CF0A8FEA9
:103EC000002900D028E64F4623E608682D2130F06F
:103ED00007FF63683200013363603B0000275642EE
:103EE0009F41FFF7FAFB00239B46A4E54D46013DA9
:103EF000EBB2984608AB9A461F006DB230000A211B
:103F00001CF086FE013F3031300039700A211CF070
:103F10007FFE013D6DB206006B1CEFD102224346CD
:103F20005242D21A4046534699181B1A2E20023B81
:103F300018702068154B456852425B1B9A4221D885
:103F400031F030F8434662680233D31863600EE6FE
:103F500000239B4603E700222E4B02920393092382
:103F600099462D4B984694E52D21206830F0B8FEF7
:103F70006368013363605B465D42ADB207E60023D0
:103F80009B46B8E4254830F00BFDC046FFFFFF3FDD
:103F900074F203103CBF737FDD4F15752806C80A05
:103FA000436FAC64321D30F94877825A08BA5B25FA
:103FB0009D978CCFF5F93FE9034F384DFD0FA532A2
:103FC0003DA7F444176E05B5B5B8934623F64939B5
:103FD00033A7A8D50080E03779C34143B2D29C3CD7
:103FE000BC89D89784D797418E79453E3A8C30E288
:103FF0000088C340E2361A3F2D431CEB00005940B5
:10400000E17A843F7B14AE47000024409999B93F80
:104010009A99999965CDCD4100CA9A3B44F2031013
:10402000F0B5DE46454657464E46E0B58B4601782C
:104030008DB088462B2900D121E100218A464146D6
:104040002D2904D141780130884601218A46414614
:104050003039CCB2A146092C6BD9424600232E2A16
:104060005FD10024002500274278431C9046303A57
:10407000D2B2092A17D8CB498C46CB498846654528
:1040800004D800D044E1444500D841E15A780133D6
:104090009046303A092A06D85A780133110030394F
:1040A0000929F9D99046202241469143452900D15A
:1040B000AEE03E004346002B00D04FE12000290037
:1040C0001DF0D2F8002E00DCE5E0B84D01242F00F1
:1040D000454634420AD0EB001A000432BA58FB5865
:1040E00008920993089A099B1CF0FDFF0135761090
:1040F000EDB2002EEDD15346002B04D00D008021EF
:1041000009066B1819005B467F221B7A93430C2229
:1041100013435A4613725B460A00010019605A6045
:10412000012318000DB0F0BCBB46B246A946A0461C
:10413000F0BD9F4E0024B4460E0000254946B1460E
:1041400012E0417801308846009C019D30214942AF
:1041500041448946C9B2A4197D4109291BD8654546
:1041600000D996E000D190E0A60FAB003343A20047
:10417000A4185D410091002126002F0001910099B3
:10418000B6197F41C94334003D000391791CD8D151
:104190000399B142D5D243464946002B00D0D6E020
:1041A0005346002B00D1F1E080231B069D4200D82E
:1041B00090E0A0231B0499465346002782460093B3
:1041C0000391200029000A2200231CF05FFD013723
:1041D0002E0004000D003FB24E45F2D2009B504627
:1041E0009A460399C9B2030009290BD819005A78D5
:1041F00001331600303E092EF8D990463A1A0132A2
:1042000089180FB242462E2A00D04CE718002BE73F
:104210005A7890462D2A00D1D0E02B2A6FD0414603
:1042200030395A1CCBB2092B00D942E79A237818AF
:104230005B00984200DDD1E000209A2684460B0006
:10424000380000940195760007E09900C9184900EC
:104250007B181918B14200DD82E0517801320F005D
:10426000303FFDB2092DF0D90700009C019D60464A
:104270008846FE1A002800D01CE7DE191AE74178AC
:104280000130884600218A46E1E64A4EB44200D811
:104290006AE749468DE77442002E00D12BE70126DC
:1042A000454D4746A946B046434623420CD0FB0045
:1042B0001A0000934B4604329D584A46009BD6583C
:1042C0002A0033001CF00FFF01376410FFB2002CEE
:1042D000EAD110E79D4202D1002C00D069E75B468D
:1042E0007F221B7A594693430A2213435A4613727C
:1042F00000236242AB410A604B60012311E79A1C24
:104300009B78190030399846CBB2092B8ED9D0E66C
:10431000A60FA90031430591A100049104980599C5
:1043200024184D410692002224196D415E780792AF
:104330000699079A641855413200303A013FD2B2CB
:1043400001333FB2092A00D899E6B046ABE6802394
:1043500000275B039D4200D32BE743E70023E0E601
:10436000604600283AD0534600200021002B01D09F
:10437000802109065B467F221B7A93430C2213435C
:104380005A461372106051600123CAE65B467F22D1
:104390001B7A9343082213435A46137214605560E4
:1043A0000123BEE69999010098999999ACFD0310F3
:1043B000999999199999999964FD03109A1C9B7878
:1043C000190030399846CBB2092B00D971E69A23EF
:1043D00078185B009842C6DC01202EE75346002087
:1043E000002B01D00149C5E70149C3E70000F0FFF8
:1043F0000000F07FF0B5DE46574645464E46E0B534
:10440000784C82468BB020008B4630F0B9F8764D60
:10441000002800D0BEE000232A686B6013706A6831
:10442000724B9B1A5A2B00D8D8E05B2228007049A7
:1044300030F0B8FD5B465C68092C00D8B7E0632C0F
:1044400000D8C1E0FA239B009C4200D2BEE0694B39
:104450009C4200D8BCE0684B9C4200D8BAE0674B55
:104460009C4200D8B8E0664B07219C4222D9654B9C
:104470009C421ED9644B09219C421BD9013104ABDB
:104480009946002206AB48460293049330F0AAFBFB
:10449000049B01934B465E68632C18D85B4B98468F
:1044A000434664001B195B78019A537043461C5DB8
:1044B00037E0082104AB9946002206AB4846029338
:1044C000049330F08FFB049B01934B465E68019B85
:1044D000023E9C464D4B6644984653463700AA46DA
:1044E0000393200064211CF093FB20004E00642104
:1044F0001CF08EFB43469B195B7825007B7043467E
:104500009B5D04003B703B4B023F9D42E9D8039BFF
:104510002F0055469A46FA239B009F42C0D2303462
:10452000E4B2019B1C704B4668685A682F4B049993
:104530001B1A9A4252D8280030F034FD0498029B8E
:10454000984204D04B46996801311DF0CBFB6B6853
:10455000264CE31A032B41D904222D49280030F0C0
:1045600021FD5B4606CB6B68E41AA24236D82800D0
:1045700030F018FD52462B68012013606B685360C1
:1045800093600023D3600BB0F0BCBB46B246A94693
:10459000A046F0BD2B0008332B6000231D486B6044
:1045A0002B7238F0F7F9200030F006F833E704AB4F
:1045B0009946002206AB012148460293049330F04D
:1045C00011FB049B0193AAE7022158E7032171E73D
:1045D00004216FE705216DE705214FE70E4830F014
:1045E000DFF9C0469029002050800020FFFFFF3FE8
:1045F00080F303100F2700009F8601003F420F0049
:104600007F969800FFE0F505FFC99A3BF4FD031083
:10461000DCF303100131001044F2031030B50C003C
:1046200083B000291CD0042220000F4939F0CAFDB4
:10463000051E15D1200039F069FF03000B48002149
:1046400042680093230030F0DBFB8022084B0021FE
:10465000084812011D801DF02DFB002003B030BD65
:1046600010204042FAE7C046E4F30310A82D0020D2
:104670002E2B0120404E0020F0B5C6460C0000B5A0
:10468000164E002919D08027154B358898463F01D2
:104690000BE043466168E8181DF012FB638924684B
:1046A000ED18ADB23580002C07D06289AB18BB4243
:1046B000EFDD01235B42338000E00024200020F086
:1046C000F1FC084B30889C4660444342584101232A
:1046D0004042984380BCB846F0BDC0462E2B012016
:1046E000404E00200100FFFF094B70B515001A88ED
:1046F000084B0C009A4209D0074B2A001968200089
:1047000039F094FD0023611901390B7070BDC0466A
:104710002E2B0120FFFF0000A82D0020F0B54546FC
:10472000DE4657464E468046A020E0B54E4CC001BE
:10473000A5441DF069FA051E00D18FE0A023DB011E
:10474000994681444B46002708930993282304ACDB
:10475000E754464B069518009A46079527762FF0A2
:104760000FFF434E002865D1310011A8FEF7AEF8C7
:1047700028232022E254183B9C4600260027AC4404
:104780000C960D97E1456CD302A84A4681463B2022
:1047900000214844009001900820103A5181354989
:1047A00082468020D1604021C0001660576011729F
:1047B000130000260027814622610C920D923F399A
:1047C000634515D35668103B002E31D0981B00115D
:1047D000708101985360465C50465F81DF601872BB
:1047E0001E605F60494507D0012601316345E9D26B
:1047F00001222276002E00D0236143464246083330
:104800001360002302A9536013720CA80292039351
:10481000FEF794FE002D02D028001DF033FA40462A
:10482000154B9D44F0BCBB46B246A946A046F0BD20
:104830001360CEE7114877602BF06EF83000FDF77B
:10484000E9FE3000FDF7DEFF3000FEF791F83000A2
:10485000FDF7D0FD50462FF0AFFE85E700239946C7
:1048600070E70F3B2376C8E7B4FBFFFF98290020D1
:10487000B0800020ECF303104C04000080590020AD
:10488000F0B5DE4657464E464546E0B50700802067
:1048900095B000011DF0B8F9061E0A900B9000D1EA
:1048A00086E080231B01C3180D9308AB98460023B4
:1048B0009B4643465A4605AD664928001A76FCF7E2
:1048C000DDFF2B7820229A46AB7841469946282373
:1048D000CA54183B9C46B44463460193FE23DB0054
:1048E000F4185B4663815C4B163AE3606B780C61AD
:1048F00023605B461094119422726360002C00D1F7
:1049000070E0564B25009B46E968584639F080FD1B
:1049100000280BD00A22AB5E002B63D01B01ED18E0
:104920005846E96839F074FD0028F3D17F21002250
:104930002B7A8B4375390B432B7253466A602B607D
:10494000002C63D0464DE168280039F061FD002855
:104950000BD00A22A35E002B58D01B01E4182800BC
:10496000E16839F055FD0028F3D17F210022237A38
:104970008B4375390B4323724B46626023603B00C7
:1049800008333B60002303A97B603B7210A80397A8
:104990000493FEF7D3FD002E02D030001DF072F913
:1049A000380015B0F0BCBB46B246A946A046F0BDE3
:1049B00000240025274905A80C940D95FCF75EFFFF
:1049C00002AB1B7B20229A4602AB9B7B1094119575
:1049D000994608AB984628234146CA54273B0B7694
:1049E0000F330193019BA3422FD825004346103D6E
:1049F0001D6101235B42638143465D6200236B813D
:104A00002B72164B0022EB600A2395E743461C6984
:104A1000019BA34215D84346103C1C615B6A002BE6
:104A20000CD0E21A12115A8143465C620023638162
:104A300023720B4B0022E3600A239CE743461C626F
:104A4000F2E701234246137699E7012342461376A3
:104A500076E7C046141F0020F8F3031004F4031097
:104A600010F40310F0B5DE46454657464E468046E4
:104A70008020E0B50001EDB01DF0C6F80200031E75
:104A800003D0802109018C4660440024159328231B
:104A900012ADEC54E84B1790169018009B461492F8
:104AA0002C762FF06DFDE54F002801D000F0F9FCC9
:104AB00034AC39002000FDF7F9FF389B399E0F9385
:104AC0003A9B14AA0E933B9B1AA80D933C9B0C9304
:104AD0003D9B0B933E9B0A933F9B0993409B0893FE
:104AE000419B0793429B0693439B0593449B0493EE
:104AF000459B0393469B0293479B0193489B994692
:104B0000499BCF499A46FEF7D1FC002809D07F2166
:104B1000037A359A8B430A2102600B43D217037242
:104B20004260C84914AA1AA8FEF7C0FC002809D0A0
:104B30007F21037A227A8B430A210B4303720023DD
:104B400002604360C04914AA1AA8FEF7AFFC00280F
:104B500009D07F21037A627A8B430A210B430372C7
:104B6000002302604360B94914AA1AA8FEF79EFC0C
:104B7000002809D07F21037AA27A8B4308210B43B6
:104B80000372002302604360B14914AA1AA8FEF719
:104B90008DFC002809D07F21037AE27A8B4308211B
:104BA0000B430372002302604360AA4914AA1AA8A7
:104BB000FEF77CFC002809D07F21037A227B8B43FF
:104BC00008210B430372002302604360A24914AA28
:104BD0001AA8FEF76BFC041E00D1BFE17F22037A06
:104BE0009E499343202213430372002303604360D2
:104BF0000F9B14AA013301D100F0B7FDFEF752FB61
:104C0000002809D07F22037A93430A2213430372B8
:104C10000F9B0360DB1743602000914914AA731CAB
:104C200001D100F096FDFEF73DFB002808D07F2261
:104C3000037A066093430A22F61713430372466011
:104C40000E9B2000874914AA013301D100F075FDA5
:104C5000FEF728FB002809D07F22037A93430A221B
:104C6000134303720E9B0360DB1743600D9B200010
:104C70007D4914AA013301D100F07BFCFEF712FB41
:104C8000002809D07F22037A93430A221343037238
:104C90000D9B0360DB1743600C9B2000734914AA33
:104CA000013301D100F077FCFEF7FCFA002809D0AF
:104CB0007F22037A93430A22134303720C9B0360FF
:104CC000DB1743600B9B2000694914AA013301D113
:104CD00000F073FCFEF7E6FA002809D07F22037A81
:104CE00093430A22134303720B9B0360DB17436059
:104CF0000A9B20005F4914AA013301D100F06FFC28
:104D0000FEF7D0FA002809D07F22037A93430A22C3
:104D1000134303720A9B0360DB174360099B200067
:104D2000554914AA013301D100F06BFCFEF7BAFA21
:104D3000002809D07F22037A93430A221343037287
:104D4000099B0360DB174360089B20004B4914AAB2
:104D5000013301D100F067FCFEF7A4FA002809D066
:104D60007F22037A93430A2213430372089B036052
:104D7000DB174360079B2000414914AA013301D18E
:104D800000F063FCFEF78EFA002809D07F22037A38
:104D900093430A2213430372079B0360DB174360AC
:104DA000069B2000374914AA013301D100F05FFCB3
:104DB000FEF778FA002809D07F22037A93430A226B
:104DC00013430372069B0360DB174360059B2000BF
:104DD0002D4914AA013301D100F05BFCFEF762FA01
:104DE000002809D07F22037A93430A2213430372D7
:104DF000059B0360DB174360049B2000234914AA32
:104E0000013301D100F057FCFEF74CFA002809D01D
:104E10007F22037A93430A2213430372049B0360A5
:104E2000DB174360039B2000194914AA013301D109
:104E300000F053FC2EE0C04698290020B0800020EE
:104E40001CF4031024F4031030F403103CF403109A
:104E50004CF4031060F4031070F403103CED0310E5
:104E600040ED031048ED0310B4F9031050ED0310AA
:104E700054ED031058ED03105CED031060ED0310CA
:104E800064ED031068ED03106CED031070ED03107A
:104E900074ED0310FEF706FA002809D07F22037A8A
:104EA00093430A2213430372039B0360DB1743609F
:104EB000029B2000AF4914AA013301D100F01FFC6E
:104EC000FEF7F0F9002809D07F22037A93430A22E3
:104ED00013430372029B0360DB174360019B2000B6
:104EE000A54914AA013301D100F01BFCFEF7DAF941
:104EF000002809D07F22037A93430A2213430372C6
:104F0000019B0360DB1743604B4620009B4914AABA
:104F1000013300D123E3FEF7C5F9002809D07F2231
:104F2000037A93430A22134303724B460360DB1751
:104F3000436053462000924914AA013300D104E390
:104F4000FEF7B0F9002809D07F22037A93430A22A2
:104F50001343037253460360DB17436058462FF038
:104F60000FFB002800D0DBE23800FDF787FE854903
:104F7000060014AA1AA8FEF799FA041E1ED07F2272
:104F8000037A002193434022134303729C23EA686F
:104F900001604160F0582B691032934201D200F059
:104FA00093FC0022103B2B61236063601A725981CD
:104FB000D960027808201A6018725960A023F3584B
:104FC00014AA21004BA89946FEF7C6F84B9A002A6E
:104FD0000AD04B467F201978137A1160834308204A
:104FE0000343137200235360A423F35814AA21002F
:104FF0004BA89946FEF7B0F84B9A002A0AD04B46C8
:105000007F201978137A11608343082003431372B9
:1050100000235360A823F35814AA21004BA89946F3
:10502000FEF79AF84B9A002A0AD04B467F2019784F
:10503000137A1160834308200343137200235360E3
:10504000AC23F3589C46002C01D100F0F0FB102259
:105050009146EB6899442B699A46994501D900F02D
:1050600037FC1A006168103A2A61002900D116E263
:10507000501A0011488100200021626010726046C1
:1050800008235181D160007813725160B0311060F3
:105090007058914501D900F01BFC52466168203AD6
:1050A0002A61002900D1B2E3531A1B114B8100235E
:1050B00000216260137208235181D160007813725D
:1050C0005160B43110607058914501D900F000FC76
:1050D00052466168303A2A61002900D195E3531A9B
:1050E0001B114B8100230021626013720823518140
:1050F000D160007813725160B831715810609145D9
:1051000001D900F0E5FB53466268403B2B61002A61
:1051100000D178E3981A00115081002000226360CA
:10512000187208205A81DA600978187206C3BC2305
:10513000F35821009A4614AA4BA8FEF70DF85346DF
:105140004B9A1978002A00D148E37F20137A116026
:1051500083430820034313720023536010229146B7
:10516000C033F058EB6899442B694B4500D23BE3C0
:105170000AE0C04678ED03107CED031080ED0310CB
:1051800084ED031080F403106268103B2B61002A49
:1051900000D132E3991A0911518100220021636084
:1051A00019725A81DA6001780820187206C3C42384
:1051B000F35814AA21004BA89946FDF7CDFF4B9A4E
:1051C000002A0AD04B467F201978137A1160834356
:1051D00008200343137200235360C823F35814AA12
:1051E00021004BA89946FDF7B7FF4B9A002A0AD039
:1051F0004B467F201978137A1160834308200343BC
:10520000137200235360CC23F35814AA21004BA837
:105210009946FDF7A1FF4B9A002A0AD04B467F2002
:105220001978137A11608343082003431372002313
:105230005360D023F058002C00D1EAE210229146AE
:10524000EB6899442B69994500D937E36268103BB4
:105250002B61002A00D1CEE2991A09115181002256
:105260000021636019725A81DA600178082018728F
:1052700006C3D423F35821009A4614AA4BA8FDF77D
:105280006BFF53464B9A1978002A00D182E27F20A7
:10529000137A116083430820034313720023536081
:1052A000D833F058002C00D1F2E210229146EB687E
:1052B00099442B694B4500D272E26268103B2B6126
:1052C000002A00D195E2991A0911518100229246D3
:1052D00063601A725A81DA60027808211A605246B5
:1052E00019725A60DC23F358210014AA4BA80193C9
:1052F000FDF732FF019B4B9A1978002A00D140E25A
:105300007F20137A116083430820034313725346AE
:105310005360E023F05810229146EB6899442B69C2
:105320004B4500D233E26268103B2B61002A00D16A
:105330005DE2991A091151810022002163601972FE
:105340005A81DA6001780820187206C358462FF097
:1053500017F9002800D0B9E039004BA8FDF7BEF8D6
:10536000210014AA1FA8FDF7F7FE1F9B002B0DD0EC
:1053700084217F20490010AA521811781A7A1960E6
:105380008243082002431A7200225A60210014AAA4
:105390001FA8FDF7E1FE1F9B002B0DD00A217F20E7
:1053A000FF3110AA521811781A7A19608243082026
:1053B00002431A7200225A6058462FF0E1F8002882
:1053C00000D098E039001FA8FDF78AF9210014AA3F
:1053D00010A8FDF7C1FE109B002B0DD03C20202211
:1053E00010A90918895C1A7A4330824308200243C5
:1053F0001A72002219605A60002C36D0E9682B69B5
:105400001031994200D95CE21A006068103A2A61B2
:10541000002800D1F5E1161A361146812126B4463E
:1054200010AF1B36BF1966460020BE5D08276260BC
:105430005081D060177216605060914200D940E2EE
:105440006268203B2B61002A00D1D8E1991A09112A
:10545000518163603C24282110A800190022415C7E
:1054600008205A81DA60187206C343464246083360
:10547000136000231AA85360137210A9109211939D
:10548000FEF75CF8A868002801D01CF0FBFB404642
:105490006DB0F0BCBB46B246A946A046F0BD226046
:1054A000E9E5EE487C602AF037FA3800FDF7B2F8FB
:1054B0003800FDF7A7F93800FDF75AFA3800FCF775
:1054C00099FF58462FF078F8FFF7F2FA0023E348E7
:1054D0007B602AF021FA3800FDF79CF83800FDF7D0
:1054E00091F93800FDF744FA3800FCF783FF58467D
:1054F0002FF062F830E70023D8487B602AF00CFADE
:105500003800FDF787F83800FDF77CF93800FDF723
:105510002FFA3800FCF76EFF58462FF04DF851E790
:105520000023CE487B602AF0F7F93800FDF772F8C7
:105530003800FDF767F93800FDF71AFA3800FCF774
:1055400059FF58462FF038F80EE5FDF7ABFE00285E
:1055500000D103E57F22037A93430372FEE4FDF753
:10556000A1FE002800D1E4E47F22037A9343037272
:10557000DFE4FDF797FE002801D1FFF78DFB7F22C6
:10558000037AB749934303720C9B200014AA01339A
:1055900001D0FFF789FBFDF785FE002801D1FFF759
:1055A00091FB7F22037AAF49934303720B9B200048
:1055B00014AA013301D0FFF78DFBFDF773FE00281D
:1055C00001D1FFF795FB7F22037AA749934303722A
:1055D0000A9B200014AA013301D0FFF791FBFDF7CD
:1055E00061FE002801D1FFF799FB7F22037A9F49D2
:1055F00093430372099B200014AA013301D0FFF7E3
:1056000095FBFDF74FFE002801D1FFF79DFB7F22A0
:10561000037A974993430372089B200014AA01332D
:1056200001D0FFF799FBFDF73DFE002801D1FFF700
:10563000A1FB7F22037A8F4993430372079B2000CB
:1056400014AA013301D0FFF79DFBFDF72BFE0028C4
:1056500001D1FFF7A5FB7F22037A874993430372A9
:10566000069B200014AA013301D0FFF7A1FBFDF730
:1056700019FE002801D1FFF7A9FB7F22037A7F4999
:1056800093430372059B200014AA013301D0FFF756
:10569000A5FBFDF707FE002801D1FFF7ADFB7F2238
:1056A000037A774993430372049B200014AA0133C1
:1056B00001D0FFF7A9FBFDF7F5FD002801D1FFF7A9
:1056C000B1FB7F22037A6F4993430372039B20004F
:1056D00014AA013301D0FFF7DDFBFDF7E3FD00283D
:1056E00001D1FFF7E5FB7F22037A674993430372F9
:1056F000029B200014AA013301D0FFF7E1FBFDF764
:10570000D1FD002801D1FFF7E9FB7F22037A5F4931
:1057100093430372019B200014AA013301D0FFF7C9
:10572000E5FBFDF7BFFD002801D1FFF7EDFB7F2270
:10573000037A93430372FFF7E7FBFDF7B3FD0028FD
:1057400001D1FFF793FA7F22037A93430372FFF7A5
:105750008DFAFDF7A7FD002801D1FFF771FA7F222E
:10576000037A93430372FFF76BFAFDF79BFD002862
:1057700001D1FFF751FA7F22037A93430372FFF7B7
:105780004BFAE023F0582B694B4500D3CBE50123BE
:105790002B76DBE5D823F0582B694B4500D38CE5FD
:1057A00001232B76DB33F35821009A4614AA4BA829
:1057B000FDF7D2FC534619784B9B002BE1D07F209C
:1057C0001A7A19608243082002431A7200225A6032
:1057D000E023F058002C00D09DE5B7E5C023F05839
:1057E0002B694B4500D3CFE401232B76DFE4236004
:1057F000A2E523606AE5236031E52360CDE4236000
:1058000027E622600AE6236087E422606AE42260D9
:105810004DE4D423F35814AA00214BA89946FDF770
:105820009BFC4B9A002A33D04B4619782FE5BC23BA
:10583000F3580021994614AA4BA8FDF78DFC4B465E
:1058400019784B9B002B00D1B1E47F201A7A824358
:10585000082002431A7212C3A9E4C04680590020EE
:1058600050ED031054ED031058ED03105CED0310E0
:1058700060ED031064ED031068ED03106CED031090
:1058800070ED031074ED031078ED03107CED031040
:10589000DC23002114AA4BA8F658FDF75DFC4B9BB6
:1058A0003178002B00D151E57F201A7A19608243AC
:1058B000082002431A7200225A6047E501232B7622
:1058C000D7E401232B76D0E501232B76FFF776FB77
:1058D00001232B762BE4C046F0B5CE4647460600A2
:1058E000802080B500018FB01CF08EF9071E00D11A
:1058F000F3E180231B01C318069307930023984606
:10590000424602AC23762833E254664B04971800D3
:10591000994605972EF034FE634D002800D0C7E16C
:105920002800FDF7ABF99C23C35820229846282372
:10593000E2540022002305000A920B935B4904AA5B
:105940000AA8FDF7AFFC00280AD043467F211A7849
:10595000037A02608B4308210B43037200234360E8
:10596000A023EB58524904AA0AA89846FDF79AFCCE
:1059700000280AD043467F211A78037A02608B43BD
:1059800008210B43037200234360A423EB584949C9
:1059900004AA0AA89846FDF785FC00280AD04346C9
:1059A0007F211A78037A02608B4308210B4303722C
:1059B00000234360A823EB583F4904AA0AA898464D
:1059C000FDF770FC00280AD043467F211A78037A3D
:1059D00002608B4308210B43037200234360AC2316
:1059E000EB58364904AA0AA89846FDF75BFC002844
:1059F0000AD043467F211A78037A02608B4308213C
:105A00000B43037200234360B023EB582C4904AAD4
:105A10000AA89846FDF746FC00280AD043467F2195
:105A20001A78037A02608B4308210B430372002328
:105A30004360226A002A1AD0332342209C46D3684E
:105A40001978884205D159788C4502D19B78002B72
:105A50003AD00A21535E002B09D01B01D218D3681B
:105A600019788842EFD00A21535E002BF5D1B42378
:105A7000E8583B00226910339A4200D22FE1636A52
:105A8000103A2261002B00D12CE1D11A0911598161
:105A90000023538113720B4B6262D3600178082399
:105AA0001AE0C04698290020B08000203CED031089
:105AB00040ED031048ED0310B4F9031050ED03104E
:105AC00054ED031058ED0310B4237F20EB581978E0
:105AD000137A8343773803431372002311605360B2
